{
  "contractName": "ERC20Token",
  "abi": [
    {
      "inputs": [
        {
          "internalType": "string",
          "name": "_TokenName",
          "type": "string"
        },
        {
          "internalType": "string",
          "name": "_TokenSymbol",
          "type": "string"
        }
      ],
      "stateMutability": "nonpayable",
      "type": "constructor"
    },
    {
      "anonymous": false,
      "inputs": [
        {
          "indexed": true,
          "internalType": "address",
          "name": "owner",
          "type": "address"
        },
        {
          "indexed": true,
          "internalType": "address",
          "name": "spender",
          "type": "address"
        },
        {
          "indexed": false,
          "internalType": "uint256",
          "name": "value",
          "type": "uint256"
        }
      ],
      "name": "Approval",
      "type": "event"
    },
    {
      "anonymous": false,
      "inputs": [
        {
          "indexed": true,
          "internalType": "address",
          "name": "previousOwner",
          "type": "address"
        },
        {
          "indexed": true,
          "internalType": "address",
          "name": "newOwner",
          "type": "address"
        }
      ],
      "name": "OwnershipTransferred",
      "type": "event"
    },
    {
      "anonymous": false,
      "inputs": [
        {
          "indexed": true,
          "internalType": "address",
          "name": "from",
          "type": "address"
        },
        {
          "indexed": true,
          "internalType": "address",
          "name": "to",
          "type": "address"
        },
        {
          "indexed": false,
          "internalType": "uint256",
          "name": "value",
          "type": "uint256"
        }
      ],
      "name": "Transfer",
      "type": "event"
    },
    {
      "inputs": [
        {
          "internalType": "address",
          "name": "owner",
          "type": "address"
        },
        {
          "internalType": "address",
          "name": "spender",
          "type": "address"
        }
      ],
      "name": "allowance",
      "outputs": [
        {
          "internalType": "uint256",
          "name": "",
          "type": "uint256"
        }
      ],
      "stateMutability": "view",
      "type": "function"
    },
    {
      "inputs": [
        {
          "internalType": "address",
          "name": "spender",
          "type": "address"
        },
        {
          "internalType": "uint256",
          "name": "amount",
          "type": "uint256"
        }
      ],
      "name": "approve",
      "outputs": [
        {
          "internalType": "bool",
          "name": "",
          "type": "bool"
        }
      ],
      "stateMutability": "nonpayable",
      "type": "function"
    },
    {
      "inputs": [
        {
          "internalType": "address",
          "name": "account",
          "type": "address"
        }
      ],
      "name": "balanceOf",
      "outputs": [
        {
          "internalType": "uint256",
          "name": "",
          "type": "uint256"
        }
      ],
      "stateMutability": "view",
      "type": "function"
    },
    {
      "inputs": [],
      "name": "decimals",
      "outputs": [
        {
          "internalType": "uint8",
          "name": "",
          "type": "uint8"
        }
      ],
      "stateMutability": "view",
      "type": "function"
    },
    {
      "inputs": [
        {
          "internalType": "address",
          "name": "spender",
          "type": "address"
        },
        {
          "internalType": "uint256",
          "name": "subtractedValue",
          "type": "uint256"
        }
      ],
      "name": "decreaseAllowance",
      "outputs": [
        {
          "internalType": "bool",
          "name": "",
          "type": "bool"
        }
      ],
      "stateMutability": "nonpayable",
      "type": "function"
    },
    {
      "inputs": [
        {
          "internalType": "address",
          "name": "spender",
          "type": "address"
        },
        {
          "internalType": "uint256",
          "name": "addedValue",
          "type": "uint256"
        }
      ],
      "name": "increaseAllowance",
      "outputs": [
        {
          "internalType": "bool",
          "name": "",
          "type": "bool"
        }
      ],
      "stateMutability": "nonpayable",
      "type": "function"
    },
    {
      "inputs": [],
      "name": "name",
      "outputs": [
        {
          "internalType": "string",
          "name": "",
          "type": "string"
        }
      ],
      "stateMutability": "view",
      "type": "function"
    },
    {
      "inputs": [],
      "name": "owner",
      "outputs": [
        {
          "internalType": "address",
          "name": "",
          "type": "address"
        }
      ],
      "stateMutability": "view",
      "type": "function"
    },
    {
      "inputs": [],
      "name": "renounceOwnership",
      "outputs": [],
      "stateMutability": "nonpayable",
      "type": "function"
    },
    {
      "inputs": [],
      "name": "symbol",
      "outputs": [
        {
          "internalType": "string",
          "name": "",
          "type": "string"
        }
      ],
      "stateMutability": "view",
      "type": "function"
    },
    {
      "inputs": [],
      "name": "totalSupply",
      "outputs": [
        {
          "internalType": "uint256",
          "name": "",
          "type": "uint256"
        }
      ],
      "stateMutability": "view",
      "type": "function"
    },
    {
      "inputs": [
        {
          "internalType": "address",
          "name": "to",
          "type": "address"
        },
        {
          "internalType": "uint256",
          "name": "amount",
          "type": "uint256"
        }
      ],
      "name": "transfer",
      "outputs": [
        {
          "internalType": "bool",
          "name": "",
          "type": "bool"
        }
      ],
      "stateMutability": "nonpayable",
      "type": "function"
    },
    {
      "inputs": [
        {
          "internalType": "address",
          "name": "from",
          "type": "address"
        },
        {
          "internalType": "address",
          "name": "to",
          "type": "address"
        },
        {
          "internalType": "uint256",
          "name": "amount",
          "type": "uint256"
        }
      ],
      "name": "transferFrom",
      "outputs": [
        {
          "internalType": "bool",
          "name": "",
          "type": "bool"
        }
      ],
      "stateMutability": "nonpayable",
      "type": "function"
    },
    {
      "inputs": [
        {
          "internalType": "address",
          "name": "newOwner",
          "type": "address"
        }
      ],
      "name": "transferOwnership",
      "outputs": [],
      "stateMutability": "nonpayable",
      "type": "function"
    },
    {
      "inputs": [],
      "name": "FreeTest",
      "outputs": [],
      "stateMutability": "nonpayable",
      "type": "function"
    }
  ],
  "bytecode": "0x60806040523480156200001157600080fd5b5060405162001aed38038062001aed8339818101604052810190620000379190620003c2565b818181600390816200004a9190620004ed565b5080600490816200005c9190620004ed565b5050506200007f620000736200009f60201b60201c565b620000a760201b60201c565b620000973365048c273950006200016d60201b60201c565b505062000642565b600033905090565b6000600560009054906101000a900473ffffffffffffffffffffffffffffffffffffffff16905081600560006101000a81548173ffffffffffffffffffffffffffffffffffffffff021916908373ffffffffffffffffffffffffffffffffffffffff1602179055508173ffffffffffffffffffffffffffffffffffffffff168173ffffffffffffffffffffffffffffffffffffffff167f8be0079c531659141344cd1fd0a4f28419497f9722a3daafe3b4186f6b6457e060405160405180910390a35050565b600073ffffffffffffffffffffffffffffffffffffffff168273ffffffffffffffffffffffffffffffffffffffff1603620001df576040517f08c379a0000000000000000000000000000000000000000000000000000000008152600401620001d690620005c6565b60405180910390fd5b620001f360008383620002e560201b60201c565b806002600082825462000207919062000604565b92505081905550806000808473ffffffffffffffffffffffffffffffffffffffff1673ffffffffffffffffffffffffffffffffffffffff16815260200190815260200160002060008282546200025e919062000604565b925050819055508173ffffffffffffffffffffffffffffffffffffffff16600073ffffffffffffffffffffffffffffffffffffffff167fddf252ad1be2c89b69c2b068fc378daa952ba7f163c4a11628f55a4df523b3ef83604051620002c5919062000631565b60405180910390a3620002e160008383620002ea60201b60201c565b5050565b505050565b505050565b634e487b7160e01b600052604160045260246000fd5b600082601f8301126200031757600080fd5b815160018060401b0380821115620003345762000333620002ef565b5b601f1960405181603f83601f8701160116810191508082108383111715620003615762000360620002ef565b5b816040528381526020925086838588010111156200037e57600080fd5b600091505b83821015620003a357828287010151838383010152828201915062000383565b83821115620003b55760008385830101525b8094505050505092915050565b60008060408385031215620003d657600080fd5b825160018060401b0380821115620003ed57600080fd5b620003fb8683870162000305565b935060208501519150808211156200041257600080fd5b50620004218582860162000305565b9150509250929050565b60008160011c905060018216806200044457607f821691505b6020821081036200046557634e487b7160e01b600052602260045260246000fd5b50919050565b806000525060006020600020905090565b601f821115620004ce57600081815260208120601f850160051c81016020861015620004a6578190505b601f850160051c820191505b81811015620004ca57828155600181019050620004b2565b5050505b505050565b60008260011b6000198460031b1c19831617905092915050565b815160018060401b03811115620005095762000508620002ef565b5b62000521816200051a84546200042b565b846200047c565b60006020809150601f8311600181146200055a576000841562000545578387015190505b620005518582620004d3565b865550620005be565b601f1984166200056a866200046b565b60005b828110156200059257858901518255600182019150848601955084810190506200056d565b5085821015620005b2578488015160001960f88860031b161c1981168255505b505060018460011b0185555b505050505050565b60208152601f60208201527f45524332303a206d696e7420746f20746865207a65726f20616464726573730060408201526000606082019050919050565b600082198211156200062657634e487b7160e01b600052601160045260246000fd5b828201905092915050565b600060208201905082825292915050565b61149b80620006526000396000f3fe608060405234801561001057600080fd5b50600436106100f55760003560e01c8063715018a611610097578063a457c2d711610066578063a457c2d714610264578063a9059cbb14610294578063dd62ed3e146102c4578063f2fde38b146102f4576100f5565b8063715018a61461021457806387e413021461021e5780638da5cb5b1461022857806395d89b4114610246576100f5565b806323b872dd116100d357806323b872dd14610166578063313ce5671461019657806339509351146101b457806370a08231146101e4576100f5565b806306fdde03146100fa578063095ea7b31461011857806318160ddd14610148575b600080fd5b610102610310565b60405161010f9190610e92565b60405180910390f35b610132600480360381019061012d9190610f37565b6103a2565b60405161013f9190610f63565b60405180910390f35b6101506103c5565b60405161015d9190610f76565b60405180910390f35b610180600480360381019061017b9190610f87565b6103cf565b60405161018d9190610f63565b60405180910390f35b61019e6103fe565b6040516101ab9190610fc3565b60405180910390f35b6101ce60048036038101906101c99190610f37565b610407565b6040516101db9190610f63565b60405180910390f35b6101fe60048036038101906101f99190610fd7565b61043e565b60405161020b9190610f76565b60405180910390f35b61021c610486565b005b61022661049a565b005b6102306104a9565b60405161023d9190610ffa565b60405180910390f35b61024e6104d3565b60405161025b9190610e92565b60405180910390f35b61027e60048036038101906102799190610f37565b610565565b60405161028b9190610f63565b60405180910390f35b6102ae60048036038101906102a99190610f37565b6105dc565b6040516102bb9190610f63565b60405180910390f35b6102de60048036038101906102d99190611021565b6105ff565b6040516102eb9190610f76565b60405180910390f35b61030e60048036038101906103099190610fd7565b610686565b005b60606003805461031f90611054565b80601f016020809104026020016040519081016040528092919081815260200182805461034b90611054565b80156103985780601f1061036d57610100808354040283529160200191610398565b820191906000526020600020905b81548152906001019060200180831161037b57829003601f168201915b5050505050905090565b6000806103ad610709565b90506103ba818585610711565b600191505092915050565b6000600254905090565b6000806103da610709565b90506103e78582856108da565b6103f2858585610966565b60019150509392505050565b60006012905090565b600080610412610709565b905061043381858561042485896105ff565b61042e91906110ab565b610711565b600191505092915050565b60008060008373ffffffffffffffffffffffffffffffffffffffff1673ffffffffffffffffffffffffffffffffffffffff168152602001908152602001600020549050919050565b61048e610be5565b6104986000610c63565b565b6104a733624c4b40610d29565b565b6000600560009054906101000a900473ffffffffffffffffffffffffffffffffffffffff16905090565b6060600480546104e290611054565b80601f016020809104026020016040519081016040528092919081815260200182805461050e90611054565b801561055b5780601f106105305761010080835404028352916020019161055b565b820191906000526020600020905b81548152906001019060200180831161053e57829003601f168201915b5050505050905090565b600080610570610709565b9050600061057e82866105ff565b9050838110156105c3576040517f08c379a00000000000000000000000000000000000000000000000000000000081526004016105ba906110f0565b60405180910390fd5b6105d08286868403610711565b60019250505092915050565b6000806105e7610709565b90506105f4818585610966565b600191505092915050565b6000600160008473ffffffffffffffffffffffffffffffffffffffff1673ffffffffffffffffffffffffffffffffffffffff16815260200190815260200160002060008373ffffffffffffffffffffffffffffffffffffffff1673ffffffffffffffffffffffffffffffffffffffff16815260200190815260200160002054905092915050565b61068e610be5565b600073ffffffffffffffffffffffffffffffffffffffff168173ffffffffffffffffffffffffffffffffffffffff16036106fd576040517f08c379a00000000000000000000000000000000000000000000000000000000081526004016106f490611154565b60405180910390fd5b61070681610c63565b50565b600033905090565b600073ffffffffffffffffffffffffffffffffffffffff168373ffffffffffffffffffffffffffffffffffffffff1603610780576040517f08c379a0000000000000000000000000000000000000000000000000000000008152600401610777906111b8565b60405180910390fd5b600073ffffffffffffffffffffffffffffffffffffffff168273ffffffffffffffffffffffffffffffffffffffff16036107ef576040517f08c379a00000000000000000000000000000000000000000000000000000000081526004016107e69061121c565b60405180910390fd5b80600160008573ffffffffffffffffffffffffffffffffffffffff1673ffffffffffffffffffffffffffffffffffffffff16815260200190815260200160002060008473ffffffffffffffffffffffffffffffffffffffff1673ffffffffffffffffffffffffffffffffffffffff168152602001908152602001600020819055508173ffffffffffffffffffffffffffffffffffffffff168373ffffffffffffffffffffffffffffffffffffffff167f8c5be1e5ebec7d5bd14f71427d1e84f3dd0314c0f7b2291e5b200ac8c7c3b925836040516108cd9190610f76565b60405180910390a3505050565b60006108e684846105ff565b90507fffffffffffffffffffffffffffffffffffffffffffffffffffffffffffffffff81146109605781811015610952576040517f08c379a000000000000000000000000000000000000000000000000000000000815260040161094990611280565b60405180910390fd5b61095f8484848403610711565b5b50505050565b600073ffffffffffffffffffffffffffffffffffffffff168373ffffffffffffffffffffffffffffffffffffffff16036109d5576040517f08c379a00000000000000000000000000000000000000000000000000000000081526004016109cc906112be565b60405180910390fd5b600073ffffffffffffffffffffffffffffffffffffffff168273ffffffffffffffffffffffffffffffffffffffff1603610a44576040517f08c379a0000000000000000000000000000000000000000000000000000000008152600401610a3b90611322565b60405180910390fd5b610a4f838383610e88565b60008060008573ffffffffffffffffffffffffffffffffffffffff1673ffffffffffffffffffffffffffffffffffffffff16815260200190815260200160002054905081811015610ad5576040517f08c379a0000000000000000000000000000000000000000000000000000000008152600401610acc90611386565b60405180910390fd5b8181036000808673ffffffffffffffffffffffffffffffffffffffff1673ffffffffffffffffffffffffffffffffffffffff16815260200190815260200160002081905550816000808573ffffffffffffffffffffffffffffffffffffffff1673ffffffffffffffffffffffffffffffffffffffff1681526020019081526020016000206000828254610b6891906110ab565b925050819055508273ffffffffffffffffffffffffffffffffffffffff168473ffffffffffffffffffffffffffffffffffffffff167fddf252ad1be2c89b69c2b068fc378daa952ba7f163c4a11628f55a4df523b3ef84604051610bcc9190610f76565b60405180910390a3610bdf848484610e8d565b50505050565b610bed610709565b73ffffffffffffffffffffffffffffffffffffffff16610c0b6104a9565b73ffffffffffffffffffffffffffffffffffffffff1614610c61576040517f08c379a0000000000000000000000000000000000000000000000000000000008152600401610c58906113ea565b60405180910390fd5b565b6000600560009054906101000a900473ffffffffffffffffffffffffffffffffffffffff16905081600560006101000a81548173ffffffffffffffffffffffffffffffffffffffff021916908373ffffffffffffffffffffffffffffffffffffffff1602179055508173ffffffffffffffffffffffffffffffffffffffff168173ffffffffffffffffffffffffffffffffffffffff167f8be0079c531659141344cd1fd0a4f28419497f9722a3daafe3b4186f6b6457e060405160405180910390a35050565b600073ffffffffffffffffffffffffffffffffffffffff168273ffffffffffffffffffffffffffffffffffffffff1603610d98576040517f08c379a0000000000000000000000000000000000000000000000000000000008152600401610d8f90611427565b60405180910390fd5b610da460008383610e88565b8060026000828254610db691906110ab565b92505081905550806000808473ffffffffffffffffffffffffffffffffffffffff1673ffffffffffffffffffffffffffffffffffffffff1681526020019081526020016000206000828254610e0b91906110ab565b925050819055508173ffffffffffffffffffffffffffffffffffffffff16600073ffffffffffffffffffffffffffffffffffffffff167fddf252ad1be2c89b69c2b068fc378daa952ba7f163c4a11628f55a4df523b3ef83604051610e709190610f76565b60405180910390a3610e8460008383610e8d565b5050565b505050565b505050565b600060208083528351808285015260005b81811015610ec257828187010151604082870101528281019050610ea3565b81811115610ed4576000604083870101525b5060407fffffffffffffffffffffffffffffffffffffffffffffffffffffffffffffffe0601f8301168501019250505092915050565b60008135905073ffffffffffffffffffffffffffffffffffffffff81168114610f3257600080fd5b919050565b60008060408385031215610f4a57600080fd5b610f5383610f0a565b9150602083013590509250929050565b6000602082019050821515825292915050565b600060208201905082825292915050565b600080600060608486031215610f9c57600080fd5b610fa584610f0a565b9250610fb360208501610f0a565b9150604084013590509250925092565b600060208201905060ff8316825292915050565b600060208284031215610fe957600080fd5b610ff282610f0a565b905092915050565b600060208201905073ffffffffffffffffffffffffffffffffffffffff8316825292915050565b6000806040838503121561103457600080fd5b61103d83610f0a565b915061104b60208401610f0a565b90509250929050565b60008160011c9050600182168061106c57607f821691505b6020821081036110a5577f4e487b7100000000000000000000000000000000000000000000000000000000600052602260045260246000fd5b50919050565b600082198211156110e5577f4e487b7100000000000000000000000000000000000000000000000000000000600052601160045260246000fd5b828201905092915050565b60208152602560208201527f45524332303a2064656372656173656420616c6c6f77616e63652062656c6f7760408201527f207a65726f00000000000000000000000000000000000000000000000000000060608201526000608082019050919050565b60208152602660208201527f4f776e61626c653a206e6577206f776e657220697320746865207a65726f206160408201527f646472657373000000000000000000000000000000000000000000000000000060608201526000608082019050919050565b60208152602460208201527f45524332303a20617070726f76652066726f6d20746865207a65726f2061646460408201527f726573730000000000000000000000000000000000000000000000000000000060608201526000608082019050919050565b60208152602260208201527f45524332303a20617070726f766520746f20746865207a65726f20616464726560408201527f737300000000000000000000000000000000000000000000000000000000000060608201526000608082019050919050565b60208152601d60208201527f45524332303a20696e73756666696369656e7420616c6c6f77616e636500000060408201526000606082019050919050565b60208152602560208201527f45524332303a207472616e736665722066726f6d20746865207a65726f20616460408201527f647265737300000000000000000000000000000000000000000000000000000060608201526000608082019050919050565b60208152602360208201527f45524332303a207472616e7366657220746f20746865207a65726f206164647260408201527f657373000000000000000000000000000000000000000000000000000000000060608201526000608082019050919050565b60208152602660208201527f45524332303a207472616e7366657220616d6f756e742065786365656473206260408201527f616c616e6365000000000000000000000000000000000000000000000000000060608201526000608082019050919050565b602081526020808201527f4f776e61626c653a2063616c6c6572206973206e6f7420746865206f776e657260408201526000606082019050919050565b60208152601f60208201527f45524332303a206d696e7420746f20746865207a65726f2061646472657373006040820152600060608201905091905056fea2646970667358221220a58564fe9f85aeb804c38d42247d3757de5c3d1e3375b6e41f2dc8be89bed80b64736f6c634300080f0033",
  "immutableReferences": {},
  "source": "// SPDX-License-Identifier: MIT\r\npragma solidity ^0.8.0;\r\n\r\nimport \"@openzeppelin/contracts/token/ERC20/ERC20.sol\";\r\nimport \"@openzeppelin/contracts/access/Ownable.sol\";\r\n\r\n/**\r\n * @title TestToken is a basic ERC20 Token\r\n */\r\ncontract ERC20Token is ERC20, Ownable {\r\n    /**\r\n     * @dev assign totalSupply to account creating this contract\r\n     */\r\n\r\n    constructor(string memory _TokenName, string memory _TokenSymbol)\r\n        ERC20(_TokenName, _TokenSymbol)\r\n    {\r\n        _mint(msg.sender, 5000000000000);\r\n    }\r\n\r\n    function FreeTest() public {\r\n        _mint(msg.sender, 5000000);\r\n    }\r\n}\r\n",
  "sourcePath": "poolz-helper-v2\\contracts\\token\\ERC20Token.sol",
  "compiler": {
    "name": "solc",
    "version": "0.8.15+commit.e14f2714.Emscripten.clang"
  },
  "schemaVersion": "3.4.8",
  "updatedAt": "2022-07-13T10:38:20.957Z",
  "devdoc": {
    "kind": "dev",
    "methods": {
      "allowance(address,address)": {
        "details": "See {IERC20-allowance}."
      },
      "approve(address,uint256)": {
        "details": "See {IERC20-approve}. NOTE: If `amount` is the maximum `uint256`, the allowance is not updated on `transferFrom`. This is semantically equivalent to an infinite approval. Requirements: - `spender` cannot be the zero address."
      },
      "balanceOf(address)": {
        "details": "See {IERC20-balanceOf}."
      },
      "constructor": {
        "details": "assign totalSupply to account creating this contract"
      },
      "decimals()": {
        "details": "Returns the number of decimals used to get its user representation. For example, if `decimals` equals `2`, a balance of `505` tokens should be displayed to a user as `5.05` (`505 / 10 ** 2`). Tokens usually opt for a value of 18, imitating the relationship between Ether and Wei. This is the value {ERC20} uses, unless this function is overridden; NOTE: This information is only used for _display_ purposes: it in no way affects any of the arithmetic of the contract, including {IERC20-balanceOf} and {IERC20-transfer}."
      },
      "decreaseAllowance(address,uint256)": {
        "details": "Atomically decreases the allowance granted to `spender` by the caller. This is an alternative to {approve} that can be used as a mitigation for problems described in {IERC20-approve}. Emits an {Approval} event indicating the updated allowance. Requirements: - `spender` cannot be the zero address. - `spender` must have allowance for the caller of at least `subtractedValue`."
      },
      "increaseAllowance(address,uint256)": {
        "details": "Atomically increases the allowance granted to `spender` by the caller. This is an alternative to {approve} that can be used as a mitigation for problems described in {IERC20-approve}. Emits an {Approval} event indicating the updated allowance. Requirements: - `spender` cannot be the zero address."
      },
      "name()": {
        "details": "Returns the name of the token."
      },
      "owner()": {
        "details": "Returns the address of the current owner."
      },
      "renounceOwnership()": {
        "details": "Leaves the contract without owner. It will not be possible to call `onlyOwner` functions anymore. Can only be called by the current owner. NOTE: Renouncing ownership will leave the contract without an owner, thereby removing any functionality that is only available to the owner."
      },
      "symbol()": {
        "details": "Returns the symbol of the token, usually a shorter version of the name."
      },
      "totalSupply()": {
        "details": "See {IERC20-totalSupply}."
      },
      "transfer(address,uint256)": {
        "details": "See {IERC20-transfer}. Requirements: - `to` cannot be the zero address. - the caller must have a balance of at least `amount`."
      },
      "transferFrom(address,address,uint256)": {
        "details": "See {IERC20-transferFrom}. Emits an {Approval} event indicating the updated allowance. This is not required by the EIP. See the note at the beginning of {ERC20}. NOTE: Does not update the allowance if the current allowance is the maximum `uint256`. Requirements: - `from` and `to` cannot be the zero address. - `from` must have a balance of at least `amount`. - the caller must have allowance for ``from``'s tokens of at least `amount`."
      },
      "transferOwnership(address)": {
        "details": "Transfers ownership of the contract to a new account (`newOwner`). Can only be called by the current owner."
      }
    },
    "title": "TestToken is a basic ERC20 Token",
    "version": 1
  },
  "userdoc": {
    "kind": "user",
    "methods": {},
    "version": 1
  }
}