{
  "contractName": "FeeBaseHelper",
  "abi": [
    {
      "anonymous": false,
      "inputs": [
        {
          "indexed": false,
          "internalType": "uint256",
          "name": "NewFeeAmount",
          "type": "uint256"
        },
        {
          "indexed": false,
          "internalType": "uint256",
          "name": "OldFeeAmount",
          "type": "uint256"
        }
      ],
      "name": "NewFeeAmount",
      "type": "event"
    },
    {
      "anonymous": false,
      "inputs": [
        {
          "indexed": false,
          "internalType": "address",
          "name": "NewFeeToken",
          "type": "address"
        },
        {
          "indexed": false,
          "internalType": "address",
          "name": "OldFeeToken",
          "type": "address"
        }
      ],
      "name": "NewFeeToken",
      "type": "event"
    },
    {
      "anonymous": false,
      "inputs": [
        {
          "indexed": true,
          "internalType": "address",
          "name": "previousOwner",
          "type": "address"
        },
        {
          "indexed": true,
          "internalType": "address",
          "name": "newOwner",
          "type": "address"
        }
      ],
      "name": "OwnershipTransferred",
      "type": "event"
    },
    {
      "anonymous": false,
      "inputs": [
        {
          "indexed": false,
          "internalType": "uint256",
          "name": "Amount",
          "type": "uint256"
        },
        {
          "indexed": false,
          "internalType": "address",
          "name": "From",
          "type": "address"
        },
        {
          "indexed": false,
          "internalType": "address",
          "name": "Token",
          "type": "address"
        }
      ],
      "name": "TransferIn",
      "type": "event"
    },
    {
      "anonymous": false,
      "inputs": [
        {
          "indexed": false,
          "internalType": "uint256",
          "name": "Amount",
          "type": "uint256"
        },
        {
          "indexed": false,
          "internalType": "address",
          "name": "From",
          "type": "address"
        }
      ],
      "name": "TransferInETH",
      "type": "event"
    },
    {
      "anonymous": false,
      "inputs": [
        {
          "indexed": false,
          "internalType": "uint256",
          "name": "Amount",
          "type": "uint256"
        },
        {
          "indexed": false,
          "internalType": "address",
          "name": "To",
          "type": "address"
        },
        {
          "indexed": false,
          "internalType": "address",
          "name": "Token",
          "type": "address"
        }
      ],
      "name": "TransferOut",
      "type": "event"
    },
    {
      "inputs": [],
      "name": "Fee",
      "outputs": [
        {
          "internalType": "uint256",
          "name": "",
          "type": "uint256"
        }
      ],
      "stateMutability": "view",
      "type": "function"
    },
    {
      "inputs": [],
      "name": "FeeToken",
      "outputs": [
        {
          "internalType": "address",
          "name": "",
          "type": "address"
        }
      ],
      "stateMutability": "view",
      "type": "function"
    },
    {
      "inputs": [],
      "name": "GovernerContract",
      "outputs": [
        {
          "internalType": "address",
          "name": "",
          "type": "address"
        }
      ],
      "stateMutability": "view",
      "type": "function"
    },
    {
      "inputs": [],
      "name": "Reserve",
      "outputs": [
        {
          "internalType": "uint256",
          "name": "",
          "type": "uint256"
        }
      ],
      "stateMutability": "view",
      "type": "function"
    },
    {
      "inputs": [],
      "name": "owner",
      "outputs": [
        {
          "internalType": "address",
          "name": "",
          "type": "address"
        }
      ],
      "stateMutability": "view",
      "type": "function"
    },
    {
      "inputs": [],
      "name": "renounceOwnership",
      "outputs": [],
      "stateMutability": "nonpayable",
      "type": "function"
    },
    {
      "inputs": [
        {
          "internalType": "address",
          "name": "_address",
          "type": "address"
        }
      ],
      "name": "setGovernerContract",
      "outputs": [],
      "stateMutability": "nonpayable",
      "type": "function"
    },
    {
      "inputs": [
        {
          "internalType": "address",
          "name": "newOwner",
          "type": "address"
        }
      ],
      "name": "transferOwnership",
      "outputs": [],
      "stateMutability": "nonpayable",
      "type": "function"
    },
    {
      "inputs": [
        {
          "internalType": "uint256",
          "name": "_fee",
          "type": "uint256"
        }
      ],
      "name": "PayFee",
      "outputs": [],
      "stateMutability": "payable",
      "type": "function"
    },
    {
      "inputs": [
        {
          "internalType": "uint256",
          "name": "_amount",
          "type": "uint256"
        }
      ],
      "name": "SetFeeAmount",
      "outputs": [],
      "stateMutability": "nonpayable",
      "type": "function"
    },
    {
      "inputs": [
        {
          "internalType": "address",
          "name": "_token",
          "type": "address"
        }
      ],
      "name": "SetFeeToken",
      "outputs": [],
      "stateMutability": "nonpayable",
      "type": "function"
    },
    {
      "inputs": [
        {
          "internalType": "address payable",
          "name": "_to",
          "type": "address"
        }
      ],
      "name": "WithdrawFee",
      "outputs": [],
      "stateMutability": "nonpayable",
      "type": "function"
    }
  ],
  "bytecode": "0x608060405234801561001057600080fd5b5061002d61002261007460201b60201c565b61007c60201b60201c565b6000600160006101000a81548173ffffffffffffffffffffffffffffffffffffffff021916908373ffffffffffffffffffffffffffffffffffffffff160217905550610140565b600033905090565b60008060009054906101000a900473ffffffffffffffffffffffffffffffffffffffff169050816000806101000a81548173ffffffffffffffffffffffffffffffffffffffff021916908373ffffffffffffffffffffffffffffffffffffffff1602179055508173ffffffffffffffffffffffffffffffffffffffff168173ffffffffffffffffffffffffffffffffffffffff167f8be0079c531659141344cd1fd0a4f28419497f9722a3daafe3b4186f6b6457e060405160405180910390a35050565b61152d8061014f6000396000f3fe6080604052600436106100c75760003560e01c80638da5cb5b11610074578063d854f7021161004e578063d854f70214610235578063da0ff68c1461025e578063f2fde38b1461027a576100c7565b80638da5cb5b146101b4578063bef7a2f0146101df578063cda95d801461020a576100c7565b8063481531e9116100a5578063481531e9146101495780636681896714610174578063715018a61461019d576100c7565b80630842bcbb146100cc5780630cd8e965146100f55780633aa0d15d14610120575b600080fd5b3480156100d857600080fd5b506100f360048036038101906100ee919061105d565b6102a3565b005b34801561010157600080fd5b5061010a6104b4565b6040516101179190611084565b60405180910390f35b34801561012c57600080fd5b50610147600480360381019061014291906110ab565b6104da565b005b34801561015557600080fd5b5061015e6106cb565b60405161016b9190611084565b60405180910390f35b34801561018057600080fd5b5061019b6004803603810190610196919061105d565b6106f1565b005b3480156101a957600080fd5b506101b2610802565b005b3480156101c057600080fd5b506101c9610816565b6040516101d69190611084565b60405180910390f35b3480156101eb57600080fd5b506101f461083f565b60405161020191906110d2565b60405180910390f35b34801561021657600080fd5b5061021f610845565b60405161022c91906110d2565b60405180910390f35b34801561024157600080fd5b5061025c600480360381019061025791906110e3565b61084b565b005b610278600480360381019061027391906110e3565b6109a1565b005b34801561028657600080fd5b506102a1600480360381019061029c919061105d565b610acc565b005b6102ab610816565b73ffffffffffffffffffffffffffffffffffffffff163373ffffffffffffffffffffffffffffffffffffffff1614806103315750600160009054906101000a900473ffffffffffffffffffffffffffffffffffffffff1673ffffffffffffffffffffffffffffffffffffffff163373ffffffffffffffffffffffffffffffffffffffff16145b610370576040517f08c379a0000000000000000000000000000000000000000000000000000000008152600401610367906110ff565b60405180910390fd5b8073ffffffffffffffffffffffffffffffffffffffff16600360009054906101000a900473ffffffffffffffffffffffffffffffffffffffff1673ffffffffffffffffffffffffffffffffffffffff1603610400576040517f08c379a00000000000000000000000000000000000000000000000000000000081526004016103f79061113d565b60405180910390fd5b6000600454111561041557610414326104da565b5b7f2a649a96ed014013ba4748bc2952462a2adb0707fb5a2f30ff1f9041425f168f81600360009054906101000a900473ffffffffffffffffffffffffffffffffffffffff1660405161046892919061117b565b60405180910390a180600360006101000a81548173ffffffffffffffffffffffffffffffffffffffff021916908373ffffffffffffffffffffffffffffffffffffffff16021790555050565b600160009054906101000a900473ffffffffffffffffffffffffffffffffffffffff1681565b6104e2610816565b73ffffffffffffffffffffffffffffffffffffffff163373ffffffffffffffffffffffffffffffffffffffff1614806105685750600160009054906101000a900473ffffffffffffffffffffffffffffffffffffffff1673ffffffffffffffffffffffffffffffffffffffff163373ffffffffffffffffffffffffffffffffffffffff16145b6105a7576040517f08c379a000000000000000000000000000000000000000000000000000000000815260040161059e906110ff565b60405180910390fd5b6000600454116105ec576040517f08c379a00000000000000000000000000000000000000000000000000000000081526004016105e3906111ad565b60405180910390fd5b600073ffffffffffffffffffffffffffffffffffffffff16600360009054906101000a900473ffffffffffffffffffffffffffffffffffffffff1673ffffffffffffffffffffffffffffffffffffffff1603610690578073ffffffffffffffffffffffffffffffffffffffff166108fc6004549081150290604051600060405180830381858888f1935050505015801561068a573d6000803e3d6000fd5b506106c0565b6106bf600360009054906101000a900473ffffffffffffffffffffffffffffffffffffffff1682600454610b4f565b5b600060048190555050565b600360009054906101000a900473ffffffffffffffffffffffffffffffffffffffff1681565b6106f9610816565b73ffffffffffffffffffffffffffffffffffffffff163373ffffffffffffffffffffffffffffffffffffffff16148061077f5750600160009054906101000a900473ffffffffffffffffffffffffffffffffffffffff1673ffffffffffffffffffffffffffffffffffffffff163373ffffffffffffffffffffffffffffffffffffffff16145b6107be576040517f08c379a00000000000000000000000000000000000000000000000000000000081526004016107b5906110ff565b60405180910390fd5b80600160006101000a81548173ffffffffffffffffffffffffffffffffffffffff021916908373ffffffffffffffffffffffffffffffffffffffff16021790555050565b61080a610c73565b6108146000610cf1565b565b60008060009054906101000a900473ffffffffffffffffffffffffffffffffffffffff16905090565b60025481565b60045481565b610853610816565b73ffffffffffffffffffffffffffffffffffffffff163373ffffffffffffffffffffffffffffffffffffffff1614806108d95750600160009054906101000a900473ffffffffffffffffffffffffffffffffffffffff1673ffffffffffffffffffffffffffffffffffffffff163373ffffffffffffffffffffffffffffffffffffffff16145b610918576040517f08c379a000000000000000000000000000000000000000000000000000000000815260040161090f906110ff565b60405180910390fd5b806002540361095c576040517f08c379a0000000000000000000000000000000000000000000000000000000008152600401610953906111eb565b60405180910390fd5b7f9d7f8f903b5290796d6b981141519d69dacf3b8bc9d0a19fabd782e73e8861918160025460405161098f929190611229565b60405180910390a18060028190555050565b6000810315610ac957600073ffffffffffffffffffffffffffffffffffffffff16600360009054906101000a900473ffffffffffffffffffffffffffffffffffffffff1673ffffffffffffffffffffffffffffffffffffffff1603610a815780341015610a43576040517f08c379a0000000000000000000000000000000000000000000000000000000008152600401610a3a90611241565b60405180910390fd5b7f3a32cdd14cdfd431946dfa0b2aef5ace661340411aaadcaee6aef6738d3023263432604051610a7492919061127f565b60405180910390a1610aaf565b610aae600360009054906101000a900473ffffffffffffffffffffffffffffffffffffffff163283610db5565b5b8060046000828254610ac191906112ad565b925050819055505b50565b610ad4610c73565b600073ffffffffffffffffffffffffffffffffffffffff168173ffffffffffffffffffffffffffffffffffffffff1603610b43576040517f08c379a0000000000000000000000000000000000000000000000000000000008152600401610b3a906112f2565b60405180910390fd5b610b4c81610cf1565b50565b6000610b5b8430610fac565b90507fe4d818e6f992efbd60db553f3edce819a199baec79a784b95c89bc8ee86f2584828486604051610b9093929190611356565b60405180910390a18373ffffffffffffffffffffffffffffffffffffffff1663a9059cbb84846040518363ffffffff1660e01b8152600401610bd392919061138f565b6020604051808303816000875af1158015610bf2573d6000803e3d6000fd5b505050506040513d601f19601f82011682018060405250810190610c1691906113bd565b508082610c238630610fac565b610c2d91906112ad565b14610c6d576040517f08c379a0000000000000000000000000000000000000000000000000000000008152600401610c64906113e9565b60405180910390fd5b50505050565b610c7b611030565b73ffffffffffffffffffffffffffffffffffffffff16610c99610816565b73ffffffffffffffffffffffffffffffffffffffff1614610cef576040517f08c379a0000000000000000000000000000000000000000000000000000000008152600401610ce690611427565b60405180910390fd5b565b60008060009054906101000a900473ffffffffffffffffffffffffffffffffffffffff169050816000806101000a81548173ffffffffffffffffffffffffffffffffffffffff021916908373ffffffffffffffffffffffffffffffffffffffff1602179055508173ffffffffffffffffffffffffffffffffffffffff168173ffffffffffffffffffffffffffffffffffffffff167f8be0079c531659141344cd1fd0a4f28419497f9722a3daafe3b4186f6b6457e060405160405180910390a35050565b828282808373ffffffffffffffffffffffffffffffffffffffff1663dd62ed3e84306040518363ffffffff1660e01b8152600401610df492919061117b565b602060405180830381865afa158015610e11573d6000803e3d6000fd5b505050506040513d601f19601f82011682018060405250810190610e359190611464565b1015610e76576040517f08c379a0000000000000000000000000000000000000000000000000000000008152600401610e6d90611480565b60405180910390fd5b60008411610e8357600080fd5b6000610e8f8730610fac565b90508673ffffffffffffffffffffffffffffffffffffffff166323b872dd8730886040518463ffffffff1660e01b8152600401610ece939291906114be565b6020604051808303816000875af1158015610eed573d6000803e3d6000fd5b505050506040513d601f19601f82011682018060405250810190610f1191906113bd565b507f1fecf4702e692891a7c2f0d328779b085efb5edd094fa5558bd5cd147a167922858789604051610f4593929190611356565b60405180910390a1610f578730610fac565b8582610f6391906112ad565b14610fa3576040517f08c379a0000000000000000000000000000000000000000000000000000000008152600401610f9a906113e9565b60405180910390fd5b50505050505050565b60008273ffffffffffffffffffffffffffffffffffffffff166370a08231836040518263ffffffff1660e01b8152600401610fe79190611084565b602060405180830381865afa158015611004573d6000803e3d6000fd5b505050506040513d601f19601f820116820180604052508101906110289190611464565b905092915050565b600033905090565b73ffffffffffffffffffffffffffffffffffffffff8116811461105a57600080fd5b50565b60006020828403121561106f57600080fd5b813561107a81611038565b8091505092915050565b600060208201905073ffffffffffffffffffffffffffffffffffffffff8316825292915050565b6000602082840312156110bd57600080fd5b81356110c881611038565b8091505092915050565b600060208201905082825292915050565b6000602082840312156110f557600080fd5b8135905092915050565b60208152601360208201527f417574686f72697a6174696f6e204572726f720000000000000000000000000060408201526000606082019050919050565b60208152601860208201527f43616e2774207377617020746f2073616d6520746f6b656e000000000000000060408201526000606082019050919050565b600060408201905073ffffffffffffffffffffffffffffffffffffffff80851683528084166020840152509392505050565b60208152601260208201527f46656520616d6f756e74206973207a65726f000000000000000000000000000060408201526000606082019050919050565b60208152601c60208201527f43616e2774207377617020746f2073616d65206665652076616c75650000000060408201526000606082019050919050565b60006040820190508382528260208301529392505050565b60208152601760208201527f4e6f7420456e6f756768204665652050726f766964656400000000000000000060408201526000606082019050919050565b600060408201905083825273ffffffffffffffffffffffffffffffffffffffff831660208301529392505050565b600082198211156112e7577f4e487b7100000000000000000000000000000000000000000000000000000000600052601160045260246000fd5b828201905092915050565b60208152602660208201527f4f776e61626c653a206e6577206f776e657220697320746865207a65726f206160408201527f646472657373000000000000000000000000000000000000000000000000000060608201526000608082019050919050565b600060608201905084825273ffffffffffffffffffffffffffffffffffffffff8085166020840152808416604084015250949350505050565b600060408201905073ffffffffffffffffffffffffffffffffffffffff841682528260208301529392505050565b6000602082840312156113cf57600080fd5b815180151581146113df57600080fd5b8091505092915050565b60208152601d60208201527f7265636976652077726f6e6720616d6f756e74206f6620746f6b656e7300000060408201526000606082019050919050565b602081526020808201527f4f776e61626c653a2063616c6c6572206973206e6f7420746865206f776e657260408201526000606082019050919050565b60006020828403121561147657600080fd5b8151905092915050565b60208152600c60208201527f6e6f20616c6c6f77616e6365000000000000000000000000000000000000000060408201526000606082019050919050565b600060608201905073ffffffffffffffffffffffffffffffffffffffff808616835280851660208401525082604083015294935050505056fea2646970667358221220fb5851eea72b4ea469d8b6bbc7a1efd60c9806b135acac1ee0faf37842d2322464736f6c634300080f0033",
  "immutableReferences": {},
  "source": "// SPDX-License-Identifier: MIT\r\npragma solidity ^0.8.0;\r\n\r\nimport \"./ERC20Helper.sol\";\r\nimport \"./GovManager.sol\";\r\n\r\ncontract FeeBaseHelper is ERC20Helper, GovManager {\r\n    event TransferInETH(uint256 Amount, address From);\r\n    event NewFeeAmount(uint256 NewFeeAmount, uint256 OldFeeAmount);\r\n    event NewFeeToken(address NewFeeToken, address OldFeeToken);\r\n\r\n    uint256 public Fee;\r\n    address public FeeToken;\r\n    uint256 public Reserve;\r\n\r\n    function PayFee(uint256 _fee) public payable {\r\n        if (_fee == 0) return;\r\n        if (FeeToken == address(0)) {\r\n            require(msg.value >= _fee, \"Not Enough Fee Provided\");\r\n            emit TransferInETH(msg.value, tx.origin);\r\n        } else {\r\n            TransferInToken(FeeToken, tx.origin, _fee);\r\n        }\r\n        Reserve += _fee;\r\n    }\r\n\r\n    function SetFeeAmount(uint256 _amount) public onlyOwnerOrGov {\r\n        require(Fee != _amount, \"Can't swap to same fee value\");\r\n        emit NewFeeAmount(_amount, Fee);\r\n        Fee = _amount;\r\n    }\r\n\r\n    function SetFeeToken(address _token) public onlyOwnerOrGov {\r\n        require(FeeToken != _token, \"Can't swap to same token\");\r\n        if (Reserve > 0) {\r\n            WithdrawFee(payable(tx.origin)); // If the admin tries to set a new token without withrowing the old one\r\n        }\r\n        emit NewFeeToken(_token, FeeToken);\r\n        FeeToken = _token; // set address(0) to use ETH/BNB as main coin\r\n    }\r\n\r\n    function WithdrawFee(address payable _to) public onlyOwnerOrGov {\r\n        require(Reserve > 0, \"Fee amount is zero\");\r\n        if (FeeToken == address(0)) {\r\n            _to.transfer(Reserve);\r\n        } else {\r\n            TransferToken(FeeToken, _to, Reserve);\r\n        }\r\n        Reserve = 0;\r\n    }\r\n}\r\n",
  "sourcePath": "poolz-helper-v2\\contracts\\FeeBaseHelper.sol",
  "compiler": {
    "name": "solc",
    "version": "0.8.15+commit.e14f2714.Emscripten.clang"
  },
  "schemaVersion": "3.4.8",
  "updatedAt": "2022-07-13T10:38:20.953Z",
  "devdoc": {
    "kind": "dev",
    "methods": {
      "owner()": {
        "details": "Returns the address of the current owner."
      },
      "renounceOwnership()": {
        "details": "Leaves the contract without owner. It will not be possible to call `onlyOwner` functions anymore. Can only be called by the current owner. NOTE: Renouncing ownership will leave the contract without an owner, thereby removing any functionality that is only available to the owner."
      },
      "transferOwnership(address)": {
        "details": "Transfers ownership of the contract to a new account (`newOwner`). Can only be called by the current owner."
      }
    },
    "version": 1
  },
  "userdoc": {
    "kind": "user",
    "methods": {},
    "version": 1
  }
}