{
  "contractName": "RegistrationPublic",
  "abi": [
    {
      "anonymous": false,
      "inputs": [
        {
          "indexed": false,
          "internalType": "uint256",
          "name": "PoolId",
          "type": "uint256"
        },
        {
          "indexed": false,
          "internalType": "uint256",
          "name": "SignUpId",
          "type": "uint256"
        },
        {
          "indexed": false,
          "internalType": "string[]",
          "name": "Values",
          "type": "string[]"
        }
      ],
      "name": "NewRegistration",
      "type": "event"
    },
    {
      "anonymous": false,
      "inputs": [
        {
          "indexed": false,
          "internalType": "uint256",
          "name": "PoolId",
          "type": "uint256"
        },
        {
          "indexed": false,
          "internalType": "string[]",
          "name": "Keys",
          "type": "string[]"
        },
        {
          "indexed": false,
          "internalType": "address",
          "name": "Owner",
          "type": "address"
        },
        {
          "indexed": false,
          "internalType": "address",
          "name": "TokenFee",
          "type": "address"
        },
        {
          "indexed": false,
          "internalType": "uint256",
          "name": "Fee",
          "type": "uint256"
        }
      ],
      "name": "NewRegistrationPoolCreated",
      "type": "event"
    },
    {
      "anonymous": false,
      "inputs": [
        {
          "indexed": false,
          "internalType": "address",
          "name": "account",
          "type": "address"
        }
      ],
      "name": "Paused",
      "type": "event"
    },
    {
      "anonymous": false,
      "inputs": [
        {
          "indexed": false,
          "internalType": "uint256",
          "name": "PoolId",
          "type": "uint256"
        }
      ],
      "name": "RegistrationPoolActivated",
      "type": "event"
    },
    {
      "anonymous": false,
      "inputs": [
        {
          "indexed": false,
          "internalType": "uint256",
          "name": "PoolId",
          "type": "uint256"
        }
      ],
      "name": "RegistrationPoolDeactivated",
      "type": "event"
    },
    {
      "anonymous": false,
      "inputs": [
        {
          "indexed": false,
          "internalType": "string[]",
          "name": "NewValues",
          "type": "string[]"
        },
        {
          "indexed": false,
          "internalType": "string[]",
          "name": "OldValues",
          "type": "string[]"
        }
      ],
      "name": "SignUpValuesChanged",
      "type": "event"
    },
    {
      "anonymous": false,
      "inputs": [
        {
          "indexed": false,
          "internalType": "address",
          "name": "account",
          "type": "address"
        }
      ],
      "name": "Unpaused",
      "type": "event"
    },
    {
      "inputs": [
        {
          "internalType": "uint256",
          "name": "",
          "type": "uint256"
        }
      ],
      "name": "RegistrationPools",
      "outputs": [
        {
          "internalType": "address",
          "name": "Owner",
          "type": "address"
        },
        {
          "internalType": "bool",
          "name": "IsActive",
          "type": "bool"
        },
        {
          "internalType": "contract FeeBaseHelper",
          "name": "FeeProvider",
          "type": "address"
        },
        {
          "internalType": "uint256",
          "name": "UserSignUps",
          "type": "uint256"
        },
        {
          "internalType": "uint256",
          "name": "TotalKeys",
          "type": "uint256"
        }
      ],
      "stateMutability": "view",
      "type": "function"
    },
    {
      "inputs": [],
      "name": "TotalPools",
      "outputs": [
        {
          "internalType": "uint256",
          "name": "",
          "type": "uint256"
        }
      ],
      "stateMutability": "view",
      "type": "function"
    },
    {
      "inputs": [],
      "name": "paused",
      "outputs": [
        {
          "internalType": "bool",
          "name": "",
          "type": "bool"
        }
      ],
      "stateMutability": "view",
      "type": "function"
    },
    {
      "inputs": [
        {
          "internalType": "uint256",
          "name": "_poolId",
          "type": "uint256"
        }
      ],
      "name": "GetKeys",
      "outputs": [
        {
          "internalType": "string[]",
          "name": "",
          "type": "string[]"
        }
      ],
      "stateMutability": "view",
      "type": "function"
    },
    {
      "inputs": [
        {
          "internalType": "uint256",
          "name": "_poolId",
          "type": "uint256"
        },
        {
          "internalType": "uint256",
          "name": "_signUpId",
          "type": "uint256"
        }
      ],
      "name": "GetValues",
      "outputs": [
        {
          "internalType": "string[]",
          "name": "",
          "type": "string[]"
        }
      ],
      "stateMutability": "view",
      "type": "function"
    }
  ],
  "bytecode": "0x608060405234801561001057600080fd5b506000600260006101000a81548160ff021916908315150217905550610b738061003b6000396000f3fe608060405234801561001057600080fd5b50600436106100675760003560e01c80635c975abb116100505780635c975abb146100be5780637b510354146100dc5780638d0999d11461010c57610067565b8063273b3b291461006c578063424b9311146100a0575b600080fd5b610086600480360381019061008191906108da565b61013c565b6040516100979594939291906108f6565b60405180910390f35b6100a86101bf565b6040516100b5919061093f565b60405180910390f35b6100c66101c5565b6040516100d39190610950565b60405180910390f35b6100f660048036038101906100f191906108da565b6101dc565b6040516101039190610963565b60405180910390f35b61012660048036038101906101219190610a45565b61049c565b6040516101339190610963565b60405180910390f35b60006020528060005260406000206000915090508060000160009054906101000a900473ffffffffffffffffffffffffffffffffffffffff16908060020160009054906101000a900460ff16908060020160019054906101000a900473ffffffffffffffffffffffffffffffffffffffff16908060030154908060040154905085565b60015481565b6000600260009054906101000a900460ff16905090565b60608161020b7f611b3635146a2046a9f124f2c5b417c37beea3517b600d637a3d4d2f5f07102560001b6108d4565b6102377f518ab2111ab5580214bc1e2d88941203cf839b22e276ca24b02e653b842981e260001b6108d4565b6102637fcc7512cde8e870116f6ea4a30ac03e8342b2df8ec51037648bf7952ddcedb1dd60001b6108d4565b61028f7f442639ff98000aab290673149e0abf15c16854310a9fd51758d9c9627a6fd36660001b6108d4565b60015481106102d3576040517f08c379a00000000000000000000000000000000000000000000000000000000081526004016102ca90610a6a565b60405180910390fd5b6102ff7f2eb7ab22c509ca42c1a11cebe931bb43846816ca6cc5e0f6825cf5cff97c752460001b6108d4565b61032b7f1911058c05ce9212f607c9258533e10bb3dc888bcc9c4a48ffe6506bbc6d054a60001b6108d4565b6103577fb30c3a850bee7919fb9edbb9482690f3b50b84596102e3229a27541c46b923c760001b6108d7565b6103837f9a6f5d43a99aaf198b27949604b37cdac11d64a37a6d477cf7c1c506738df87e60001b6108d7565b6103af7f4626901c6449ab742e7275f1cfd4964967c6ada510b940452df82eb7c6702d2460001b6108d7565b600080848152602001908152602001600020600101805480602002602001604051908101604052809291908181526020016000905b8282101561049057838290600052602060002001805461040390610aa8565b80601f016020809104026020016040519081016040528092919081815260200182805461042f90610aa8565b801561047c5780601f106104515761010080835404028352916020019161047c565b820191906000526020600020905b81548152906001019060200180831161045f57829003601f168201915b5050505050815260200190600101906103e4565b50505050915050919050565b6060826104cb7f611b3635146a2046a9f124f2c5b417c37beea3517b600d637a3d4d2f5f07102560001b6108d4565b6104f77f518ab2111ab5580214bc1e2d88941203cf839b22e276ca24b02e653b842981e260001b6108d4565b6105237fcc7512cde8e870116f6ea4a30ac03e8342b2df8ec51037648bf7952ddcedb1dd60001b6108d4565b61054f7f442639ff98000aab290673149e0abf15c16854310a9fd51758d9c9627a6fd36660001b6108d4565b6001548110610593576040517f08c379a000000000000000000000000000000000000000000000000000000000815260040161058a90610a6a565b60405180910390fd5b6105bf7f2eb7ab22c509ca42c1a11cebe931bb43846816ca6cc5e0f6825cf5cff97c752460001b6108d4565b6105eb7f1911058c05ce9212f607c9258533e10bb3dc888bcc9c4a48ffe6506bbc6d054a60001b6108d4565b83836106197feff6237beedd337823f86fbc5a6ee4f22ebe6f58b0a5bcaa9ec0a2f917ee101f60001b6108d4565b6106457f843a13cf3fd57fd14273b72da06039bb6b9d9b82b06f45d8018aabe6f6da5acb60001b6108d4565b6106717f281d8fdab833cc3501d3ef42843fcf2b1c28027233681fc76ee9663790d5617860001b6108d4565b61069d7f5cb8831e9d696354595292a092b6abf164ac95f56c66321e43e7676490476c0460001b6108d4565b6000808381526020019081526020016000206003015481106106f4576040517f08c379a00000000000000000000000000000000000000000000000000000000081526004016106eb90610aff565b60405180910390fd5b6107207f2778d8b47b0456cfc5aca1d9c436b2c88f6f01650348f9dd1991a51ed130db4a60001b6108d4565b61074c7f98f1f675b4229524f93ea8fa0d259c410b4abf27f5bc4a1f052788105d8bedb060001b6108d4565b6107787f6cb8c9f5dc382d33e6fa20b72f52c9480c84b6e2202acbd9fd694e759b4bf2d460001b6108d7565b6107a47f386e6e0095835b6f4b7ba909664bf7b628cb79cbe89a2cf31fc3a190d9e6388360001b6108d7565b6107d07f80b2e3e939214874a7b3c346459505baef7ef89a483fe899e301990b1921810660001b6108d7565b6000808781526020019081526020016000206005016000868152602001908152602001600020600301805480602002602001604051908101604052809291908181526020016000905b828210156108c557838290600052602060002001805461083890610aa8565b80601f016020809104026020016040519081016040528092919081815260200182805461086490610aa8565b80156108b15780601f10610886576101008083540402835291602001916108b1565b820191906000526020600020905b81548152906001019060200180831161089457829003601f168201915b505050505081526020019060010190610819565b50505050935050505092915050565b50565b50565b6000602082840312156108ec57600080fd5b8135905092915050565b600060a08201905073ffffffffffffffffffffffffffffffffffffffff808816835286151560208401528086166040840152508360608301528260808301529695505050505050565b600060208201905082825292915050565b6000602082019050821515825292915050565b6000602080830181845280855180835260408601915060408160051b87010192508387016000805b83811015610a35577fffffffffffffffffffffffffffffffffffffffffffffffffffffffffffffffc089870301855282518051808852835b818110156109e1578981840101518a828b01015289810190506109c3565b818111156109f157848a838b0101525b50887fffffffffffffffffffffffffffffffffffffffffffffffffffffffffffffffe0601f830116890101975050508683019250868501945060018101905061098b565b5050505050809250505092915050565b60008060408385031215610a5857600080fd5b82359150602083013590509250929050565b60208152601260208201527f496e636f727265637420706f6f6c2069642e000000000000000000000000000060408201526000606082019050919050565b60008160011c90506001821680610ac057607f821691505b602082108103610af9577f4e487b7100000000000000000000000000000000000000000000000000000000600052602260045260246000fd5b50919050565b60208152601460208201527f496e636f7272656374205369676e55702069642e0000000000000000000000006040820152600060608201905091905056fea2646970667358221220a974f120cb73e52bae5ff181f45b877f84dd8fee5e0da27c10158f49df5cc4f364736f6c634300080f0033",
  "immutableReferences": {},
  "source": "// SPDX-License-Identifier: MIT\r\npragma solidity ^0.8.0;\nfunction c_0x588a1d9e(bytes32 c__0x588a1d9e) pure {}\n\r\n\r\nimport \"@openzeppelin/contracts/security/Pausable.sol\";\r\nimport \"./RegistrationModifiers.sol\";\r\n\r\n/// @title allows to get pool's keys or SignUp's values\r\ncontract RegistrationPublic is RegistrationModifiers, Pausable {\nfunction c_0x34973d53(bytes32 c__0x34973d53) internal pure {}\n\r\n    function GetKeys(uint256 _poolId)\r\n        external\r\n        view\r\n        isCorrectPoolId(_poolId)\r\n        returns (string[] memory)\r\n    {c_0x34973d53(0xb30c3a850bee7919fb9edbb9482690f3b50b84596102e3229a27541c46b923c7); /* function */ \n\r\nc_0x34973d53(0x9a6f5d43a99aaf198b27949604b37cdac11d64a37a6d477cf7c1c506738df87e); /* line */ \n        c_0x34973d53(0x4626901c6449ab742e7275f1cfd4964967c6ada510b940452df82eb7c6702d24); /* statement */ \nreturn RegistrationPools[_poolId].Keys;\r\n    }\r\n\r\n    function GetValues(uint256 _poolId, uint256 _signUpId)\r\n        external\r\n        view\r\n        isCorrectPoolId(_poolId)\r\n        isCorrectSignUpId(_poolId, _signUpId)\r\n        returns (string[] memory)\r\n    {c_0x34973d53(0x6cb8c9f5dc382d33e6fa20b72f52c9480c84b6e2202acbd9fd694e759b4bf2d4); /* function */ \n\r\nc_0x34973d53(0x386e6e0095835b6f4b7ba909664bf7b628cb79cbe89a2cf31fc3a190d9e63883); /* line */ \n        c_0x34973d53(0x80b2e3e939214874a7b3c346459505baef7ef89a483fe899e301990b19218106); /* statement */ \nreturn RegistrationPools[_poolId].SignUpPools[_signUpId].Values;\r\n    }\r\n}\r\n",
  "sourcePath": "C:\\Poolz\\RegistrationContract\\.coverage_contracts\\RegistrationPublic.sol",
  "compiler": {
    "name": "solc",
    "version": "0.8.15+commit.e14f2714.Emscripten.clang"
  },
  "schemaVersion": "3.4.8",
  "updatedAt": "2022-07-13T10:38:20.974Z",
  "devdoc": {
    "kind": "dev",
    "methods": {
      "paused()": {
        "details": "Returns true if the contract is paused, and false otherwise."
      }
    },
    "title": "allows to get pool's keys or SignUp's values",
    "version": 1
  },
  "userdoc": {
    "kind": "user",
    "methods": {},
    "version": 1
  }
}