{
  "contractName": "RegistrationPO",
  "abi": [
    {
      "anonymous": false,
      "inputs": [
        {
          "indexed": false,
          "internalType": "uint256",
          "name": "NewFeeAmount",
          "type": "uint256"
        },
        {
          "indexed": false,
          "internalType": "uint256",
          "name": "OldFeeAmount",
          "type": "uint256"
        }
      ],
      "name": "NewFeeAmount",
      "type": "event"
    },
    {
      "anonymous": false,
      "inputs": [
        {
          "indexed": false,
          "internalType": "address",
          "name": "NewFeeToken",
          "type": "address"
        },
        {
          "indexed": false,
          "internalType": "address",
          "name": "OldFeeToken",
          "type": "address"
        }
      ],
      "name": "NewFeeToken",
      "type": "event"
    },
    {
      "anonymous": false,
      "inputs": [
        {
          "indexed": false,
          "internalType": "uint256",
          "name": "PoolId",
          "type": "uint256"
        },
        {
          "indexed": false,
          "internalType": "uint256",
          "name": "SignUpId",
          "type": "uint256"
        },
        {
          "indexed": false,
          "internalType": "string[]",
          "name": "Values",
          "type": "string[]"
        }
      ],
      "name": "NewRegistration",
      "type": "event"
    },
    {
      "anonymous": false,
      "inputs": [
        {
          "indexed": false,
          "internalType": "uint256",
          "name": "PoolId",
          "type": "uint256"
        },
        {
          "indexed": false,
          "internalType": "string[]",
          "name": "Keys",
          "type": "string[]"
        },
        {
          "indexed": false,
          "internalType": "address",
          "name": "Owner",
          "type": "address"
        },
        {
          "indexed": false,
          "internalType": "address",
          "name": "TokenFee",
          "type": "address"
        },
        {
          "indexed": false,
          "internalType": "uint256",
          "name": "Fee",
          "type": "uint256"
        }
      ],
      "name": "NewRegistrationPoolCreated",
      "type": "event"
    },
    {
      "anonymous": false,
      "inputs": [
        {
          "indexed": true,
          "internalType": "address",
          "name": "previousOwner",
          "type": "address"
        },
        {
          "indexed": true,
          "internalType": "address",
          "name": "newOwner",
          "type": "address"
        }
      ],
      "name": "OwnershipTransferred",
      "type": "event"
    },
    {
      "anonymous": false,
      "inputs": [
        {
          "indexed": false,
          "internalType": "address",
          "name": "account",
          "type": "address"
        }
      ],
      "name": "Paused",
      "type": "event"
    },
    {
      "anonymous": false,
      "inputs": [
        {
          "indexed": false,
          "internalType": "uint256",
          "name": "PoolId",
          "type": "uint256"
        }
      ],
      "name": "RegistrationPoolActivated",
      "type": "event"
    },
    {
      "anonymous": false,
      "inputs": [
        {
          "indexed": false,
          "internalType": "uint256",
          "name": "PoolId",
          "type": "uint256"
        }
      ],
      "name": "RegistrationPoolDeactivated",
      "type": "event"
    },
    {
      "anonymous": false,
      "inputs": [
        {
          "indexed": false,
          "internalType": "string[]",
          "name": "NewValues",
          "type": "string[]"
        },
        {
          "indexed": false,
          "internalType": "string[]",
          "name": "OldValues",
          "type": "string[]"
        }
      ],
      "name": "SignUpValuesChanged",
      "type": "event"
    },
    {
      "anonymous": false,
      "inputs": [
        {
          "indexed": false,
          "internalType": "uint256",
          "name": "Amount",
          "type": "uint256"
        },
        {
          "indexed": false,
          "internalType": "address",
          "name": "From",
          "type": "address"
        },
        {
          "indexed": false,
          "internalType": "address",
          "name": "Token",
          "type": "address"
        }
      ],
      "name": "TransferIn",
      "type": "event"
    },
    {
      "anonymous": false,
      "inputs": [
        {
          "indexed": false,
          "internalType": "uint256",
          "name": "Amount",
          "type": "uint256"
        },
        {
          "indexed": false,
          "internalType": "address",
          "name": "From",
          "type": "address"
        }
      ],
      "name": "TransferInETH",
      "type": "event"
    },
    {
      "anonymous": false,
      "inputs": [
        {
          "indexed": false,
          "internalType": "uint256",
          "name": "Amount",
          "type": "uint256"
        },
        {
          "indexed": false,
          "internalType": "address",
          "name": "To",
          "type": "address"
        },
        {
          "indexed": false,
          "internalType": "address",
          "name": "Token",
          "type": "address"
        }
      ],
      "name": "TransferOut",
      "type": "event"
    },
    {
      "anonymous": false,
      "inputs": [
        {
          "indexed": false,
          "internalType": "address",
          "name": "account",
          "type": "address"
        }
      ],
      "name": "Unpaused",
      "type": "event"
    },
    {
      "inputs": [],
      "name": "Fee",
      "outputs": [
        {
          "internalType": "uint256",
          "name": "",
          "type": "uint256"
        }
      ],
      "stateMutability": "view",
      "type": "function"
    },
    {
      "inputs": [],
      "name": "FeeToken",
      "outputs": [
        {
          "internalType": "address",
          "name": "",
          "type": "address"
        }
      ],
      "stateMutability": "view",
      "type": "function"
    },
    {
      "inputs": [
        {
          "internalType": "uint256",
          "name": "_poolId",
          "type": "uint256"
        }
      ],
      "name": "GetKeys",
      "outputs": [
        {
          "internalType": "string[]",
          "name": "",
          "type": "string[]"
        }
      ],
      "stateMutability": "view",
      "type": "function"
    },
    {
      "inputs": [
        {
          "internalType": "uint256",
          "name": "_poolId",
          "type": "uint256"
        },
        {
          "internalType": "uint256",
          "name": "_signUpId",
          "type": "uint256"
        }
      ],
      "name": "GetValues",
      "outputs": [
        {
          "internalType": "string[]",
          "name": "",
          "type": "string[]"
        }
      ],
      "stateMutability": "view",
      "type": "function"
    },
    {
      "inputs": [],
      "name": "GovernerContract",
      "outputs": [
        {
          "internalType": "address",
          "name": "",
          "type": "address"
        }
      ],
      "stateMutability": "view",
      "type": "function"
    },
    {
      "inputs": [],
      "name": "Pause",
      "outputs": [],
      "stateMutability": "nonpayable",
      "type": "function"
    },
    {
      "inputs": [
        {
          "internalType": "uint256",
          "name": "_fee",
          "type": "uint256"
        }
      ],
      "name": "PayFee",
      "outputs": [],
      "stateMutability": "payable",
      "type": "function"
    },
    {
      "inputs": [
        {
          "internalType": "uint256",
          "name": "",
          "type": "uint256"
        }
      ],
      "name": "RegistrationPools",
      "outputs": [
        {
          "internalType": "address",
          "name": "Owner",
          "type": "address"
        },
        {
          "internalType": "bool",
          "name": "IsActive",
          "type": "bool"
        },
        {
          "internalType": "contract FeeBaseHelper",
          "name": "FeeProvider",
          "type": "address"
        },
        {
          "internalType": "uint256",
          "name": "UserSignUps",
          "type": "uint256"
        },
        {
          "internalType": "uint256",
          "name": "TotalKeys",
          "type": "uint256"
        }
      ],
      "stateMutability": "view",
      "type": "function"
    },
    {
      "inputs": [],
      "name": "Reserve",
      "outputs": [
        {
          "internalType": "uint256",
          "name": "",
          "type": "uint256"
        }
      ],
      "stateMutability": "view",
      "type": "function"
    },
    {
      "inputs": [
        {
          "internalType": "uint256",
          "name": "_amount",
          "type": "uint256"
        }
      ],
      "name": "SetFeeAmount",
      "outputs": [],
      "stateMutability": "nonpayable",
      "type": "function"
    },
    {
      "inputs": [
        {
          "internalType": "address",
          "name": "_token",
          "type": "address"
        }
      ],
      "name": "SetFeeToken",
      "outputs": [],
      "stateMutability": "nonpayable",
      "type": "function"
    },
    {
      "inputs": [],
      "name": "TotalPools",
      "outputs": [
        {
          "internalType": "uint256",
          "name": "",
          "type": "uint256"
        }
      ],
      "stateMutability": "view",
      "type": "function"
    },
    {
      "inputs": [],
      "name": "Unpause",
      "outputs": [],
      "stateMutability": "nonpayable",
      "type": "function"
    },
    {
      "inputs": [
        {
          "internalType": "address payable",
          "name": "_to",
          "type": "address"
        }
      ],
      "name": "WithdrawFee",
      "outputs": [],
      "stateMutability": "nonpayable",
      "type": "function"
    },
    {
      "inputs": [],
      "name": "owner",
      "outputs": [
        {
          "internalType": "address",
          "name": "",
          "type": "address"
        }
      ],
      "stateMutability": "view",
      "type": "function"
    },
    {
      "inputs": [],
      "name": "paused",
      "outputs": [
        {
          "internalType": "bool",
          "name": "",
          "type": "bool"
        }
      ],
      "stateMutability": "view",
      "type": "function"
    },
    {
      "inputs": [],
      "name": "renounceOwnership",
      "outputs": [],
      "stateMutability": "nonpayable",
      "type": "function"
    },
    {
      "inputs": [
        {
          "internalType": "address",
          "name": "_address",
          "type": "address"
        }
      ],
      "name": "setGovernerContract",
      "outputs": [],
      "stateMutability": "nonpayable",
      "type": "function"
    },
    {
      "inputs": [
        {
          "internalType": "address",
          "name": "newOwner",
          "type": "address"
        }
      ],
      "name": "transferOwnership",
      "outputs": [],
      "stateMutability": "nonpayable",
      "type": "function"
    },
    {
      "inputs": [
        {
          "internalType": "address",
          "name": "_token",
          "type": "address"
        },
        {
          "internalType": "string[]",
          "name": "_keys",
          "type": "string[]"
        },
        {
          "internalType": "uint256",
          "name": "_fee",
          "type": "uint256"
        }
      ],
      "name": "Register",
      "outputs": [],
      "stateMutability": "payable",
      "type": "function"
    },
    {
      "inputs": [
        {
          "internalType": "uint256",
          "name": "_poolId",
          "type": "uint256"
        },
        {
          "internalType": "address",
          "name": "_token",
          "type": "address"
        },
        {
          "internalType": "uint256",
          "name": "_price",
          "type": "uint256"
        }
      ],
      "name": "SetRegisterFee",
      "outputs": [],
      "stateMutability": "nonpayable",
      "type": "function"
    },
    {
      "inputs": [
        {
          "internalType": "uint256",
          "name": "_poolId",
          "type": "uint256"
        }
      ],
      "name": "WithdrawPoolFee",
      "outputs": [],
      "stateMutability": "nonpayable",
      "type": "function"
    },
    {
      "inputs": [
        {
          "internalType": "uint256",
          "name": "_poolId",
          "type": "uint256"
        }
      ],
      "name": "ActivatePool",
      "outputs": [],
      "stateMutability": "nonpayable",
      "type": "function"
    },
    {
      "inputs": [
        {
          "internalType": "uint256",
          "name": "_poolId",
          "type": "uint256"
        }
      ],
      "name": "DeactivatePool",
      "outputs": [],
      "stateMutability": "nonpayable",
      "type": "function"
    }
  ],
  "bytecode": "0x60806040523480156200001157600080fd5b506000600260006101000a81548160ff0219169083151502179055506200004d620000416200009560201b60201c565b6200009d60201b60201c565b6000600360006101000a81548173ffffffffffffffffffffffffffffffffffffffff021916908373ffffffffffffffffffffffffffffffffffffffff16021790555062000163565b600033905090565b6000600260019054906101000a900473ffffffffffffffffffffffffffffffffffffffff16905081600260016101000a81548173ffffffffffffffffffffffffffffffffffffffff021916908373ffffffffffffffffffffffffffffffffffffffff1602179055508173ffffffffffffffffffffffffffffffffffffffff168173ffffffffffffffffffffffffffffffffffffffff167f8be0079c531659141344cd1fd0a4f28419497f9722a3daafe3b4186f6b6457e060405160405180910390a35050565b61689b80620001736000396000f3fe608060405260043610620001b25760003560e01c80637b26fddf11620000eb578063a88c76ae116200008b578063d854f7021162000061578063d854f7021462000587578063da0ff68c14620005b5578063f2fde38b14620005d557620001b2565b8063a88c76ae14620004f9578063bef7a2f01462000527578063cda95d80146200055757620001b2565b80638585117b11620000c15780638585117b14620004575780638d0999d114620004855780638da5cb5b14620004c957620001b2565b80637b26fddf14620003b75780637b51035414620003e55780637cca7bfb146200042957620001b2565b80635c975abb1162000157578063714d6077116200012d578063714d60771462000363578063715018a614620003835780637805862f146200039d57620001b2565b80635c975abb14620002eb57806366818967146200031b5780636985a022146200034957620001b2565b80633aa0d15d116200018d5780633aa0d15d146200025d578063424b9311146200028b578063481531e914620002bb57620001b2565b80630842bcbb14620001b75780630cd8e96514620001e5578063273b3b291462000215575b600080fd5b348015620001c457600080fd5b50620001e36004803603810190620001dd9190620044d9565b62000603565b005b348015620001f257600080fd5b50620001fd62000822565b6040516200020c919062004503565b60405180910390f35b3480156200022257600080fd5b506200024160048036038101906200023b91906200452a565b62000848565b6040516200025495949392919062004547565b60405180910390f35b3480156200026a57600080fd5b5062000289600480360381019062000283919062004590565b620008cb565b005b3480156200029857600080fd5b50620002a362000aca565b604051620002b29190620045ba565b60405180910390f35b348015620002c857600080fd5b50620002d362000ad0565b604051620002e2919062004503565b60405180910390f35b348015620002f857600080fd5b506200030362000af6565b604051620003129190620045cb565b60405180910390f35b3480156200032857600080fd5b50620003476004803603810190620003419190620044d9565b62000b0d565b005b3480156200035657600080fd5b506200036162000c24565b005b6200038160048036038101906200037b919062004666565b62000d8d565b005b3480156200039057600080fd5b506200039b620018f8565b005b348015620003aa57600080fd5b50620003b562001910565b005b348015620003c457600080fd5b50620003e36004803603810190620003dd9190620047db565b62001a79565b005b348015620003f257600080fd5b506200041160048036038101906200040b91906200452a565b62002304565b604051620004209190620048d3565b60405180910390f35b3480156200043657600080fd5b506200045560048036038101906200044f91906200452a565b620025e3565b005b3480156200046457600080fd5b506200048360048036038101906200047d91906200452a565b62002bda565b005b3480156200049257600080fd5b50620004b16004803603810190620004ab9190620048f0565b620031d1565b604051620004c09190620048d3565b60405180910390f35b348015620004d657600080fd5b50620004e162003637565b604051620004f0919062004503565b60405180910390f35b3480156200050657600080fd5b506200052560048036038101906200051f91906200452a565b62003661565b005b3480156200053457600080fd5b506200053f620039ef565b6040516200054e9190620045ba565b60405180910390f35b3480156200056457600080fd5b506200056f620039f5565b6040516200057e9190620045ba565b60405180910390f35b3480156200059457600080fd5b50620005b36004803603810190620005ad91906200452a565b620039fb565b005b620005d36004803603810190620005cd91906200452a565b62003b5c565b005b348015620005e257600080fd5b50620006016004803603810190620005fb9190620044d9565b62003c93565b005b6200060d62003637565b73ffffffffffffffffffffffffffffffffffffffff163373ffffffffffffffffffffffffffffffffffffffff161480620006945750600360009054906101000a900473ffffffffffffffffffffffffffffffffffffffff1673ffffffffffffffffffffffffffffffffffffffff163373ffffffffffffffffffffffffffffffffffffffff16145b620006d6576040517f08c379a0000000000000000000000000000000000000000000000000000000008152600401620006cd9062004916565b60405180910390fd5b8073ffffffffffffffffffffffffffffffffffffffff16600560009054906101000a900473ffffffffffffffffffffffffffffffffffffffff1673ffffffffffffffffffffffffffffffffffffffff160362000769576040517f08c379a0000000000000000000000000000000000000000000000000000000008152600401620007609062004954565b60405180910390fd5b6000600654111562000781576200078032620008cb565b5b7f2a649a96ed014013ba4748bc2952462a2adb0707fb5a2f30ff1f9041425f168f81600560009054906101000a900473ffffffffffffffffffffffffffffffffffffffff16604051620007d692919062004992565b60405180910390a180600560006101000a81548173ffffffffffffffffffffffffffffffffffffffff021916908373ffffffffffffffffffffffffffffffffffffffff16021790555050565b600360009054906101000a900473ffffffffffffffffffffffffffffffffffffffff1681565b60006020528060005260406000206000915090508060000160009054906101000a900473ffffffffffffffffffffffffffffffffffffffff16908060020160009054906101000a900460ff16908060020160019054906101000a900473ffffffffffffffffffffffffffffffffffffffff16908060030154908060040154905085565b620008d562003637565b73ffffffffffffffffffffffffffffffffffffffff163373ffffffffffffffffffffffffffffffffffffffff1614806200095c5750600360009054906101000a900473ffffffffffffffffffffffffffffffffffffffff1673ffffffffffffffffffffffffffffffffffffffff163373ffffffffffffffffffffffffffffffffffffffff16145b6200099e576040517f08c379a0000000000000000000000000000000000000000000000000000000008152600401620009959062004916565b60405180910390fd5b600060065411620009e6576040517f08c379a0000000000000000000000000000000000000000000000000000000008152600401620009dd90620049c4565b60405180910390fd5b600073ffffffffffffffffffffffffffffffffffffffff16600560009054906101000a900473ffffffffffffffffffffffffffffffffffffffff1673ffffffffffffffffffffffffffffffffffffffff160362000a8d578073ffffffffffffffffffffffffffffffffffffffff166108fc6006549081150290604051600060405180830381858888f1935050505015801562000a86573d6000803e3d6000fd5b5062000abf565b62000abe600560009054906101000a900473ffffffffffffffffffffffffffffffffffffffff168260065462003d1d565b5b600060068190555050565b60015481565b600560009054906101000a900473ffffffffffffffffffffffffffffffffffffffff1681565b6000600260009054906101000a900460ff16905090565b62000b1762003637565b73ffffffffffffffffffffffffffffffffffffffff163373ffffffffffffffffffffffffffffffffffffffff16148062000b9e5750600360009054906101000a900473ffffffffffffffffffffffffffffffffffffffff1673ffffffffffffffffffffffffffffffffffffffff163373ffffffffffffffffffffffffffffffffffffffff16145b62000be0576040517f08c379a000000000000000000000000000000000000000000000000000000000815260040162000bd79062004916565b60405180910390fd5b80600360006101000a81548173ffffffffffffffffffffffffffffffffffffffff021916908373ffffffffffffffffffffffffffffffffffffffff16021790555050565b62000c2e62003637565b73ffffffffffffffffffffffffffffffffffffffff163373ffffffffffffffffffffffffffffffffffffffff16148062000cb55750600360009054906101000a900473ffffffffffffffffffffffffffffffffffffffff1673ffffffffffffffffffffffffffffffffffffffff163373ffffffffffffffffffffffffffffffffffffffff16145b62000cf7576040517f08c379a000000000000000000000000000000000000000000000000000000000815260040162000cee9062004916565b60405180910390fd5b62000d257f01114fcfb8c6d97891a0203e37c2bf14c19fd04422bca509d9568fe76af907f260001b62003e51565b62000d537f66e97a007575e7d13f3fea337278a64d96137537b0a1eda0522556016fe5bb9560001b62003e51565b62000d817f380879c71b7665453b5723eee83aa5426d110652cef7b0b1d559c94fffaba80360001b62003e51565b62000d8b62003e54565b565b62000d9762003ebd565b8162000dc67f4cfee26a29f160885c40e615741edbecb77923e71bb57553d4b62797ea49a61060001b62003f0c565b62000df47f87434e53cf619f2d5369bf121fd6e0a87e3b2b5fdc7ab3c4413f7a9e5283ab9260001b62003f0c565b62000e227f91139801d7817483bb7f077ffd0a3518353ba8e3ca8f948a4518108e6b6e8b1a60001b62003f0c565b62000e507f36dec73c72eaca7100b3c68663885ee40640d9eda209a0bc2b51d7e711af96a960001b62003f0c565b600081511162000e97576040517f08c379a000000000000000000000000000000000000000000000000000000000815260040162000e8e9062004a02565b60405180910390fd5b62000ec57f12f7a294fcb05a9b741451e23378b91dc25506a8ff06f07b8b6c7387923b302960001b62003f0c565b62000ef37f4b1c0eafd7d3236f49e25fb95b1b8d39fbc5f37fc1ec96468747438413c2886960001b62003f0c565b62000f217ff5f8c734816458a310dc25b34b459dd725cff461031f4aa1152211635a931cbc60001b62003f0f565b62000f4f7fee893318f4737aef1855e2616407c71caa790ca07a4c94ec4ccc4240b3a5d39a60001b62003f0f565b62000f7d7fbd7864bcd562595475fd6b2ceb9b1c13293ce298206b98c7f4dd04d905477fbb60001b62003f0f565b62000f8a60045462003b5c565b62000fb87fe25a4ebb9a807216a7039385d9d7b9d399e81adc753c5dafe37e1cc746c2b68660001b62003f0f565b62000fe67f720768026bcc42fad81503dbf7433a3b83b09a9a676afdab50f4f4c483f0979460001b62003f0f565b6000806000600154815260200190815260200160002090506200102c7ffac370c519033fdc8e4df68fde127ac27c4203c561b144b7b31de71d5f291c8660001b62003f0f565b6200105a7f65bb17ab9d0d648c5f13a8bc4bb854f4a70a482593dc5abb6333e13e34d287fc60001b62003f0f565b338160000160006101000a81548173ffffffffffffffffffffffffffffffffffffffff021916908373ffffffffffffffffffffffffffffffffffffffff160217905550620010cb7fbb63f3ae34e9da516863fea20a5643ad863ce4414af74fc2186b91498762666f60001b62003f0f565b620010f97f118e07f2b8b1d1105cb7f733b2eb7edeb6759893ddd00897362acc00eb94f43660001b62003f0f565b8381600101908051906020019062001113929190620043b8565b50620011427f5d3c1fdb40638287349869941f88100b21add94958653eeded6d99ca2251c29160001b62003f0f565b620011707fc3fd1243f78c8250d080d40bea76b266bc5f4551c81064911080af7741d3c63860001b62003f0f565b60018160020160006101000a81548160ff021916908315150217905550620011bb7fc969b2f87e2cb3696e3f529df4bf55ffa19c4c03da82a18f3dbb3b96d3445ce660001b62003f0f565b620011e97f0faf55d271ba486b5361cf429b7c9f3e75059e6820b58fc18f51d76b39886c1e60001b62003f0f565b604051620011f79062004418565b604051809103906000f08015801562001214573d6000803e3d6000fd5b508160020160016101000a81548173ffffffffffffffffffffffffffffffffffffffff021916908373ffffffffffffffffffffffffffffffffffffffff160217905550620012857fe8760b4d8c272d525980438aa43515dce4af1750e687aec616bc45f043369ca060001b62003f0f565b620012b37f75bc41b8960a796c3db4ff2f9cdea8284f6f2b9607876344afe91f8de53dfea460001b62003f0f565b60008160030181905550620012eb7f0beb0264052be45dc60fefb9276741579e79b188360945b19b3bed340277fa3060001b62003f0f565b620013197fc35f7dd167f45b0ccc03398f6451dc04795c74da497584748e08287c40a5cddc60001b62003f0f565b83518160040181905550620013517fa38261f6e08841220634397d3abf15cdb768b8d14f01ba38088d530ee44912f160001b62003f0f565b6200137e7e76646c9eee2e9d74bf93649c861a778e76a1c15d93b97aba2ff1c46a67c3a060001b62003f0f565b600073ffffffffffffffffffffffffffffffffffffffff168573ffffffffffffffffffffffffffffffffffffffff1614620014d657620013e17fbf59b2da6c333e138e6e9fe2fb5f85de7ded3299cb1158096b0f6fd934707dd760001b62003f0f565b6200140f7f400abf0d39dc63fd572c6bfc176f627019ace21aa14a7a682cba6b859ed25ef360001b62003f0f565b6200143d7fb9296212a61ee199d7794d70bb0a9427f74eb11c8ff4f97ee03d5b2e5208d30460001b62003f0f565b8060020160019054906101000a900473ffffffffffffffffffffffffffffffffffffffff1673ffffffffffffffffffffffffffffffffffffffff16630842bcbb866040518263ffffffff1660e01b81526004016200149c919062004503565b600060405180830381600087803b158015620014b757600080fd5b505af1158015620014cc573d6000803e3d6000fd5b5050505062001505565b620015047f49aefa507218b8a3ff10a6acb506d97e4afd1792fba5df70047615f5c26993c260001b62003f0f565b5b620015337f38ab531c4df1127e9489a96a91260eebf7687942c9ad7a865740b81fc4b05ff460001b62003f0f565b620015617faf785bb1dbac4818490e7e3a85a70e946a3db420f5d8de71512c437a7d19ebf760001b62003f0f565b600083146200168d57620015987f6879be9b69a7d1cfc01e0e3b30316468e4524d65fe935a92d67b55a7134cf7e260001b62003f0f565b620015c67fc4d78f304e689d74039a77323d111b6ecad1a9920a95b4a31242e4e254730e6660001b62003f0f565b620015f47fefb798b1ed368aeba92072fd0caaae8b243cb722b6d5edc20c11a3778ab85b0560001b62003f0f565b8060020160019054906101000a900473ffffffffffffffffffffffffffffffffffffffff1673ffffffffffffffffffffffffffffffffffffffff1663d854f702846040518263ffffffff1660e01b8152600401620016539190620045ba565b600060405180830381600087803b1580156200166e57600080fd5b505af115801562001683573d6000803e3d6000fd5b50505050620016bc565b620016bb7f56e98075dde79d13d0e91a585a11de6b3443746d1b7800727ea864e4929c001760001b62003f0f565b5b620016ea7fdb94fe93a1ee1ef54f2da382442490ec94a4aade09464ef2d60fb9d9f89e2c5b60001b62003f0f565b620017187fffba3b410ddf8ecfad211a2ccf0dcb5a025064fefea9416e02204ef282def8cd60001b62003f0f565b7f782f7ebdaa9e0aa1d0301632ee71c49f910993a2f17e76934317f1bf924fc12f600154858360000160009054906101000a900473ffffffffffffffffffffffffffffffffffffffff168460020160019054906101000a900473ffffffffffffffffffffffffffffffffffffffff1673ffffffffffffffffffffffffffffffffffffffff1663481531e96040518163ffffffff1660e01b8152600401602060405180830381865afa158015620017d2573d6000803e3d6000fd5b505050506040513d601f19601f82011682018060405250810190620017f8919062004a40565b8560020160019054906101000a900473ffffffffffffffffffffffffffffffffffffffff1673ffffffffffffffffffffffffffffffffffffffff1663bef7a2f06040518163ffffffff1660e01b8152600401602060405180830381865afa15801562001868573d6000803e3d6000fd5b505050506040513d601f19601f820116820180604052508101906200188e919062004a6a565b604051620018a195949392919062004a87565b60405180910390a1620018d77ff1bd2081a960a1f53550bda7336c41223c37be182cfa5e0f1139a20d270c724760001b62003f0f565b60016000815480929190620018ec9062004b09565b91905055505050505050565b6200190262003f12565b6200190e600062003f97565b565b6200191a62003637565b73ffffffffffffffffffffffffffffffffffffffff163373ffffffffffffffffffffffffffffffffffffffff161480620019a15750600360009054906101000a900473ffffffffffffffffffffffffffffffffffffffff1673ffffffffffffffffffffffffffffffffffffffff163373ffffffffffffffffffffffffffffffffffffffff16145b620019e3576040517f08c379a0000000000000000000000000000000000000000000000000000000008152600401620019da9062004916565b60405180910390fd5b62001a117f46cc58194fb48441ea315d8bcfb2357bc067f8ca902523b8d5ce96221485961e60001b62003e51565b62001a3f7f0e87a9adeb45e63875085796f451ca241184d8a055f9812c536c04880c3955d960001b62003e51565b62001a6d7fbe0b3decab621fe336c01f6851c5651b8efb5fa5a4cc613c4013b1fac0ddb22860001b62003e51565b62001a776200405d565b565b62001a8362003ebd565b8262001ab27f4e0759467fd661ae9a6a10f37dcfef8fe54f485cd0007653fa25a5263d8d5ef060001b62003f0c565b62001ae07fec7b5d8b4bc6144e663e4f1e5c38779b7cb2ed9eb075e196dc2bc50defe8d7ec60001b62003f0c565b62001b0e7fcbabf71c04402477eff030d63534e5944202a79fd8752ca46834fb81f75b179f60001b62003f0c565b62001b3c7f1a17aa52c6b059f03334572c62e20f855b0483a4ab6bdb9dd1a8cabfe85fe62060001b62003f0c565b3373ffffffffffffffffffffffffffffffffffffffff1660008083815260200190815260200160002060000160009054906101000a900473ffffffffffffffffffffffffffffffffffffffff1673ffffffffffffffffffffffffffffffffffffffff161462001be2576040517f08c379a000000000000000000000000000000000000000000000000000000000815260040162001bd99062004b49565b60405180910390fd5b62001c107fc55a674db616bc1d6a6fe73764c60df67eb3cef59eaff6a58559c1e6561b2e8d60001b62003f0c565b62001c3e7f8f2dfc84d8e31a22dde438b6829f9c39ea2aa8cd2fd8e1562bf5fb08dac1e43160001b62003f0c565b8362001c6d7f611b3635146a2046a9f124f2c5b417c37beea3517b600d637a3d4d2f5f07102560001b62003f0c565b62001c9b7f518ab2111ab5580214bc1e2d88941203cf839b22e276ca24b02e653b842981e260001b62003f0c565b62001cc97fcc7512cde8e870116f6ea4a30ac03e8342b2df8ec51037648bf7952ddcedb1dd60001b62003f0c565b62001cf77f442639ff98000aab290673149e0abf15c16854310a9fd51758d9c9627a6fd36660001b62003f0c565b600154811062001d3e576040517f08c379a000000000000000000000000000000000000000000000000000000000815260040162001d359062004b87565b60405180910390fd5b62001d6c7f2eb7ab22c509ca42c1a11cebe931bb43846816ca6cc5e0f6825cf5cff97c752460001b62003f0c565b62001d9a7f1911058c05ce9212f607c9258533e10bb3dc888bcc9c4a48ffe6506bbc6d054a60001b62003f0c565b62001dc87f037bd594d04964452a8a9e7efa10f933d7476d4ac26378d97360229573d291e260001b62003f0f565b62001df67f66e4d535c32e730ef9c5f1f503d53d9e11f7cd168367d2f6653fc73a50df62fa60001b62003f0f565b62001e247f5284ada3ce3338d7ca56cdfe5f0c21a9e11ec42cf518726919e187f949e32cec60001b62003f0f565b6000806000878152602001908152602001600020905062001e687fab2f928cf1e1b43b5b184aca6d9c30cc3f3a8c3a9705e2aa4863dd7aeca91eb660001b62003f0f565b62001e967f70901e40da6fd2eee1ad865f56be0f1240e1fef091f7f15563c75db04b3c608560001b62003f0f565b8473ffffffffffffffffffffffffffffffffffffffff168160020160019054906101000a900473ffffffffffffffffffffffffffffffffffffffff1673ffffffffffffffffffffffffffffffffffffffff1663481531e96040518163ffffffff1660e01b8152600401602060405180830381865afa15801562001f1d573d6000803e3d6000fd5b505050506040513d601f19601f8201168201806040525081019062001f43919062004a40565b73ffffffffffffffffffffffffffffffffffffffff1614620020825762001f8d7fce3d0a08b00a57ee19f5a086b575e82e9b49e22034ddafba30d963dc7da4699760001b62003f0f565b62001fbb7fddb1add4e1abdb335f448bd161d3619a60351842cb0dfd416effa68d87a6837760001b62003f0f565b62001fe97f23c4209e76c09d7afe2b87ec5dfd82cd98174029498390330096ef81457f7ca260001b62003f0f565b8060020160019054906101000a900473ffffffffffffffffffffffffffffffffffffffff1673ffffffffffffffffffffffffffffffffffffffff16630842bcbb866040518263ffffffff1660e01b815260040162002048919062004503565b600060405180830381600087803b1580156200206357600080fd5b505af115801562002078573d6000803e3d6000fd5b50505050620020b1565b620020b07f5980ce5b42bbe7c8d03b82a17bbb18882ce4c17e8107d7e1939b46d4f5cf5b1a60001b62003f0f565b5b620020df7f1e5eb298783b0e128b802c123d22b9f832e626d84389e68cdc4d0dab7a752a1460001b62003f0f565b6200210d7f216fd14682be463c69b82b4423ec8fd3614e1bb4214d3672e4eda7bd55b72c3760001b62003f0f565b838160020160019054906101000a900473ffffffffffffffffffffffffffffffffffffffff1673ffffffffffffffffffffffffffffffffffffffff1663bef7a2f06040518163ffffffff1660e01b8152600401602060405180830381865afa1580156200217e573d6000803e3d6000fd5b505050506040513d601f19601f82011682018060405250810190620021a4919062004a6a565b14620022cd57620021d87f1612593b739bd68b21f87a9a272e4a6c865bf872101292fdf3b6f2900feb638860001b62003f0f565b620022067f4c3902ba3e0299e7cf60d590f3c7186286bc6b0c2a4d4c86f7dc26756bdc651c60001b62003f0f565b620022347fec5da12e95d3aea67f91361d58fd6471f19d2fdf17bdc725038db3d3f6901c1460001b62003f0f565b8060020160019054906101000a900473ffffffffffffffffffffffffffffffffffffffff1673ffffffffffffffffffffffffffffffffffffffff1663d854f702856040518263ffffffff1660e01b8152600401620022939190620045ba565b600060405180830381600087803b158015620022ae57600080fd5b505af1158015620022c3573d6000803e3d6000fd5b50505050620022fc565b620022fb7f2d7c89542519b66b17892141ecf71e8cbd83f70e434e77a050120748c8229ca460001b62003f0f565b5b505050505050565b606081620023357f611b3635146a2046a9f124f2c5b417c37beea3517b600d637a3d4d2f5f07102560001b62003f0c565b620023637f518ab2111ab5580214bc1e2d88941203cf839b22e276ca24b02e653b842981e260001b62003f0c565b620023917fcc7512cde8e870116f6ea4a30ac03e8342b2df8ec51037648bf7952ddcedb1dd60001b62003f0c565b620023bf7f442639ff98000aab290673149e0abf15c16854310a9fd51758d9c9627a6fd36660001b62003f0c565b600154811062002406576040517f08c379a0000000000000000000000000000000000000000000000000000000008152600401620023fd9062004b87565b60405180910390fd5b620024347f2eb7ab22c509ca42c1a11cebe931bb43846816ca6cc5e0f6825cf5cff97c752460001b62003f0c565b620024627f1911058c05ce9212f607c9258533e10bb3dc888bcc9c4a48ffe6506bbc6d054a60001b62003f0c565b620024907fb30c3a850bee7919fb9edbb9482690f3b50b84596102e3229a27541c46b923c760001b620040c6565b620024be7f9a6f5d43a99aaf198b27949604b37cdac11d64a37a6d477cf7c1c506738df87e60001b620040c6565b620024ec7f4626901c6449ab742e7275f1cfd4964967c6ada510b940452df82eb7c6702d2460001b620040c6565b600080848152602001908152602001600020600101805480602002602001604051908101604052809291908181526020016000905b82821015620025d7578382906000526020600020018054620025439062004bc5565b80601f0160208091040260200160405190810160405280929190818152602001828054620025719062004bc5565b8015620025c25780601f106200259657610100808354040283529160200191620025c2565b820191906000526020600020905b815481529060010190602001808311620025a457829003601f168201915b50505050508152602001906001019062002521565b50505050915050919050565b620025ed62003ebd565b806200261c7f611b3635146a2046a9f124f2c5b417c37beea3517b600d637a3d4d2f5f07102560001b62003f0c565b6200264a7f518ab2111ab5580214bc1e2d88941203cf839b22e276ca24b02e653b842981e260001b62003f0c565b620026787fcc7512cde8e870116f6ea4a30ac03e8342b2df8ec51037648bf7952ddcedb1dd60001b62003f0c565b620026a67f442639ff98000aab290673149e0abf15c16854310a9fd51758d9c9627a6fd36660001b62003f0c565b6001548110620026ed576040517f08c379a0000000000000000000000000000000000000000000000000000000008152600401620026e49062004b87565b60405180910390fd5b6200271b7f2eb7ab22c509ca42c1a11cebe931bb43846816ca6cc5e0f6825cf5cff97c752460001b62003f0c565b620027497f1911058c05ce9212f607c9258533e10bb3dc888bcc9c4a48ffe6506bbc6d054a60001b62003f0c565b81620027787f4e0759467fd661ae9a6a10f37dcfef8fe54f485cd0007653fa25a5263d8d5ef060001b62003f0c565b620027a67fec7b5d8b4bc6144e663e4f1e5c38779b7cb2ed9eb075e196dc2bc50defe8d7ec60001b62003f0c565b620027d47fcbabf71c04402477eff030d63534e5944202a79fd8752ca46834fb81f75b179f60001b62003f0c565b620028027f1a17aa52c6b059f03334572c62e20f855b0483a4ab6bdb9dd1a8cabfe85fe62060001b62003f0c565b3373ffffffffffffffffffffffffffffffffffffffff1660008083815260200190815260200160002060000160009054906101000a900473ffffffffffffffffffffffffffffffffffffffff1673ffffffffffffffffffffffffffffffffffffffff1614620028a8576040517f08c379a00000000000000000000000000000000000000000000000000000000081526004016200289f9062004b49565b60405180910390fd5b620028d67fc55a674db616bc1d6a6fe73764c60df67eb3cef59eaff6a58559c1e6561b2e8d60001b62003f0c565b620029047f8f2dfc84d8e31a22dde438b6829f9c39ea2aa8cd2fd8e1562bf5fb08dac1e43160001b62003f0c565b826000620029357ffe18cfd870336e71e208450b2be96a874de37f3673fdcf2a84a3308112738f4360001b62003f0c565b620029637fd5ad7afe0721b0795eda03a11958652587babf34f386b4b5d59af0e56411fbee60001b62003f0c565b620029917f07d79caeb95ab90503f81ddc9dfb0c307d137e1040a6fff505139f391aa4c74360001b62003f0c565b620029bf7f1562be93b006500b4ab8dd5963b154bd710aa944636d1a23e585e6761eff48a860001b62003f0c565b80151560008084815260200190815260200160002060020160009054906101000a900460ff1615151462002a2a576040517f08c379a000000000000000000000000000000000000000000000000000000000815260040162002a219062004c1e565b60405180910390fd5b62002a587f08b7c340549d0cb5ccd5eb0ea77f4a4e8691d565a2ce1b9c103347e3e65dac5560001b62003f0c565b62002a867ffb1113cf871ebfee7476a284c84a268f46cddac632aafd8924423de89d11312f60001b62003f0c565b62002ab47fc6be12b2c871f82a61029334152c8957bdebaf63c053cabcc07c3b2b1ca1a7d760001b62003f0f565b62002ae27f3f4bf7e8672750adf86da09cec55dc5640883233f7bd0d5c43150131bf3b02b660001b62003f0f565b62002b107f02cf4cdfb4e9f700187ecd5d7ecda2f4e1ed8d64e05719afa35468f0b5451f9260001b62003f0f565b600160008087815260200190815260200160002060020160006101000a81548160ff02191690831515021790555062002b6c7fdd10f70380b17ff2d1e40955ea5c8ed26d3ec98f21ff467433ee480c742dfca460001b62003f0f565b62002b9a7fbf40e5d8cf3acc18277b6ea94679961cdd111f0d57020d74139be9e32aa0c0c560001b62003f0f565b7f42d6ed1114dfc5ab05c2959fa0a8b1c5a9b1ad8610e05ffe5c0b2f91a96346778560405162002bcb9190620045ba565b60405180910390a15050505050565b62002be462003ebd565b8062002c137f611b3635146a2046a9f124f2c5b417c37beea3517b600d637a3d4d2f5f07102560001b62003f0c565b62002c417f518ab2111ab5580214bc1e2d88941203cf839b22e276ca24b02e653b842981e260001b62003f0c565b62002c6f7fcc7512cde8e870116f6ea4a30ac03e8342b2df8ec51037648bf7952ddcedb1dd60001b62003f0c565b62002c9d7f442639ff98000aab290673149e0abf15c16854310a9fd51758d9c9627a6fd36660001b62003f0c565b600154811062002ce4576040517f08c379a000000000000000000000000000000000000000000000000000000000815260040162002cdb9062004b87565b60405180910390fd5b62002d127f2eb7ab22c509ca42c1a11cebe931bb43846816ca6cc5e0f6825cf5cff97c752460001b62003f0c565b62002d407f1911058c05ce9212f607c9258533e10bb3dc888bcc9c4a48ffe6506bbc6d054a60001b62003f0c565b8162002d6f7f4e0759467fd661ae9a6a10f37dcfef8fe54f485cd0007653fa25a5263d8d5ef060001b62003f0c565b62002d9d7fec7b5d8b4bc6144e663e4f1e5c38779b7cb2ed9eb075e196dc2bc50defe8d7ec60001b62003f0c565b62002dcb7fcbabf71c04402477eff030d63534e5944202a79fd8752ca46834fb81f75b179f60001b62003f0c565b62002df97f1a17aa52c6b059f03334572c62e20f855b0483a4ab6bdb9dd1a8cabfe85fe62060001b62003f0c565b3373ffffffffffffffffffffffffffffffffffffffff1660008083815260200190815260200160002060000160009054906101000a900473ffffffffffffffffffffffffffffffffffffffff1673ffffffffffffffffffffffffffffffffffffffff161462002e9f576040517f08c379a000000000000000000000000000000000000000000000000000000000815260040162002e969062004b49565b60405180910390fd5b62002ecd7fc55a674db616bc1d6a6fe73764c60df67eb3cef59eaff6a58559c1e6561b2e8d60001b62003f0c565b62002efb7f8f2dfc84d8e31a22dde438b6829f9c39ea2aa8cd2fd8e1562bf5fb08dac1e43160001b62003f0c565b82600162002f2c7ffe18cfd870336e71e208450b2be96a874de37f3673fdcf2a84a3308112738f4360001b62003f0c565b62002f5a7fd5ad7afe0721b0795eda03a11958652587babf34f386b4b5d59af0e56411fbee60001b62003f0c565b62002f887f07d79caeb95ab90503f81ddc9dfb0c307d137e1040a6fff505139f391aa4c74360001b62003f0c565b62002fb67f1562be93b006500b4ab8dd5963b154bd710aa944636d1a23e585e6761eff48a860001b62003f0c565b80151560008084815260200190815260200160002060020160009054906101000a900460ff1615151462003021576040517f08c379a0000000000000000000000000000000000000000000000000000000008152600401620030189062004c1e565b60405180910390fd5b6200304f7f08b7c340549d0cb5ccd5eb0ea77f4a4e8691d565a2ce1b9c103347e3e65dac5560001b62003f0c565b6200307d7ffb1113cf871ebfee7476a284c84a268f46cddac632aafd8924423de89d11312f60001b62003f0c565b620030ab7f417cdb24f8eb702924659f36f7222979ab730e6a311134709b9c6dc093d29d8c60001b62003f0f565b620030d97f3763f5082fa21bb65b7e66550485f793927a178ca523189682c1cf7b0bba50bf60001b62003f0f565b620031077f3b8055f4f98cfd6f4cf63d9d91c21519ff6343878e1b797f44421c0fa1843ca460001b62003f0f565b600080600087815260200190815260200160002060020160006101000a81548160ff021916908315150217905550620031637ffbaee06367eaf7db1d8f39f4e72101857fd0c4833615f37706f1a00fa3404d8560001b62003f0f565b620031917f48e4f2aa7ca40cfe4cc80d7eb1dd1a3f12b97e3ea91cf55332e133a03379b54060001b62003f0f565b7fb1df4c80c5e68c00df5906eafbf0f0e76a245ec0d94f39a3ac5a019bc745c46a85604051620031c29190620045ba565b60405180910390a15050505050565b606082620032027f611b3635146a2046a9f124f2c5b417c37beea3517b600d637a3d4d2f5f07102560001b62003f0c565b620032307f518ab2111ab5580214bc1e2d88941203cf839b22e276ca24b02e653b842981e260001b62003f0c565b6200325e7fcc7512cde8e870116f6ea4a30ac03e8342b2df8ec51037648bf7952ddcedb1dd60001b62003f0c565b6200328c7f442639ff98000aab290673149e0abf15c16854310a9fd51758d9c9627a6fd36660001b62003f0c565b6001548110620032d3576040517f08c379a0000000000000000000000000000000000000000000000000000000008152600401620032ca9062004b87565b60405180910390fd5b620033017f2eb7ab22c509ca42c1a11cebe931bb43846816ca6cc5e0f6825cf5cff97c752460001b62003f0c565b6200332f7f1911058c05ce9212f607c9258533e10bb3dc888bcc9c4a48ffe6506bbc6d054a60001b62003f0c565b83836200335f7feff6237beedd337823f86fbc5a6ee4f22ebe6f58b0a5bcaa9ec0a2f917ee101f60001b62003f0c565b6200338d7f843a13cf3fd57fd14273b72da06039bb6b9d9b82b06f45d8018aabe6f6da5acb60001b62003f0c565b620033bb7f281d8fdab833cc3501d3ef42843fcf2b1c28027233681fc76ee9663790d5617860001b62003f0c565b620033e97f5cb8831e9d696354595292a092b6abf164ac95f56c66321e43e7676490476c0460001b62003f0c565b60008083815260200190815260200160002060030154811062003443576040517f08c379a00000000000000000000000000000000000000000000000000000000081526004016200343a9062004c82565b60405180910390fd5b620034717f2778d8b47b0456cfc5aca1d9c436b2c88f6f01650348f9dd1991a51ed130db4a60001b62003f0c565b6200349f7f98f1f675b4229524f93ea8fa0d259c410b4abf27f5bc4a1f052788105d8bedb060001b62003f0c565b620034cd7f6cb8c9f5dc382d33e6fa20b72f52c9480c84b6e2202acbd9fd694e759b4bf2d460001b620040c6565b620034fb7f386e6e0095835b6f4b7ba909664bf7b628cb79cbe89a2cf31fc3a190d9e6388360001b620040c6565b620035297f80b2e3e939214874a7b3c346459505baef7ef89a483fe899e301990b1921810660001b620040c6565b6000808781526020019081526020016000206005016000868152602001908152602001600020600301805480602002602001604051908101604052809291908181526020016000905b8282101562003628578382906000526020600020018054620035949062004bc5565b80601f0160208091040260200160405190810160405280929190818152602001828054620035c29062004bc5565b8015620036135780601f10620035e75761010080835404028352916020019162003613565b820191906000526020600020905b815481529060010190602001808311620035f557829003601f168201915b50505050508152602001906001019062003572565b50505050935050505092915050565b6000600260019054906101000a900473ffffffffffffffffffffffffffffffffffffffff16905090565b6200366b62003ebd565b806200369a7f4e0759467fd661ae9a6a10f37dcfef8fe54f485cd0007653fa25a5263d8d5ef060001b62003f0c565b620036c87fec7b5d8b4bc6144e663e4f1e5c38779b7cb2ed9eb075e196dc2bc50defe8d7ec60001b62003f0c565b620036f67fcbabf71c04402477eff030d63534e5944202a79fd8752ca46834fb81f75b179f60001b62003f0c565b620037247f1a17aa52c6b059f03334572c62e20f855b0483a4ab6bdb9dd1a8cabfe85fe62060001b62003f0c565b3373ffffffffffffffffffffffffffffffffffffffff1660008083815260200190815260200160002060000160009054906101000a900473ffffffffffffffffffffffffffffffffffffffff1673ffffffffffffffffffffffffffffffffffffffff1614620037ca576040517f08c379a0000000000000000000000000000000000000000000000000000000008152600401620037c19062004b49565b60405180910390fd5b620037f87fc55a674db616bc1d6a6fe73764c60df67eb3cef59eaff6a58559c1e6561b2e8d60001b62003f0c565b620038267f8f2dfc84d8e31a22dde438b6829f9c39ea2aa8cd2fd8e1562bf5fb08dac1e43160001b62003f0c565b620038547fed37f7bad0e271d8a2e10da36f9867baa6e48404172bded8565f0c829d9bc46f60001b62003f0f565b620038827fb54f715af7fd1c1259e316c35505d6e762b8057b7b41f1486d5c0fd7f0c25cdb60001b62003f0f565b620038b07f45b5a3d00c6d4c7d81418ec38ea663ab11f2722c1bddbe5a406768c447eaaf4260001b62003f0f565b600080600084815260200190815260200160002060020160019054906101000a900473ffffffffffffffffffffffffffffffffffffffff169050620039187f3c6b8da41f943d59562950af969736f679d45bc01aa65d1c28e91b29d098fd0260001b62003f0f565b620039467f95430473c2612c8f4aaa6ee653bbe8581c3aeeb71ccd850b5cdefa6d7d94091060001b62003f0f565b8073ffffffffffffffffffffffffffffffffffffffff16633aa0d15d60008086815260200190815260200160002060000160009054906101000a900473ffffffffffffffffffffffffffffffffffffffff166040518263ffffffff1660e01b8152600401620039b6919062004cc0565b600060405180830381600087803b158015620039d157600080fd5b505af1158015620039e6573d6000803e3d6000fd5b50505050505050565b60045481565b60065481565b62003a0562003637565b73ffffffffffffffffffffffffffffffffffffffff163373ffffffffffffffffffffffffffffffffffffffff16148062003a8c5750600360009054906101000a900473ffffffffffffffffffffffffffffffffffffffff1673ffffffffffffffffffffffffffffffffffffffff163373ffffffffffffffffffffffffffffffffffffffff16145b62003ace576040517f08c379a000000000000000000000000000000000000000000000000000000000815260040162003ac59062004916565b60405180910390fd5b806004540362003b15576040517f08c379a000000000000000000000000000000000000000000000000000000000815260040162003b0c9062004ce7565b60405180910390fd5b7f9d7f8f903b5290796d6b981141519d69dacf3b8bc9d0a19fabd782e73e8861918160045460405162003b4a92919062004d25565b60405180910390a18060048190555050565b600081031562003c9057600073ffffffffffffffffffffffffffffffffffffffff16600560009054906101000a900473ffffffffffffffffffffffffffffffffffffffff1673ffffffffffffffffffffffffffffffffffffffff160362003c44578034101562003c03576040517f08c379a000000000000000000000000000000000000000000000000000000000815260040162003bfa9062004d3d565b60405180910390fd5b7f3a32cdd14cdfd431946dfa0b2aef5ace661340411aaadcaee6aef6738d302326343260405162003c3692919062004d7b565b60405180910390a162003c74565b62003c73600560009054906101000a900473ffffffffffffffffffffffffffffffffffffffff163283620040c9565b5b806006600082825462003c88919062004da9565b925050819055505b50565b62003c9d62003f12565b600073ffffffffffffffffffffffffffffffffffffffff168173ffffffffffffffffffffffffffffffffffffffff160362003d0f576040517f08c379a000000000000000000000000000000000000000000000000000000000815260040162003d069062004dcb565b60405180910390fd5b62003d1a8162003f97565b50565b600062003d2b8430620042d9565b90507fe4d818e6f992efbd60db553f3edce819a199baec79a784b95c89bc8ee86f258482848660405162003d629392919062004e2f565b60405180910390a18373ffffffffffffffffffffffffffffffffffffffff1663a9059cbb84846040518363ffffffff1660e01b815260040162003da792919062004e68565b6020604051808303816000875af115801562003dc7573d6000803e3d6000fd5b505050506040513d601f19601f8201168201806040525081019062003ded919062004e96565b50808262003dfc8630620042d9565b62003e08919062004da9565b1462003e4b576040517f08c379a000000000000000000000000000000000000000000000000000000000815260040162003e429062004ec4565b60405180910390fd5b50505050565b50565b62003e5e62003ebd565b6001600260006101000a81548160ff0219169083151502179055507f62e78cea01bee320cd4e420270b5ea74000d11b0c9f74754ebdbfc544b05a25862003ea462004362565b60405162003eb3919062004503565b60405180910390a1565b62003ec762000af6565b1562003f0a576040517f08c379a000000000000000000000000000000000000000000000000000000000815260040162003f019062004f02565b60405180910390fd5b565b50565b50565b62003f1c62004362565b73ffffffffffffffffffffffffffffffffffffffff1662003f3c62003637565b73ffffffffffffffffffffffffffffffffffffffff161462003f95576040517f08c379a000000000000000000000000000000000000000000000000000000000815260040162003f8c9062004f40565b60405180910390fd5b565b6000600260019054906101000a900473ffffffffffffffffffffffffffffffffffffffff16905081600260016101000a81548173ffffffffffffffffffffffffffffffffffffffff021916908373ffffffffffffffffffffffffffffffffffffffff1602179055508173ffffffffffffffffffffffffffffffffffffffff168173ffffffffffffffffffffffffffffffffffffffff167f8be0079c531659141344cd1fd0a4f28419497f9722a3daafe3b4186f6b6457e060405160405180910390a35050565b620040676200436a565b6000600260006101000a81548160ff0219169083151502179055507f5db9ee0a495bf2e6ff9c91a7834c1ba4fdd244a5e8aa4e537bd38aeae4b073aa620040ad62004362565b604051620040bc919062004503565b60405180910390a1565b50565b828282808373ffffffffffffffffffffffffffffffffffffffff1663dd62ed3e84306040518363ffffffff1660e01b81526004016200410a92919062004992565b602060405180830381865afa15801562004128573d6000803e3d6000fd5b505050506040513d601f19601f820116820180604052508101906200414e919062004a6a565b101562004192576040517f08c379a0000000000000000000000000000000000000000000000000000000008152600401620041899062004f7d565b60405180910390fd5b60008411620041a057600080fd5b6000620041ae8730620042d9565b90508673ffffffffffffffffffffffffffffffffffffffff166323b872dd8730886040518463ffffffff1660e01b8152600401620041ef9392919062004fbb565b6020604051808303816000875af11580156200420f573d6000803e3d6000fd5b505050506040513d601f19601f8201168201806040525081019062004235919062004e96565b507f1fecf4702e692891a7c2f0d328779b085efb5edd094fa5558bd5cd147a1679228587896040516200426b9392919062004e2f565b60405180910390a16200427f8730620042d9565b85826200428d919062004da9565b14620042d0576040517f08c379a0000000000000000000000000000000000000000000000000000000008152600401620042c79062004ec4565b60405180910390fd5b50505050505050565b60008273ffffffffffffffffffffffffffffffffffffffff166370a08231836040518263ffffffff1660e01b815260040162004316919062004503565b602060405180830381865afa15801562004334573d6000803e3d6000fd5b505050506040513d601f19601f820116820180604052508101906200435a919062004a6a565b905092915050565b600033905090565b6200437462000af6565b620043b6576040517f08c379a0000000000000000000000000000000000000000000000000000000008152600401620043ad9062004ff4565b60405180910390fd5b565b82805482825590600052602060002090810192821562004405579160200282015b8281111562004404578251829081620043f39190620050d2565b5091602001919060010190620043d9565b5b50905062004414919062004426565b5090565b61167c80620051ea83390190565b5b808211156200444a57600081816200444091906200444e565b5060010162004427565b5090565b5080546200445c9062004bc5565b6000825580601f1062004470575062004491565b601f01602090049060005260206000209081019062004490919062004494565b5b50565b5b80821115620044af57600081600090555060010162004495565b5090565b73ffffffffffffffffffffffffffffffffffffffff81168114620044d657600080fd5b50565b600060208284031215620044ec57600080fd5b8135620044f981620044b3565b8091505092915050565b600060208201905073ffffffffffffffffffffffffffffffffffffffff8316825292915050565b6000602082840312156200453d57600080fd5b8135905092915050565b600060a08201905073ffffffffffffffffffffffffffffffffffffffff808816835286151560208401528086166040840152508360608301528260808301529695505050505050565b600060208284031215620045a357600080fd5b8135620045b081620044b3565b8091505092915050565b600060208201905082825292915050565b6000602082019050821515825292915050565b7f4e487b7100000000000000000000000000000000000000000000000000000000600052604160045260246000fd5b600060405190507fffffffffffffffffffffffffffffffffffffffffffffffffffffffffffffffe0601f830116810181811067ffffffffffffffff821117156200465c576200465b620045de565b5b8060405250919050565b6000806000606084860312156200467c57600080fd5b83356200468981620044b3565b8093505060208085013567ffffffffffffffff80821115620046aa57600080fd5b818701915087601f830112620046bf57600080fd5b813581811115620046d557620046d4620045de565b5b8060051b620046e68582016200460d565b808382528682019150868387010193508b8411156200470457600080fd5b86860192505b83831015620047c357823585811115620047245760008081fd5b80870190508c603f8201126200473a5760008081fd5b87810135604087821115620047545762004753620045de565b5b620047868a7fffffffffffffffffffffffffffffffffffffffffffffffffffffffffffffffe0601f850116016200460d565b8281528f828486010111156200479c5760008081fd5b828285018c83013760008b848301015280865250505050868201915086830192506200470a565b80985050505050505050604084013590509250925092565b600080600060608486031215620047f157600080fd5b8335925060208401356200480581620044b3565b80925050604084013590509250925092565b600081518084526020808501808196508360051b810191508286016000805b86811015620048c3578385038a5282518051808752835b818110156200486d5788818401015189828a01015288810190506200484d565b818111156200487e578489838a0101525b50877fffffffffffffffffffffffffffffffffffffffffffffffffffffffffffffffe0601f830116880101965050508583019250858a01995060018101905062004836565b5050505080935050505092915050565b602081526000620048e8602083018462004817565b905092915050565b600080604083850312156200490457600080fd5b82359150602083013590509250929050565b60208152601360208201527f417574686f72697a6174696f6e204572726f720000000000000000000000000060408201526000606082019050919050565b60208152601860208201527f43616e2774207377617020746f2073616d6520746f6b656e000000000000000060408201526000606082019050919050565b600060408201905073ffffffffffffffffffffffffffffffffffffffff80851683528084166020840152509392505050565b60208152601260208201527f46656520616d6f756e74206973207a65726f000000000000000000000000000060408201526000606082019050919050565b60208152601e60208201527f44617461206172726179206d757374206861766520656c656d656e74732e000060408201526000606082019050919050565b60006020828403121562004a5357600080fd5b815162004a6081620044b3565b8091505092915050565b60006020828403121562004a7d57600080fd5b8151905092915050565b85815260a06020820152600062004aa260a083018762004817565b905073ffffffffffffffffffffffffffffffffffffffff80861660408401528085166060840152508260808301529695505050505050565b7f4e487b7100000000000000000000000000000000000000000000000000000000600052601160045260246000fd5b60007fffffffffffffffffffffffffffffffffffffffffffffffffffffffffffffffff820362004b3e5762004b3d62004ada565b5b600182019050919050565b60208152601d60208201527f596f7520617265206e6f7420616e206f776e6572206f6620706f6f6c2e00000060408201526000606082019050919050565b60208152601260208201527f496e636f727265637420706f6f6c2069642e000000000000000000000000000060408201526000606082019050919050565b60008160011c9050600182168062004bde57607f821691505b60208210810362004c18577f4e487b7100000000000000000000000000000000000000000000000000000000600052602260045260246000fd5b50919050565b60208152602160208201527f506f6f6c20616c726561647920686173207468652073616d652073746174757360408201527f2e0000000000000000000000000000000000000000000000000000000000000060608201526000608082019050919050565b60208152601460208201527f496e636f7272656374205369676e55702069642e00000000000000000000000060408201526000606082019050919050565b600060208201905073ffffffffffffffffffffffffffffffffffffffff8316825292915050565b60208152601c60208201527f43616e2774207377617020746f2073616d65206665652076616c75650000000060408201526000606082019050919050565b60006040820190508382528260208301529392505050565b60208152601760208201527f4e6f7420456e6f756768204665652050726f766964656400000000000000000060408201526000606082019050919050565b600060408201905083825273ffffffffffffffffffffffffffffffffffffffff831660208301529392505050565b6000821982111562004dc05762004dbf62004ada565b5b828201905092915050565b60208152602660208201527f4f776e61626c653a206e6577206f776e657220697320746865207a65726f206160408201527f646472657373000000000000000000000000000000000000000000000000000060608201526000608082019050919050565b600060608201905084825273ffffffffffffffffffffffffffffffffffffffff8085166020840152808416604084015250949350505050565b600060408201905073ffffffffffffffffffffffffffffffffffffffff841682528260208301529392505050565b60006020828403121562004ea957600080fd5b8151801515811462004eba57600080fd5b8091505092915050565b60208152601d60208201527f7265636976652077726f6e6720616d6f756e74206f6620746f6b656e7300000060408201526000606082019050919050565b60208152601060208201527f5061757361626c653a207061757365640000000000000000000000000000000060408201526000606082019050919050565b602081526020808201527f4f776e61626c653a2063616c6c6572206973206e6f7420746865206f776e657260408201526000606082019050919050565b60208152600c60208201527f6e6f20616c6c6f77616e6365000000000000000000000000000000000000000060408201526000606082019050919050565b600060608201905073ffffffffffffffffffffffffffffffffffffffff8086168352808516602084015250826040830152949350505050565b60208152601460208201527f5061757361626c653a206e6f742070617573656400000000000000000000000060408201526000606082019050919050565b806000525060006020600020905090565b601f8211156200509557600081815260208120601f850160051c810160208610156200506d578190505b601f850160051c820191505b81811015620050915782815560018101905062005079565b5050505b505050565b60008260011b7fffffffffffffffffffffffffffffffffffffffffffffffffffffffffffffffff8460031b1c19831617905092915050565b815167ffffffffffffffff811115620050f057620050ef620045de565b5b620051088162005101845462004bc5565b8462005043565b60006020809150601f8311600181146200514157600084156200512c578387015190505b6200513885826200509a565b865550620051e1565b7fffffffffffffffffffffffffffffffffffffffffffffffffffffffffffffffe084166200516f8662005032565b60005b8281101562005197578589015182556001820191508486019550848101905062005172565b5085821015620051d557848801517fffffffffffffffffffffffffffffffffffffffffffffffffffffffffffffffff60f88860031b161c1981168255505b505060018460011b0185555b50505050505056fe608060405234801561001057600080fd5b5061002d61002261007460201b60201c565b61007c60201b60201c565b6000600160006101000a81548173ffffffffffffffffffffffffffffffffffffffff021916908373ffffffffffffffffffffffffffffffffffffffff160217905550610140565b600033905090565b60008060009054906101000a900473ffffffffffffffffffffffffffffffffffffffff169050816000806101000a81548173ffffffffffffffffffffffffffffffffffffffff021916908373ffffffffffffffffffffffffffffffffffffffff1602179055508173ffffffffffffffffffffffffffffffffffffffff168173ffffffffffffffffffffffffffffffffffffffff167f8be0079c531659141344cd1fd0a4f28419497f9722a3daafe3b4186f6b6457e060405160405180910390a35050565b61152d8061014f6000396000f3fe6080604052600436106100c75760003560e01c80638da5cb5b11610074578063d854f7021161004e578063d854f70214610235578063da0ff68c1461025e578063f2fde38b1461027a576100c7565b80638da5cb5b146101b4578063bef7a2f0146101df578063cda95d801461020a576100c7565b8063481531e9116100a5578063481531e9146101495780636681896714610174578063715018a61461019d576100c7565b80630842bcbb146100cc5780630cd8e965146100f55780633aa0d15d14610120575b600080fd5b3480156100d857600080fd5b506100f360048036038101906100ee919061105d565b6102a3565b005b34801561010157600080fd5b5061010a6104b4565b6040516101179190611084565b60405180910390f35b34801561012c57600080fd5b50610147600480360381019061014291906110ab565b6104da565b005b34801561015557600080fd5b5061015e6106cb565b60405161016b9190611084565b60405180910390f35b34801561018057600080fd5b5061019b6004803603810190610196919061105d565b6106f1565b005b3480156101a957600080fd5b506101b2610802565b005b3480156101c057600080fd5b506101c9610816565b6040516101d69190611084565b60405180910390f35b3480156101eb57600080fd5b506101f461083f565b60405161020191906110d2565b60405180910390f35b34801561021657600080fd5b5061021f610845565b60405161022c91906110d2565b60405180910390f35b34801561024157600080fd5b5061025c600480360381019061025791906110e3565b61084b565b005b610278600480360381019061027391906110e3565b6109a1565b005b34801561028657600080fd5b506102a1600480360381019061029c919061105d565b610acc565b005b6102ab610816565b73ffffffffffffffffffffffffffffffffffffffff163373ffffffffffffffffffffffffffffffffffffffff1614806103315750600160009054906101000a900473ffffffffffffffffffffffffffffffffffffffff1673ffffffffffffffffffffffffffffffffffffffff163373ffffffffffffffffffffffffffffffffffffffff16145b610370576040517f08c379a0000000000000000000000000000000000000000000000000000000008152600401610367906110ff565b60405180910390fd5b8073ffffffffffffffffffffffffffffffffffffffff16600360009054906101000a900473ffffffffffffffffffffffffffffffffffffffff1673ffffffffffffffffffffffffffffffffffffffff1603610400576040517f08c379a00000000000000000000000000000000000000000000000000000000081526004016103f79061113d565b60405180910390fd5b6000600454111561041557610414326104da565b5b7f2a649a96ed014013ba4748bc2952462a2adb0707fb5a2f30ff1f9041425f168f81600360009054906101000a900473ffffffffffffffffffffffffffffffffffffffff1660405161046892919061117b565b60405180910390a180600360006101000a81548173ffffffffffffffffffffffffffffffffffffffff021916908373ffffffffffffffffffffffffffffffffffffffff16021790555050565b600160009054906101000a900473ffffffffffffffffffffffffffffffffffffffff1681565b6104e2610816565b73ffffffffffffffffffffffffffffffffffffffff163373ffffffffffffffffffffffffffffffffffffffff1614806105685750600160009054906101000a900473ffffffffffffffffffffffffffffffffffffffff1673ffffffffffffffffffffffffffffffffffffffff163373ffffffffffffffffffffffffffffffffffffffff16145b6105a7576040517f08c379a000000000000000000000000000000000000000000000000000000000815260040161059e906110ff565b60405180910390fd5b6000600454116105ec576040517f08c379a00000000000000000000000000000000000000000000000000000000081526004016105e3906111ad565b60405180910390fd5b600073ffffffffffffffffffffffffffffffffffffffff16600360009054906101000a900473ffffffffffffffffffffffffffffffffffffffff1673ffffffffffffffffffffffffffffffffffffffff1603610690578073ffffffffffffffffffffffffffffffffffffffff166108fc6004549081150290604051600060405180830381858888f1935050505015801561068a573d6000803e3d6000fd5b506106c0565b6106bf600360009054906101000a900473ffffffffffffffffffffffffffffffffffffffff1682600454610b4f565b5b600060048190555050565b600360009054906101000a900473ffffffffffffffffffffffffffffffffffffffff1681565b6106f9610816565b73ffffffffffffffffffffffffffffffffffffffff163373ffffffffffffffffffffffffffffffffffffffff16148061077f5750600160009054906101000a900473ffffffffffffffffffffffffffffffffffffffff1673ffffffffffffffffffffffffffffffffffffffff163373ffffffffffffffffffffffffffffffffffffffff16145b6107be576040517f08c379a00000000000000000000000000000000000000000000000000000000081526004016107b5906110ff565b60405180910390fd5b80600160006101000a81548173ffffffffffffffffffffffffffffffffffffffff021916908373ffffffffffffffffffffffffffffffffffffffff16021790555050565b61080a610c73565b6108146000610cf1565b565b60008060009054906101000a900473ffffffffffffffffffffffffffffffffffffffff16905090565b60025481565b60045481565b610853610816565b73ffffffffffffffffffffffffffffffffffffffff163373ffffffffffffffffffffffffffffffffffffffff1614806108d95750600160009054906101000a900473ffffffffffffffffffffffffffffffffffffffff1673ffffffffffffffffffffffffffffffffffffffff163373ffffffffffffffffffffffffffffffffffffffff16145b610918576040517f08c379a000000000000000000000000000000000000000000000000000000000815260040161090f906110ff565b60405180910390fd5b806002540361095c576040517f08c379a0000000000000000000000000000000000000000000000000000000008152600401610953906111eb565b60405180910390fd5b7f9d7f8f903b5290796d6b981141519d69dacf3b8bc9d0a19fabd782e73e8861918160025460405161098f929190611229565b60405180910390a18060028190555050565b6000810315610ac957600073ffffffffffffffffffffffffffffffffffffffff16600360009054906101000a900473ffffffffffffffffffffffffffffffffffffffff1673ffffffffffffffffffffffffffffffffffffffff1603610a815780341015610a43576040517f08c379a0000000000000000000000000000000000000000000000000000000008152600401610a3a90611241565b60405180910390fd5b7f3a32cdd14cdfd431946dfa0b2aef5ace661340411aaadcaee6aef6738d3023263432604051610a7492919061127f565b60405180910390a1610aaf565b610aae600360009054906101000a900473ffffffffffffffffffffffffffffffffffffffff163283610db5565b5b8060046000828254610ac191906112ad565b925050819055505b50565b610ad4610c73565b600073ffffffffffffffffffffffffffffffffffffffff168173ffffffffffffffffffffffffffffffffffffffff1603610b43576040517f08c379a0000000000000000000000000000000000000000000000000000000008152600401610b3a906112f2565b60405180910390fd5b610b4c81610cf1565b50565b6000610b5b8430610fac565b90507fe4d818e6f992efbd60db553f3edce819a199baec79a784b95c89bc8ee86f2584828486604051610b9093929190611356565b60405180910390a18373ffffffffffffffffffffffffffffffffffffffff1663a9059cbb84846040518363ffffffff1660e01b8152600401610bd392919061138f565b6020604051808303816000875af1158015610bf2573d6000803e3d6000fd5b505050506040513d601f19601f82011682018060405250810190610c1691906113bd565b508082610c238630610fac565b610c2d91906112ad565b14610c6d576040517f08c379a0000000000000000000000000000000000000000000000000000000008152600401610c64906113e9565b60405180910390fd5b50505050565b610c7b611030565b73ffffffffffffffffffffffffffffffffffffffff16610c99610816565b73ffffffffffffffffffffffffffffffffffffffff1614610cef576040517f08c379a0000000000000000000000000000000000000000000000000000000008152600401610ce690611427565b60405180910390fd5b565b60008060009054906101000a900473ffffffffffffffffffffffffffffffffffffffff169050816000806101000a81548173ffffffffffffffffffffffffffffffffffffffff021916908373ffffffffffffffffffffffffffffffffffffffff1602179055508173ffffffffffffffffffffffffffffffffffffffff168173ffffffffffffffffffffffffffffffffffffffff167f8be0079c531659141344cd1fd0a4f28419497f9722a3daafe3b4186f6b6457e060405160405180910390a35050565b828282808373ffffffffffffffffffffffffffffffffffffffff1663dd62ed3e84306040518363ffffffff1660e01b8152600401610df492919061117b565b602060405180830381865afa158015610e11573d6000803e3d6000fd5b505050506040513d601f19601f82011682018060405250810190610e359190611464565b1015610e76576040517f08c379a0000000000000000000000000000000000000000000000000000000008152600401610e6d90611480565b60405180910390fd5b60008411610e8357600080fd5b6000610e8f8730610fac565b90508673ffffffffffffffffffffffffffffffffffffffff166323b872dd8730886040518463ffffffff1660e01b8152600401610ece939291906114be565b6020604051808303816000875af1158015610eed573d6000803e3d6000fd5b505050506040513d601f19601f82011682018060405250810190610f1191906113bd565b507f1fecf4702e692891a7c2f0d328779b085efb5edd094fa5558bd5cd147a167922858789604051610f4593929190611356565b60405180910390a1610f578730610fac565b8582610f6391906112ad565b14610fa3576040517f08c379a0000000000000000000000000000000000000000000000000000000008152600401610f9a906113e9565b60405180910390fd5b50505050505050565b60008273ffffffffffffffffffffffffffffffffffffffff166370a08231836040518263ffffffff1660e01b8152600401610fe79190611084565b602060405180830381865afa158015611004573d6000803e3d6000fd5b505050506040513d601f19601f820116820180604052508101906110289190611464565b905092915050565b600033905090565b73ffffffffffffffffffffffffffffffffffffffff8116811461105a57600080fd5b50565b60006020828403121561106f57600080fd5b813561107a81611038565b8091505092915050565b600060208201905073ffffffffffffffffffffffffffffffffffffffff8316825292915050565b6000602082840312156110bd57600080fd5b81356110c881611038565b8091505092915050565b600060208201905082825292915050565b6000602082840312156110f557600080fd5b8135905092915050565b60208152601360208201527f417574686f72697a6174696f6e204572726f720000000000000000000000000060408201526000606082019050919050565b60208152601860208201527f43616e2774207377617020746f2073616d6520746f6b656e000000000000000060408201526000606082019050919050565b600060408201905073ffffffffffffffffffffffffffffffffffffffff80851683528084166020840152509392505050565b60208152601260208201527f46656520616d6f756e74206973207a65726f000000000000000000000000000060408201526000606082019050919050565b60208152601c60208201527f43616e2774207377617020746f2073616d65206665652076616c75650000000060408201526000606082019050919050565b60006040820190508382528260208301529392505050565b60208152601760208201527f4e6f7420456e6f756768204665652050726f766964656400000000000000000060408201526000606082019050919050565b600060408201905083825273ffffffffffffffffffffffffffffffffffffffff831660208301529392505050565b600082198211156112e7577f4e487b7100000000000000000000000000000000000000000000000000000000600052601160045260246000fd5b828201905092915050565b60208152602660208201527f4f776e61626c653a206e6577206f776e657220697320746865207a65726f206160408201527f646472657373000000000000000000000000000000000000000000000000000060608201526000608082019050919050565b600060608201905084825273ffffffffffffffffffffffffffffffffffffffff8085166020840152808416604084015250949350505050565b600060408201905073ffffffffffffffffffffffffffffffffffffffff841682528260208301529392505050565b6000602082840312156113cf57600080fd5b815180151581146113df57600080fd5b8091505092915050565b60208152601d60208201527f7265636976652077726f6e6720616d6f756e74206f6620746f6b656e7300000060408201526000606082019050919050565b602081526020808201527f4f776e61626c653a2063616c6c6572206973206e6f7420746865206f776e657260408201526000606082019050919050565b60006020828403121561147657600080fd5b8151905092915050565b60208152600c60208201527f6e6f20616c6c6f77616e6365000000000000000000000000000000000000000060408201526000606082019050919050565b600060608201905073ffffffffffffffffffffffffffffffffffffffff808616835280851660208401525082604083015294935050505056fea2646970667358221220fb5851eea72b4ea469d8b6bbc7a1efd60c9806b135acac1ee0faf37842d2322464736f6c634300080f0033a264697066735822122037eb6bff336bff7f50eb65c89c0b2faacaa3d499b56b3ee4fe4c7eab1a3e1bd064736f6c634300080f0033",
  "immutableReferences": {},
  "source": "// SPDX-License-Identifier: MIT\r\npragma solidity ^0.8.0;\nfunction c_0x4481cfe6(bytes32 c__0x4481cfe6) pure {}\n\r\n\r\nimport \"poolz-helper-v2/contracts/FeeBaseHelper.sol\";\r\n\r\nimport \"./RegistrationManageable.sol\";\r\n\r\ncontract RegistrationPO is RegistrationManageable {\nfunction c_0xba3d8062(bytes32 c__0xba3d8062) internal pure {}\n\r\n    function Register(\r\n        address _token,\r\n        string[] memory _keys,\r\n        uint256 _fee\r\n    ) external payable whenNotPaused mustHaveElements(_keys) {c_0xba3d8062(0xf5f8c734816458a310dc25b34b459dd725cff461031f4aa1152211635a931cbc); /* function */ \n\r\nc_0xba3d8062(0xee893318f4737aef1855e2616407c71caa790ca07a4c94ec4ccc4240b3a5d39a); /* line */ \n        c_0xba3d8062(0xbd7864bcd562595475fd6b2ceb9b1c13293ce298206b98c7f4dd04d905477fbb); /* statement */ \nPayFee(Fee);\r\n\r\nc_0xba3d8062(0xe25a4ebb9a807216a7039385d9d7b9d399e81adc753c5dafe37e1cc746c2b686); /* line */ \n        c_0xba3d8062(0x720768026bcc42fad81503dbf7433a3b83b09a9a676afdab50f4f4c483f09794); /* statement */ \nRegistrationPool storage newPool = RegistrationPools[TotalPools];\r\nc_0xba3d8062(0xfac370c519033fdc8e4df68fde127ac27c4203c561b144b7b31de71d5f291c86); /* line */ \n        c_0xba3d8062(0x65bb17ab9d0d648c5f13a8bc4bb854f4a70a482593dc5abb6333e13e34d287fc); /* statement */ \nnewPool.Owner = msg.sender;\r\nc_0xba3d8062(0xbb63f3ae34e9da516863fea20a5643ad863ce4414af74fc2186b91498762666f); /* line */ \n        c_0xba3d8062(0x118e07f2b8b1d1105cb7f733b2eb7edeb6759893ddd00897362acc00eb94f436); /* statement */ \nnewPool.Keys = _keys;\r\nc_0xba3d8062(0x5d3c1fdb40638287349869941f88100b21add94958653eeded6d99ca2251c291); /* line */ \n        c_0xba3d8062(0xc3fd1243f78c8250d080d40bea76b266bc5f4551c81064911080af7741d3c638); /* statement */ \nnewPool.IsActive = true;\r\nc_0xba3d8062(0xc969b2f87e2cb3696e3f529df4bf55ffa19c4c03da82a18f3dbb3b96d3445ce6); /* line */ \n        c_0xba3d8062(0x0faf55d271ba486b5361cf429b7c9f3e75059e6820b58fc18f51d76b39886c1e); /* statement */ \nnewPool.FeeProvider = new FeeBaseHelper();\r\nc_0xba3d8062(0xe8760b4d8c272d525980438aa43515dce4af1750e687aec616bc45f043369ca0); /* line */ \n        c_0xba3d8062(0x75bc41b8960a796c3db4ff2f9cdea8284f6f2b9607876344afe91f8de53dfea4); /* statement */ \nnewPool.UserSignUps = 0;\r\nc_0xba3d8062(0x0beb0264052be45dc60fefb9276741579e79b188360945b19b3bed340277fa30); /* line */ \n        c_0xba3d8062(0xc35f7dd167f45b0ccc03398f6451dc04795c74da497584748e08287c40a5cddc); /* statement */ \nnewPool.TotalKeys = _keys.length;\r\n\r\nc_0xba3d8062(0xa38261f6e08841220634397d3abf15cdb768b8d14f01ba38088d530ee44912f1); /* line */ \n        c_0xba3d8062(0x0076646c9eee2e9d74bf93649c861a778e76a1c15d93b97aba2ff1c46a67c3a0); /* statement */ \nif (_token != address(0)) {c_0xba3d8062(0xbf59b2da6c333e138e6e9fe2fb5f85de7ded3299cb1158096b0f6fd934707dd7); /* branch */ \n\r\nc_0xba3d8062(0x400abf0d39dc63fd572c6bfc176f627019ace21aa14a7a682cba6b859ed25ef3); /* line */ \n            c_0xba3d8062(0xb9296212a61ee199d7794d70bb0a9427f74eb11c8ff4f97ee03d5b2e5208d304); /* statement */ \nnewPool.FeeProvider.SetFeeToken(_token);\r\n        }else { c_0xba3d8062(0x49aefa507218b8a3ff10a6acb506d97e4afd1792fba5df70047615f5c26993c2); /* branch */ \n}\r\nc_0xba3d8062(0x38ab531c4df1127e9489a96a91260eebf7687942c9ad7a865740b81fc4b05ff4); /* line */ \n        c_0xba3d8062(0xaf785bb1dbac4818490e7e3a85a70e946a3db420f5d8de71512c437a7d19ebf7); /* statement */ \nif (_fee != 0) {c_0xba3d8062(0x6879be9b69a7d1cfc01e0e3b30316468e4524d65fe935a92d67b55a7134cf7e2); /* branch */ \n\r\nc_0xba3d8062(0xc4d78f304e689d74039a77323d111b6ecad1a9920a95b4a31242e4e254730e66); /* line */ \n            c_0xba3d8062(0xefb798b1ed368aeba92072fd0caaae8b243cb722b6d5edc20c11a3778ab85b05); /* statement */ \nnewPool.FeeProvider.SetFeeAmount(_fee);\r\n        }else { c_0xba3d8062(0x56e98075dde79d13d0e91a585a11de6b3443746d1b7800727ea864e4929c0017); /* branch */ \n}\r\n\r\nc_0xba3d8062(0xdb94fe93a1ee1ef54f2da382442490ec94a4aade09464ef2d60fb9d9f89e2c5b); /* line */ \n        c_0xba3d8062(0xffba3b410ddf8ecfad211a2ccf0dcb5a025064fefea9416e02204ef282def8cd); /* statement */ \nemit NewRegistrationPoolCreated(\r\n            TotalPools,\r\n            _keys,\r\n            newPool.Owner,\r\n            newPool.FeeProvider.FeeToken(),\r\n            newPool.FeeProvider.Fee()\r\n        );\r\nc_0xba3d8062(0xf1bd2081a960a1f53550bda7336c41223c37be182cfa5e0f1139a20d270c7247); /* line */ \n        TotalPools++;\r\n    }\r\n\r\n    function SetRegisterFee(\r\n        uint256 _poolId,\r\n        address _token,\r\n        uint256 _price\r\n    ) external whenNotPaused onlyPoolOwner(_poolId) isCorrectPoolId(_poolId) {c_0xba3d8062(0x037bd594d04964452a8a9e7efa10f933d7476d4ac26378d97360229573d291e2); /* function */ \n\r\nc_0xba3d8062(0x66e4d535c32e730ef9c5f1f503d53d9e11f7cd168367d2f6653fc73a50df62fa); /* line */ \n        c_0xba3d8062(0x5284ada3ce3338d7ca56cdfe5f0c21a9e11ec42cf518726919e187f949e32cec); /* statement */ \nRegistrationPool storage pool = RegistrationPools[_poolId];\r\nc_0xba3d8062(0xab2f928cf1e1b43b5b184aca6d9c30cc3f3a8c3a9705e2aa4863dd7aeca91eb6); /* line */ \n        c_0xba3d8062(0x70901e40da6fd2eee1ad865f56be0f1240e1fef091f7f15563c75db04b3c6085); /* statement */ \nif (pool.FeeProvider.FeeToken() != _token) {c_0xba3d8062(0xce3d0a08b00a57ee19f5a086b575e82e9b49e22034ddafba30d963dc7da46997); /* branch */ \n\r\nc_0xba3d8062(0xddb1add4e1abdb335f448bd161d3619a60351842cb0dfd416effa68d87a68377); /* line */ \n            c_0xba3d8062(0x23c4209e76c09d7afe2b87ec5dfd82cd98174029498390330096ef81457f7ca2); /* statement */ \npool.FeeProvider.SetFeeToken(_token);\r\n        }else { c_0xba3d8062(0x5980ce5b42bbe7c8d03b82a17bbb18882ce4c17e8107d7e1939b46d4f5cf5b1a); /* branch */ \n}\r\nc_0xba3d8062(0x1e5eb298783b0e128b802c123d22b9f832e626d84389e68cdc4d0dab7a752a14); /* line */ \n        c_0xba3d8062(0x216fd14682be463c69b82b4423ec8fd3614e1bb4214d3672e4eda7bd55b72c37); /* statement */ \nif (pool.FeeProvider.Fee() != _price) {c_0xba3d8062(0x1612593b739bd68b21f87a9a272e4a6c865bf872101292fdf3b6f2900feb6388); /* branch */ \n\r\nc_0xba3d8062(0x4c3902ba3e0299e7cf60d590f3c7186286bc6b0c2a4d4c86f7dc26756bdc651c); /* line */ \n            c_0xba3d8062(0xec5da12e95d3aea67f91361d58fd6471f19d2fdf17bdc725038db3d3f6901c14); /* statement */ \npool.FeeProvider.SetFeeAmount(_price);\r\n        }else { c_0xba3d8062(0x2d7c89542519b66b17892141ecf71e8cbd83f70e434e77a050120748c8229ca4); /* branch */ \n}\r\n    }\r\n\r\n    function WithdrawPoolFee(uint256 _poolId)\r\n        external\r\n        whenNotPaused\r\n        onlyPoolOwner(_poolId)\r\n    {c_0xba3d8062(0xed37f7bad0e271d8a2e10da36f9867baa6e48404172bded8565f0c829d9bc46f); /* function */ \n\r\nc_0xba3d8062(0xb54f715af7fd1c1259e316c35505d6e762b8057b7b41f1486d5c0fd7f0c25cdb); /* line */ \n        c_0xba3d8062(0x45b5a3d00c6d4c7d81418ec38ea663ab11f2722c1bddbe5a406768c447eaaf42); /* statement */ \nFeeBaseHelper PoolFee = RegistrationPools[_poolId].FeeProvider;\r\nc_0xba3d8062(0x3c6b8da41f943d59562950af969736f679d45bc01aa65d1c28e91b29d098fd02); /* line */ \n        c_0xba3d8062(0x95430473c2612c8f4aaa6ee653bbe8581c3aeeb71ccd850b5cdefa6d7d940910); /* statement */ \nPoolFee.WithdrawFee(payable(RegistrationPools[_poolId].Owner));\r\n    }\r\n\r\n    function ActivatePool(uint256 _poolId)\r\n        external\r\n        whenNotPaused\r\n        isCorrectPoolId(_poolId)\r\n        onlyPoolOwner(_poolId)\r\n        validateStatus(_poolId, false)\r\n    {c_0xba3d8062(0xc6be12b2c871f82a61029334152c8957bdebaf63c053cabcc07c3b2b1ca1a7d7); /* function */ \n\r\nc_0xba3d8062(0x3f4bf7e8672750adf86da09cec55dc5640883233f7bd0d5c43150131bf3b02b6); /* line */ \n        c_0xba3d8062(0x02cf4cdfb4e9f700187ecd5d7ecda2f4e1ed8d64e05719afa35468f0b5451f92); /* statement */ \nRegistrationPools[_poolId].IsActive = true;\r\nc_0xba3d8062(0xdd10f70380b17ff2d1e40955ea5c8ed26d3ec98f21ff467433ee480c742dfca4); /* line */ \n        c_0xba3d8062(0xbf40e5d8cf3acc18277b6ea94679961cdd111f0d57020d74139be9e32aa0c0c5); /* statement */ \nemit RegistrationPoolActivated(_poolId);\r\n    }\r\n\r\n    function DeactivatePool(uint256 _poolId)\r\n        external\r\n        whenNotPaused\r\n        isCorrectPoolId(_poolId)\r\n        onlyPoolOwner(_poolId)\r\n        validateStatus(_poolId, true)\r\n    {c_0xba3d8062(0x417cdb24f8eb702924659f36f7222979ab730e6a311134709b9c6dc093d29d8c); /* function */ \n\r\nc_0xba3d8062(0x3763f5082fa21bb65b7e66550485f793927a178ca523189682c1cf7b0bba50bf); /* line */ \n        c_0xba3d8062(0x3b8055f4f98cfd6f4cf63d9d91c21519ff6343878e1b797f44421c0fa1843ca4); /* statement */ \nRegistrationPools[_poolId].IsActive = false;\r\nc_0xba3d8062(0xfbaee06367eaf7db1d8f39f4e72101857fd0c4833615f37706f1a00fa3404d85); /* line */ \n        c_0xba3d8062(0x48e4f2aa7ca40cfe4cc80d7eb1dd1a3f12b97e3ea91cf55332e133a03379b540); /* statement */ \nemit RegistrationPoolDeactivated(_poolId);\r\n    }\r\n}\r\n",
  "sourcePath": "C:\\Poolz\\RegistrationContract\\.coverage_contracts\\RegistrationPO.sol",
  "compiler": {
    "name": "solc",
    "version": "0.8.15+commit.e14f2714.Emscripten.clang"
  },
  "schemaVersion": "3.4.8",
  "updatedAt": "2022-07-13T10:38:20.967Z",
  "devdoc": {
    "kind": "dev",
    "methods": {
      "owner()": {
        "details": "Returns the address of the current owner."
      },
      "paused()": {
        "details": "Returns true if the contract is paused, and false otherwise."
      },
      "renounceOwnership()": {
        "details": "Leaves the contract without owner. It will not be possible to call `onlyOwner` functions anymore. Can only be called by the current owner. NOTE: Renouncing ownership will leave the contract without an owner, thereby removing any functionality that is only available to the owner."
      },
      "transferOwnership(address)": {
        "details": "Transfers ownership of the contract to a new account (`newOwner`). Can only be called by the current owner."
      }
    },
    "version": 1
  },
  "userdoc": {
    "kind": "user",
    "methods": {},
    "version": 1
  }
}