{
  "contractName": "RegistrationEvents",
  "abi": [
    {
      "anonymous": false,
      "inputs": [
        {
          "indexed": false,
          "internalType": "uint256",
          "name": "PoolId",
          "type": "uint256"
        },
        {
          "indexed": false,
          "internalType": "uint256",
          "name": "SignUpId",
          "type": "uint256"
        },
        {
          "indexed": false,
          "internalType": "string[]",
          "name": "Values",
          "type": "string[]"
        }
      ],
      "name": "NewRegistration",
      "type": "event"
    },
    {
      "anonymous": false,
      "inputs": [
        {
          "indexed": false,
          "internalType": "uint256",
          "name": "PoolId",
          "type": "uint256"
        },
        {
          "indexed": false,
          "internalType": "string[]",
          "name": "Keys",
          "type": "string[]"
        },
        {
          "indexed": false,
          "internalType": "address",
          "name": "Owner",
          "type": "address"
        },
        {
          "indexed": false,
          "internalType": "address",
          "name": "TokenFee",
          "type": "address"
        },
        {
          "indexed": false,
          "internalType": "uint256",
          "name": "Fee",
          "type": "uint256"
        }
      ],
      "name": "NewRegistrationPoolCreated",
      "type": "event"
    },
    {
      "anonymous": false,
      "inputs": [
        {
          "indexed": false,
          "internalType": "uint256",
          "name": "PoolId",
          "type": "uint256"
        }
      ],
      "name": "RegistrationPoolActivated",
      "type": "event"
    },
    {
      "anonymous": false,
      "inputs": [
        {
          "indexed": false,
          "internalType": "uint256",
          "name": "PoolId",
          "type": "uint256"
        }
      ],
      "name": "RegistrationPoolDeactivated",
      "type": "event"
    },
    {
      "anonymous": false,
      "inputs": [
        {
          "indexed": false,
          "internalType": "string[]",
          "name": "NewValues",
          "type": "string[]"
        },
        {
          "indexed": false,
          "internalType": "string[]",
          "name": "OldValues",
          "type": "string[]"
        }
      ],
      "name": "SignUpValuesChanged",
      "type": "event"
    },
    {
      "inputs": [
        {
          "internalType": "uint256",
          "name": "",
          "type": "uint256"
        }
      ],
      "name": "RegistrationPools",
      "outputs": [
        {
          "internalType": "address",
          "name": "Owner",
          "type": "address"
        },
        {
          "internalType": "bool",
          "name": "IsActive",
          "type": "bool"
        },
        {
          "internalType": "contract FeeBaseHelper",
          "name": "FeeProvider",
          "type": "address"
        },
        {
          "internalType": "uint256",
          "name": "UserSignUps",
          "type": "uint256"
        },
        {
          "internalType": "uint256",
          "name": "TotalKeys",
          "type": "uint256"
        }
      ],
      "stateMutability": "view",
      "type": "function"
    },
    {
      "inputs": [],
      "name": "TotalPools",
      "outputs": [
        {
          "internalType": "uint256",
          "name": "",
          "type": "uint256"
        }
      ],
      "stateMutability": "view",
      "type": "function"
    }
  ],
  "bytecode": "0x608060405234801561001057600080fd5b506101c2806100206000396000f3fe608060405234801561001057600080fd5b50600436106100365760003560e01c8063273b3b291461003b578063424b93111461006f575b600080fd5b61005560048036038101906100509190610116565b61008d565b604051610066959493929190610132565b60405180910390f35b610077610110565b604051610084919061017b565b60405180910390f35b60006020528060005260406000206000915090508060000160009054906101000a900473ffffffffffffffffffffffffffffffffffffffff16908060020160009054906101000a900460ff16908060020160019054906101000a900473ffffffffffffffffffffffffffffffffffffffff16908060030154908060040154905085565b60015481565b60006020828403121561012857600080fd5b8135905092915050565b600060a08201905073ffffffffffffffffffffffffffffffffffffffff808816835286151560208401528086166040840152508360608301528260808301529695505050505050565b60006020820190508282529291505056fea2646970667358221220a2f64727fa3443711d17e2574951bf6f491f93d9c56114df3d84e2fd1a7dac4464736f6c634300080f0033",
  "immutableReferences": {},
  "source": "// SPDX-License-Identifier: MIT\r\npragma solidity ^0.8.0;\nfunction c_0x5870135c(bytes32 c__0x5870135c) pure {}\n\r\n\r\nimport \"./RegistrationData.sol\";\r\n\r\n/// @title contains all events.\r\ncontract RegistrationEvents is RegistrationData {\nfunction c_0xde727c90(bytes32 c__0xde727c90) internal pure {}\n\r\n    event NewRegistrationPoolCreated(\r\n        uint256 PoolId,\r\n        string[] Keys,\r\n        address Owner,\r\n        address TokenFee,\r\n        uint256 Fee\r\n    );\r\n    event NewRegistration(uint256 PoolId, uint256 SignUpId, string[] Values);\r\n    event RegistrationPoolActivated(uint256 PoolId);\r\n    event RegistrationPoolDeactivated(uint256 PoolId);\r\n    event SignUpValuesChanged(string[] NewValues, string[] OldValues);\r\n}\r\n",
  "sourcePath": "C:\\Poolz\\RegistrationContract\\.coverage_contracts\\RegistrationEvents.sol",
  "compiler": {
    "name": "solc",
    "version": "0.8.15+commit.e14f2714.Emscripten.clang"
  },
  "schemaVersion": "3.4.8",
  "updatedAt": "2022-07-13T10:38:20.961Z",
  "devdoc": {
    "kind": "dev",
    "methods": {},
    "title": "contains all events.",
    "version": 1
  },
  "userdoc": {
    "kind": "user",
    "methods": {},
    "version": 1
  }
}