{
  "contractName": "RegistrationManageable",
  "abi": [
    {
      "anonymous": false,
      "inputs": [
        {
          "indexed": false,
          "internalType": "uint256",
          "name": "NewFeeAmount",
          "type": "uint256"
        },
        {
          "indexed": false,
          "internalType": "uint256",
          "name": "OldFeeAmount",
          "type": "uint256"
        }
      ],
      "name": "NewFeeAmount",
      "type": "event"
    },
    {
      "anonymous": false,
      "inputs": [
        {
          "indexed": false,
          "internalType": "address",
          "name": "NewFeeToken",
          "type": "address"
        },
        {
          "indexed": false,
          "internalType": "address",
          "name": "OldFeeToken",
          "type": "address"
        }
      ],
      "name": "NewFeeToken",
      "type": "event"
    },
    {
      "anonymous": false,
      "inputs": [
        {
          "indexed": false,
          "internalType": "uint256",
          "name": "PoolId",
          "type": "uint256"
        },
        {
          "indexed": false,
          "internalType": "uint256",
          "name": "SignUpId",
          "type": "uint256"
        },
        {
          "indexed": false,
          "internalType": "string[]",
          "name": "Values",
          "type": "string[]"
        }
      ],
      "name": "NewRegistration",
      "type": "event"
    },
    {
      "anonymous": false,
      "inputs": [
        {
          "indexed": false,
          "internalType": "uint256",
          "name": "PoolId",
          "type": "uint256"
        },
        {
          "indexed": false,
          "internalType": "string[]",
          "name": "Keys",
          "type": "string[]"
        },
        {
          "indexed": false,
          "internalType": "address",
          "name": "Owner",
          "type": "address"
        },
        {
          "indexed": false,
          "internalType": "address",
          "name": "TokenFee",
          "type": "address"
        },
        {
          "indexed": false,
          "internalType": "uint256",
          "name": "Fee",
          "type": "uint256"
        }
      ],
      "name": "NewRegistrationPoolCreated",
      "type": "event"
    },
    {
      "anonymous": false,
      "inputs": [
        {
          "indexed": true,
          "internalType": "address",
          "name": "previousOwner",
          "type": "address"
        },
        {
          "indexed": true,
          "internalType": "address",
          "name": "newOwner",
          "type": "address"
        }
      ],
      "name": "OwnershipTransferred",
      "type": "event"
    },
    {
      "anonymous": false,
      "inputs": [
        {
          "indexed": false,
          "internalType": "address",
          "name": "account",
          "type": "address"
        }
      ],
      "name": "Paused",
      "type": "event"
    },
    {
      "anonymous": false,
      "inputs": [
        {
          "indexed": false,
          "internalType": "uint256",
          "name": "PoolId",
          "type": "uint256"
        }
      ],
      "name": "RegistrationPoolActivated",
      "type": "event"
    },
    {
      "anonymous": false,
      "inputs": [
        {
          "indexed": false,
          "internalType": "uint256",
          "name": "PoolId",
          "type": "uint256"
        }
      ],
      "name": "RegistrationPoolDeactivated",
      "type": "event"
    },
    {
      "anonymous": false,
      "inputs": [
        {
          "indexed": false,
          "internalType": "string[]",
          "name": "NewValues",
          "type": "string[]"
        },
        {
          "indexed": false,
          "internalType": "string[]",
          "name": "OldValues",
          "type": "string[]"
        }
      ],
      "name": "SignUpValuesChanged",
      "type": "event"
    },
    {
      "anonymous": false,
      "inputs": [
        {
          "indexed": false,
          "internalType": "uint256",
          "name": "Amount",
          "type": "uint256"
        },
        {
          "indexed": false,
          "internalType": "address",
          "name": "From",
          "type": "address"
        },
        {
          "indexed": false,
          "internalType": "address",
          "name": "Token",
          "type": "address"
        }
      ],
      "name": "TransferIn",
      "type": "event"
    },
    {
      "anonymous": false,
      "inputs": [
        {
          "indexed": false,
          "internalType": "uint256",
          "name": "Amount",
          "type": "uint256"
        },
        {
          "indexed": false,
          "internalType": "address",
          "name": "From",
          "type": "address"
        }
      ],
      "name": "TransferInETH",
      "type": "event"
    },
    {
      "anonymous": false,
      "inputs": [
        {
          "indexed": false,
          "internalType": "uint256",
          "name": "Amount",
          "type": "uint256"
        },
        {
          "indexed": false,
          "internalType": "address",
          "name": "To",
          "type": "address"
        },
        {
          "indexed": false,
          "internalType": "address",
          "name": "Token",
          "type": "address"
        }
      ],
      "name": "TransferOut",
      "type": "event"
    },
    {
      "anonymous": false,
      "inputs": [
        {
          "indexed": false,
          "internalType": "address",
          "name": "account",
          "type": "address"
        }
      ],
      "name": "Unpaused",
      "type": "event"
    },
    {
      "inputs": [],
      "name": "Fee",
      "outputs": [
        {
          "internalType": "uint256",
          "name": "",
          "type": "uint256"
        }
      ],
      "stateMutability": "view",
      "type": "function"
    },
    {
      "inputs": [],
      "name": "FeeToken",
      "outputs": [
        {
          "internalType": "address",
          "name": "",
          "type": "address"
        }
      ],
      "stateMutability": "view",
      "type": "function"
    },
    {
      "inputs": [
        {
          "internalType": "uint256",
          "name": "_poolId",
          "type": "uint256"
        }
      ],
      "name": "GetKeys",
      "outputs": [
        {
          "internalType": "string[]",
          "name": "",
          "type": "string[]"
        }
      ],
      "stateMutability": "view",
      "type": "function"
    },
    {
      "inputs": [
        {
          "internalType": "uint256",
          "name": "_poolId",
          "type": "uint256"
        },
        {
          "internalType": "uint256",
          "name": "_signUpId",
          "type": "uint256"
        }
      ],
      "name": "GetValues",
      "outputs": [
        {
          "internalType": "string[]",
          "name": "",
          "type": "string[]"
        }
      ],
      "stateMutability": "view",
      "type": "function"
    },
    {
      "inputs": [],
      "name": "GovernerContract",
      "outputs": [
        {
          "internalType": "address",
          "name": "",
          "type": "address"
        }
      ],
      "stateMutability": "view",
      "type": "function"
    },
    {
      "inputs": [
        {
          "internalType": "uint256",
          "name": "_fee",
          "type": "uint256"
        }
      ],
      "name": "PayFee",
      "outputs": [],
      "stateMutability": "payable",
      "type": "function"
    },
    {
      "inputs": [
        {
          "internalType": "uint256",
          "name": "",
          "type": "uint256"
        }
      ],
      "name": "RegistrationPools",
      "outputs": [
        {
          "internalType": "address",
          "name": "Owner",
          "type": "address"
        },
        {
          "internalType": "bool",
          "name": "IsActive",
          "type": "bool"
        },
        {
          "internalType": "contract FeeBaseHelper",
          "name": "FeeProvider",
          "type": "address"
        },
        {
          "internalType": "uint256",
          "name": "UserSignUps",
          "type": "uint256"
        },
        {
          "internalType": "uint256",
          "name": "TotalKeys",
          "type": "uint256"
        }
      ],
      "stateMutability": "view",
      "type": "function"
    },
    {
      "inputs": [],
      "name": "Reserve",
      "outputs": [
        {
          "internalType": "uint256",
          "name": "",
          "type": "uint256"
        }
      ],
      "stateMutability": "view",
      "type": "function"
    },
    {
      "inputs": [
        {
          "internalType": "uint256",
          "name": "_amount",
          "type": "uint256"
        }
      ],
      "name": "SetFeeAmount",
      "outputs": [],
      "stateMutability": "nonpayable",
      "type": "function"
    },
    {
      "inputs": [
        {
          "internalType": "address",
          "name": "_token",
          "type": "address"
        }
      ],
      "name": "SetFeeToken",
      "outputs": [],
      "stateMutability": "nonpayable",
      "type": "function"
    },
    {
      "inputs": [],
      "name": "TotalPools",
      "outputs": [
        {
          "internalType": "uint256",
          "name": "",
          "type": "uint256"
        }
      ],
      "stateMutability": "view",
      "type": "function"
    },
    {
      "inputs": [
        {
          "internalType": "address payable",
          "name": "_to",
          "type": "address"
        }
      ],
      "name": "WithdrawFee",
      "outputs": [],
      "stateMutability": "nonpayable",
      "type": "function"
    },
    {
      "inputs": [],
      "name": "owner",
      "outputs": [
        {
          "internalType": "address",
          "name": "",
          "type": "address"
        }
      ],
      "stateMutability": "view",
      "type": "function"
    },
    {
      "inputs": [],
      "name": "paused",
      "outputs": [
        {
          "internalType": "bool",
          "name": "",
          "type": "bool"
        }
      ],
      "stateMutability": "view",
      "type": "function"
    },
    {
      "inputs": [],
      "name": "renounceOwnership",
      "outputs": [],
      "stateMutability": "nonpayable",
      "type": "function"
    },
    {
      "inputs": [
        {
          "internalType": "address",
          "name": "_address",
          "type": "address"
        }
      ],
      "name": "setGovernerContract",
      "outputs": [],
      "stateMutability": "nonpayable",
      "type": "function"
    },
    {
      "inputs": [
        {
          "internalType": "address",
          "name": "newOwner",
          "type": "address"
        }
      ],
      "name": "transferOwnership",
      "outputs": [],
      "stateMutability": "nonpayable",
      "type": "function"
    },
    {
      "inputs": [],
      "name": "Pause",
      "outputs": [],
      "stateMutability": "nonpayable",
      "type": "function"
    },
    {
      "inputs": [],
      "name": "Unpause",
      "outputs": [],
      "stateMutability": "nonpayable",
      "type": "function"
    }
  ],
  "bytecode": "0x60806040523480156200001157600080fd5b506000600260006101000a81548160ff0219169083151502179055506200004d620000416200009560201b60201c565b6200009d60201b60201c565b6000600360006101000a81548173ffffffffffffffffffffffffffffffffffffffff021916908373ffffffffffffffffffffffffffffffffffffffff16021790555062000163565b600033905090565b6000600260019054906101000a900473ffffffffffffffffffffffffffffffffffffffff16905081600260016101000a81548173ffffffffffffffffffffffffffffffffffffffff021916908373ffffffffffffffffffffffffffffffffffffffff1602179055508173ffffffffffffffffffffffffffffffffffffffff168173ffffffffffffffffffffffffffffffffffffffff167f8be0079c531659141344cd1fd0a4f28419497f9722a3daafe3b4186f6b6457e060405160405180910390a35050565b61254e80620001736000396000f3fe6080604052600436106101445760003560e01c8063715018a6116100c0578063bef7a2f011610074578063d854f70211610059578063d854f702146103f1578063da0ff68c1461041a578063f2fde38b1461043657610144565b8063bef7a2f01461039b578063cda95d80146103c657610144565b80637b510354116100a55780637b510354146102f65780638d0999d1146103335780638da5cb5b1461037057610144565b8063715018a6146102c85780637805862f146102df57610144565b8063424b9311116101175780635c975abb116100fc5780635c975abb1461025d57806366818967146102885780636985a022146102b157610144565b8063424b931114610207578063481531e91461023257610144565b80630842bcbb146101495780630cd8e96514610172578063273b3b291461019d5780633aa0d15d146101de575b600080fd5b34801561015557600080fd5b50610170600480360381019061016b9190611dcc565b61045f565b005b34801561017e57600080fd5b50610187610670565b6040516101949190611df3565b60405180910390f35b3480156101a957600080fd5b506101c460048036038101906101bf9190611e1a565b610696565b6040516101d5959493929190611e36565b60405180910390f35b3480156101ea57600080fd5b5061020560048036038101906102009190611e7f565b610719565b005b34801561021357600080fd5b5061021c61090a565b6040516102299190611ea6565b60405180910390f35b34801561023e57600080fd5b50610247610910565b6040516102549190611df3565b60405180910390f35b34801561026957600080fd5b50610272610936565b60405161027f9190611eb7565b60405180910390f35b34801561029457600080fd5b506102af60048036038101906102aa9190611dcc565b61094d565b005b3480156102bd57600080fd5b506102c6610a5e565b005b3480156102d457600080fd5b506102dd610bb9565b005b3480156102eb57600080fd5b506102f4610bcd565b005b34801561030257600080fd5b5061031d60048036038101906103189190611e1a565b610d28565b60405161032a9190611eca565b60405180910390f35b34801561033f57600080fd5b5061035a60048036038101906103559190611fac565b610fe8565b6040516103679190611eca565b60405180910390f35b34801561037c57600080fd5b50610385611420565b6040516103929190611df3565b60405180910390f35b3480156103a757600080fd5b506103b061144a565b6040516103bd9190611ea6565b60405180910390f35b3480156103d257600080fd5b506103db611450565b6040516103e89190611ea6565b60405180910390f35b3480156103fd57600080fd5b5061041860048036038101906104139190611e1a565b611456565b005b610434600480360381019061042f9190611e1a565b6115ac565b005b34801561044257600080fd5b5061045d60048036038101906104589190611dcc565b6116d7565b005b610467611420565b73ffffffffffffffffffffffffffffffffffffffff163373ffffffffffffffffffffffffffffffffffffffff1614806104ed5750600360009054906101000a900473ffffffffffffffffffffffffffffffffffffffff1673ffffffffffffffffffffffffffffffffffffffff163373ffffffffffffffffffffffffffffffffffffffff16145b61052c576040517f08c379a000000000000000000000000000000000000000000000000000000000815260040161052390611fd1565b60405180910390fd5b8073ffffffffffffffffffffffffffffffffffffffff16600560009054906101000a900473ffffffffffffffffffffffffffffffffffffffff1673ffffffffffffffffffffffffffffffffffffffff16036105bc576040517f08c379a00000000000000000000000000000000000000000000000000000000081526004016105b39061200f565b60405180910390fd5b600060065411156105d1576105d032610719565b5b7f2a649a96ed014013ba4748bc2952462a2adb0707fb5a2f30ff1f9041425f168f81600560009054906101000a900473ffffffffffffffffffffffffffffffffffffffff1660405161062492919061204d565b60405180910390a180600560006101000a81548173ffffffffffffffffffffffffffffffffffffffff021916908373ffffffffffffffffffffffffffffffffffffffff16021790555050565b600360009054906101000a900473ffffffffffffffffffffffffffffffffffffffff1681565b60006020528060005260406000206000915090508060000160009054906101000a900473ffffffffffffffffffffffffffffffffffffffff16908060020160009054906101000a900460ff16908060020160019054906101000a900473ffffffffffffffffffffffffffffffffffffffff16908060030154908060040154905085565b610721611420565b73ffffffffffffffffffffffffffffffffffffffff163373ffffffffffffffffffffffffffffffffffffffff1614806107a75750600360009054906101000a900473ffffffffffffffffffffffffffffffffffffffff1673ffffffffffffffffffffffffffffffffffffffff163373ffffffffffffffffffffffffffffffffffffffff16145b6107e6576040517f08c379a00000000000000000000000000000000000000000000000000000000081526004016107dd90611fd1565b60405180910390fd5b60006006541161082b576040517f08c379a00000000000000000000000000000000000000000000000000000000081526004016108229061207f565b60405180910390fd5b600073ffffffffffffffffffffffffffffffffffffffff16600560009054906101000a900473ffffffffffffffffffffffffffffffffffffffff1673ffffffffffffffffffffffffffffffffffffffff16036108cf578073ffffffffffffffffffffffffffffffffffffffff166108fc6006549081150290604051600060405180830381858888f193505050501580156108c9573d6000803e3d6000fd5b506108ff565b6108fe600560009054906101000a900473ffffffffffffffffffffffffffffffffffffffff168260065461175a565b5b600060068190555050565b60015481565b600560009054906101000a900473ffffffffffffffffffffffffffffffffffffffff1681565b6000600260009054906101000a900460ff16905090565b610955611420565b73ffffffffffffffffffffffffffffffffffffffff163373ffffffffffffffffffffffffffffffffffffffff1614806109db5750600360009054906101000a900473ffffffffffffffffffffffffffffffffffffffff1673ffffffffffffffffffffffffffffffffffffffff163373ffffffffffffffffffffffffffffffffffffffff16145b610a1a576040517f08c379a0000000000000000000000000000000000000000000000000000000008152600401610a1190611fd1565b60405180910390fd5b80600360006101000a81548173ffffffffffffffffffffffffffffffffffffffff021916908373ffffffffffffffffffffffffffffffffffffffff16021790555050565b610a66611420565b73ffffffffffffffffffffffffffffffffffffffff163373ffffffffffffffffffffffffffffffffffffffff161480610aec5750600360009054906101000a900473ffffffffffffffffffffffffffffffffffffffff1673ffffffffffffffffffffffffffffffffffffffff163373ffffffffffffffffffffffffffffffffffffffff16145b610b2b576040517f08c379a0000000000000000000000000000000000000000000000000000000008152600401610b2290611fd1565b60405180910390fd5b610b577f01114fcfb8c6d97891a0203e37c2bf14c19fd04422bca509d9568fe76af907f260001b61187e565b610b837f66e97a007575e7d13f3fea337278a64d96137537b0a1eda0522556016fe5bb9560001b61187e565b610baf7f380879c71b7665453b5723eee83aa5426d110652cef7b0b1d559c94fffaba80360001b61187e565b610bb7611881565b565b610bc16118e4565b610bcb6000611962565b565b610bd5611420565b73ffffffffffffffffffffffffffffffffffffffff163373ffffffffffffffffffffffffffffffffffffffff161480610c5b5750600360009054906101000a900473ffffffffffffffffffffffffffffffffffffffff1673ffffffffffffffffffffffffffffffffffffffff163373ffffffffffffffffffffffffffffffffffffffff16145b610c9a576040517f08c379a0000000000000000000000000000000000000000000000000000000008152600401610c9190611fd1565b60405180910390fd5b610cc67f46cc58194fb48441ea315d8bcfb2357bc067f8ca902523b8d5ce96221485961e60001b61187e565b610cf27f0e87a9adeb45e63875085796f451ca241184d8a055f9812c536c04880c3955d960001b61187e565b610d1e7fbe0b3decab621fe336c01f6851c5651b8efb5fa5a4cc613c4013b1fac0ddb22860001b61187e565b610d26611a28565b565b606081610d577f611b3635146a2046a9f124f2c5b417c37beea3517b600d637a3d4d2f5f07102560001b611a8b565b610d837f518ab2111ab5580214bc1e2d88941203cf839b22e276ca24b02e653b842981e260001b611a8b565b610daf7fcc7512cde8e870116f6ea4a30ac03e8342b2df8ec51037648bf7952ddcedb1dd60001b611a8b565b610ddb7f442639ff98000aab290673149e0abf15c16854310a9fd51758d9c9627a6fd36660001b611a8b565b6001548110610e1f576040517f08c379a0000000000000000000000000000000000000000000000000000000008152600401610e16906120bd565b60405180910390fd5b610e4b7f2eb7ab22c509ca42c1a11cebe931bb43846816ca6cc5e0f6825cf5cff97c752460001b611a8b565b610e777f1911058c05ce9212f607c9258533e10bb3dc888bcc9c4a48ffe6506bbc6d054a60001b611a8b565b610ea37fb30c3a850bee7919fb9edbb9482690f3b50b84596102e3229a27541c46b923c760001b611a8e565b610ecf7f9a6f5d43a99aaf198b27949604b37cdac11d64a37a6d477cf7c1c506738df87e60001b611a8e565b610efb7f4626901c6449ab742e7275f1cfd4964967c6ada510b940452df82eb7c6702d2460001b611a8e565b600080848152602001908152602001600020600101805480602002602001604051908101604052809291908181526020016000905b82821015610fdc578382906000526020600020018054610f4f906120fb565b80601f0160208091040260200160405190810160405280929190818152602001828054610f7b906120fb565b8015610fc85780601f10610f9d57610100808354040283529160200191610fc8565b820191906000526020600020905b815481529060010190602001808311610fab57829003601f168201915b505050505081526020019060010190610f30565b50505050915050919050565b6060826110177f611b3635146a2046a9f124f2c5b417c37beea3517b600d637a3d4d2f5f07102560001b611a8b565b6110437f518ab2111ab5580214bc1e2d88941203cf839b22e276ca24b02e653b842981e260001b611a8b565b61106f7fcc7512cde8e870116f6ea4a30ac03e8342b2df8ec51037648bf7952ddcedb1dd60001b611a8b565b61109b7f442639ff98000aab290673149e0abf15c16854310a9fd51758d9c9627a6fd36660001b611a8b565b60015481106110df576040517f08c379a00000000000000000000000000000000000000000000000000000000081526004016110d6906120bd565b60405180910390fd5b61110b7f2eb7ab22c509ca42c1a11cebe931bb43846816ca6cc5e0f6825cf5cff97c752460001b611a8b565b6111377f1911058c05ce9212f607c9258533e10bb3dc888bcc9c4a48ffe6506bbc6d054a60001b611a8b565b83836111657feff6237beedd337823f86fbc5a6ee4f22ebe6f58b0a5bcaa9ec0a2f917ee101f60001b611a8b565b6111917f843a13cf3fd57fd14273b72da06039bb6b9d9b82b06f45d8018aabe6f6da5acb60001b611a8b565b6111bd7f281d8fdab833cc3501d3ef42843fcf2b1c28027233681fc76ee9663790d5617860001b611a8b565b6111e97f5cb8831e9d696354595292a092b6abf164ac95f56c66321e43e7676490476c0460001b611a8b565b600080838152602001908152602001600020600301548110611240576040517f08c379a000000000000000000000000000000000000000000000000000000000815260040161123790612152565b60405180910390fd5b61126c7f2778d8b47b0456cfc5aca1d9c436b2c88f6f01650348f9dd1991a51ed130db4a60001b611a8b565b6112987f98f1f675b4229524f93ea8fa0d259c410b4abf27f5bc4a1f052788105d8bedb060001b611a8b565b6112c47f6cb8c9f5dc382d33e6fa20b72f52c9480c84b6e2202acbd9fd694e759b4bf2d460001b611a8e565b6112f07f386e6e0095835b6f4b7ba909664bf7b628cb79cbe89a2cf31fc3a190d9e6388360001b611a8e565b61131c7f80b2e3e939214874a7b3c346459505baef7ef89a483fe899e301990b1921810660001b611a8e565b6000808781526020019081526020016000206005016000868152602001908152602001600020600301805480602002602001604051908101604052809291908181526020016000905b82821015611411578382906000526020600020018054611384906120fb565b80601f01602080910402602001604051908101604052809291908181526020018280546113b0906120fb565b80156113fd5780601f106113d2576101008083540402835291602001916113fd565b820191906000526020600020905b8154815290600101906020018083116113e057829003601f168201915b505050505081526020019060010190611365565b50505050935050505092915050565b6000600260019054906101000a900473ffffffffffffffffffffffffffffffffffffffff16905090565b60045481565b60065481565b61145e611420565b73ffffffffffffffffffffffffffffffffffffffff163373ffffffffffffffffffffffffffffffffffffffff1614806114e45750600360009054906101000a900473ffffffffffffffffffffffffffffffffffffffff1673ffffffffffffffffffffffffffffffffffffffff163373ffffffffffffffffffffffffffffffffffffffff16145b611523576040517f08c379a000000000000000000000000000000000000000000000000000000000815260040161151a90611fd1565b60405180910390fd5b8060045403611567576040517f08c379a000000000000000000000000000000000000000000000000000000000815260040161155e90612190565b60405180910390fd5b7f9d7f8f903b5290796d6b981141519d69dacf3b8bc9d0a19fabd782e73e8861918160045460405161159a9291906121ce565b60405180910390a18060048190555050565b60008103156116d457600073ffffffffffffffffffffffffffffffffffffffff16600560009054906101000a900473ffffffffffffffffffffffffffffffffffffffff1673ffffffffffffffffffffffffffffffffffffffff160361168c578034101561164e576040517f08c379a0000000000000000000000000000000000000000000000000000000008152600401611645906121e6565b60405180910390fd5b7f3a32cdd14cdfd431946dfa0b2aef5ace661340411aaadcaee6aef6738d302326343260405161167f929190612224565b60405180910390a16116ba565b6116b9600560009054906101000a900473ffffffffffffffffffffffffffffffffffffffff163283611a91565b5b80600660008282546116cc9190612252565b925050819055505b50565b6116df6118e4565b600073ffffffffffffffffffffffffffffffffffffffff168173ffffffffffffffffffffffffffffffffffffffff160361174e576040517f08c379a000000000000000000000000000000000000000000000000000000000815260040161174590612297565b60405180910390fd5b61175781611962565b50565b60006117668430611c88565b90507fe4d818e6f992efbd60db553f3edce819a199baec79a784b95c89bc8ee86f258482848660405161179b939291906122fb565b60405180910390a18373ffffffffffffffffffffffffffffffffffffffff1663a9059cbb84846040518363ffffffff1660e01b81526004016117de929190612334565b6020604051808303816000875af11580156117fd573d6000803e3d6000fd5b505050506040513d601f19601f820116820180604052508101906118219190612362565b50808261182e8630611c88565b6118389190612252565b14611878576040517f08c379a000000000000000000000000000000000000000000000000000000000815260040161186f9061238e565b60405180910390fd5b50505050565b50565b611889611d0c565b6001600260006101000a81548160ff0219169083151502179055507f62e78cea01bee320cd4e420270b5ea74000d11b0c9f74754ebdbfc544b05a2586118cd611d56565b6040516118da9190611df3565b60405180910390a1565b6118ec611d56565b73ffffffffffffffffffffffffffffffffffffffff1661190a611420565b73ffffffffffffffffffffffffffffffffffffffff1614611960576040517f08c379a0000000000000000000000000000000000000000000000000000000008152600401611957906123cc565b60405180910390fd5b565b6000600260019054906101000a900473ffffffffffffffffffffffffffffffffffffffff16905081600260016101000a81548173ffffffffffffffffffffffffffffffffffffffff021916908373ffffffffffffffffffffffffffffffffffffffff1602179055508173ffffffffffffffffffffffffffffffffffffffff168173ffffffffffffffffffffffffffffffffffffffff167f8be0079c531659141344cd1fd0a4f28419497f9722a3daafe3b4186f6b6457e060405160405180910390a35050565b611a30611d5e565b6000600260006101000a81548160ff0219169083151502179055507f5db9ee0a495bf2e6ff9c91a7834c1ba4fdd244a5e8aa4e537bd38aeae4b073aa611a74611d56565b604051611a819190611df3565b60405180910390a1565b50565b50565b828282808373ffffffffffffffffffffffffffffffffffffffff1663dd62ed3e84306040518363ffffffff1660e01b8152600401611ad092919061204d565b602060405180830381865afa158015611aed573d6000803e3d6000fd5b505050506040513d601f19601f82011682018060405250810190611b119190612409565b1015611b52576040517f08c379a0000000000000000000000000000000000000000000000000000000008152600401611b4990612425565b60405180910390fd5b60008411611b5f57600080fd5b6000611b6b8730611c88565b90508673ffffffffffffffffffffffffffffffffffffffff166323b872dd8730886040518463ffffffff1660e01b8152600401611baa93929190612463565b6020604051808303816000875af1158015611bc9573d6000803e3d6000fd5b505050506040513d601f19601f82011682018060405250810190611bed9190612362565b507f1fecf4702e692891a7c2f0d328779b085efb5edd094fa5558bd5cd147a167922858789604051611c21939291906122fb565b60405180910390a1611c338730611c88565b8582611c3f9190612252565b14611c7f576040517f08c379a0000000000000000000000000000000000000000000000000000000008152600401611c769061238e565b60405180910390fd5b50505050505050565b60008273ffffffffffffffffffffffffffffffffffffffff166370a08231836040518263ffffffff1660e01b8152600401611cc39190611df3565b602060405180830381865afa158015611ce0573d6000803e3d6000fd5b505050506040513d601f19601f82011682018060405250810190611d049190612409565b905092915050565b611d14610936565b15611d54576040517f08c379a0000000000000000000000000000000000000000000000000000000008152600401611d4b9061249c565b60405180910390fd5b565b600033905090565b611d66610936565b611da5576040517f08c379a0000000000000000000000000000000000000000000000000000000008152600401611d9c906124da565b60405180910390fd5b565b73ffffffffffffffffffffffffffffffffffffffff81168114611dc957600080fd5b50565b600060208284031215611dde57600080fd5b8135611de981611da7565b8091505092915050565b600060208201905073ffffffffffffffffffffffffffffffffffffffff8316825292915050565b600060208284031215611e2c57600080fd5b8135905092915050565b600060a08201905073ffffffffffffffffffffffffffffffffffffffff808816835286151560208401528086166040840152508360608301528260808301529695505050505050565b600060208284031215611e9157600080fd5b8135611e9c81611da7565b8091505092915050565b600060208201905082825292915050565b6000602082019050821515825292915050565b6000602080830181845280855180835260408601915060408160051b87010192508387016000805b83811015611f9c577fffffffffffffffffffffffffffffffffffffffffffffffffffffffffffffffc089870301855282518051808852835b81811015611f48578981840101518a828b0101528981019050611f2a565b81811115611f5857848a838b0101525b50887fffffffffffffffffffffffffffffffffffffffffffffffffffffffffffffffe0601f8301168901019750505086830192508685019450600181019050611ef2565b5050505050809250505092915050565b60008060408385031215611fbf57600080fd5b82359150602083013590509250929050565b60208152601360208201527f417574686f72697a6174696f6e204572726f720000000000000000000000000060408201526000606082019050919050565b60208152601860208201527f43616e2774207377617020746f2073616d6520746f6b656e000000000000000060408201526000606082019050919050565b600060408201905073ffffffffffffffffffffffffffffffffffffffff80851683528084166020840152509392505050565b60208152601260208201527f46656520616d6f756e74206973207a65726f000000000000000000000000000060408201526000606082019050919050565b60208152601260208201527f496e636f727265637420706f6f6c2069642e000000000000000000000000000060408201526000606082019050919050565b60008160011c9050600182168061211357607f821691505b60208210810361214c577f4e487b7100000000000000000000000000000000000000000000000000000000600052602260045260246000fd5b50919050565b60208152601460208201527f496e636f7272656374205369676e55702069642e00000000000000000000000060408201526000606082019050919050565b60208152601c60208201527f43616e2774207377617020746f2073616d65206665652076616c75650000000060408201526000606082019050919050565b60006040820190508382528260208301529392505050565b60208152601760208201527f4e6f7420456e6f756768204665652050726f766964656400000000000000000060408201526000606082019050919050565b600060408201905083825273ffffffffffffffffffffffffffffffffffffffff831660208301529392505050565b6000821982111561228c577f4e487b7100000000000000000000000000000000000000000000000000000000600052601160045260246000fd5b828201905092915050565b60208152602660208201527f4f776e61626c653a206e6577206f776e657220697320746865207a65726f206160408201527f646472657373000000000000000000000000000000000000000000000000000060608201526000608082019050919050565b600060608201905084825273ffffffffffffffffffffffffffffffffffffffff8085166020840152808416604084015250949350505050565b600060408201905073ffffffffffffffffffffffffffffffffffffffff841682528260208301529392505050565b60006020828403121561237457600080fd5b8151801515811461238457600080fd5b8091505092915050565b60208152601d60208201527f7265636976652077726f6e6720616d6f756e74206f6620746f6b656e7300000060408201526000606082019050919050565b602081526020808201527f4f776e61626c653a2063616c6c6572206973206e6f7420746865206f776e657260408201526000606082019050919050565b60006020828403121561241b57600080fd5b8151905092915050565b60208152600c60208201527f6e6f20616c6c6f77616e6365000000000000000000000000000000000000000060408201526000606082019050919050565b600060608201905073ffffffffffffffffffffffffffffffffffffffff8086168352808516602084015250826040830152949350505050565b60208152601060208201527f5061757361626c653a207061757365640000000000000000000000000000000060408201526000606082019050919050565b60208152601460208201527f5061757361626c653a206e6f74207061757365640000000000000000000000006040820152600060608201905091905056fea264697066735822122083410f3e026f528b7fc98871cb625c87420025debf461fe092d081d5cc91fea364736f6c634300080f0033",
  "immutableReferences": {},
  "source": "// SPDX-License-Identifier: MIT\r\npragma solidity ^0.8.0;\nfunction c_0x83cc4356(bytes32 c__0x83cc4356) pure {}\n\r\n\r\nimport \"./RegistrationPublic.sol\";\r\n\r\n/// @title contains admin's actions\r\ncontract RegistrationManageable is RegistrationPublic, FeeBaseHelper {\nfunction c_0x67e36802(bytes32 c__0x67e36802) internal pure {}\n\r\n    function Pause() external onlyOwnerOrGov {c_0x67e36802(0x01114fcfb8c6d97891a0203e37c2bf14c19fd04422bca509d9568fe76af907f2); /* function */ \n\r\nc_0x67e36802(0x66e97a007575e7d13f3fea337278a64d96137537b0a1eda0522556016fe5bb95); /* line */ \n        c_0x67e36802(0x380879c71b7665453b5723eee83aa5426d110652cef7b0b1d559c94fffaba803); /* statement */ \n_pause();\r\n    }\r\n\r\n    function Unpause() external onlyOwnerOrGov {c_0x67e36802(0x46cc58194fb48441ea315d8bcfb2357bc067f8ca902523b8d5ce96221485961e); /* function */ \n\r\nc_0x67e36802(0x0e87a9adeb45e63875085796f451ca241184d8a055f9812c536c04880c3955d9); /* line */ \n        c_0x67e36802(0xbe0b3decab621fe336c01f6851c5651b8efb5fa5a4cc613c4013b1fac0ddb228); /* statement */ \n_unpause();\r\n    }\r\n}\r\n",
  "sourcePath": "C:\\Poolz\\RegistrationContract\\.coverage_contracts\\RegistrationManageable.sol",
  "compiler": {
    "name": "solc",
    "version": "0.8.15+commit.e14f2714.Emscripten.clang"
  },
  "schemaVersion": "3.4.8",
  "updatedAt": "2022-07-13T10:38:20.962Z",
  "devdoc": {
    "kind": "dev",
    "methods": {
      "owner()": {
        "details": "Returns the address of the current owner."
      },
      "paused()": {
        "details": "Returns true if the contract is paused, and false otherwise."
      },
      "renounceOwnership()": {
        "details": "Leaves the contract without owner. It will not be possible to call `onlyOwner` functions anymore. Can only be called by the current owner. NOTE: Renouncing ownership will leave the contract without an owner, thereby removing any functionality that is only available to the owner."
      },
      "transferOwnership(address)": {
        "details": "Transfers ownership of the contract to a new account (`newOwner`). Can only be called by the current owner."
      }
    },
    "title": "contains admin's actions",
    "version": 1
  },
  "userdoc": {
    "kind": "user",
    "methods": {},
    "version": 1
  }
}