{
  "contractName": "RegistrationUser",
  "abi": [
    {
      "anonymous": false,
      "inputs": [
        {
          "indexed": false,
          "internalType": "uint256",
          "name": "NewFeeAmount",
          "type": "uint256"
        },
        {
          "indexed": false,
          "internalType": "uint256",
          "name": "OldFeeAmount",
          "type": "uint256"
        }
      ],
      "name": "NewFeeAmount",
      "type": "event"
    },
    {
      "anonymous": false,
      "inputs": [
        {
          "indexed": false,
          "internalType": "address",
          "name": "NewFeeToken",
          "type": "address"
        },
        {
          "indexed": false,
          "internalType": "address",
          "name": "OldFeeToken",
          "type": "address"
        }
      ],
      "name": "NewFeeToken",
      "type": "event"
    },
    {
      "anonymous": false,
      "inputs": [
        {
          "indexed": false,
          "internalType": "uint256",
          "name": "PoolId",
          "type": "uint256"
        },
        {
          "indexed": false,
          "internalType": "uint256",
          "name": "SignUpId",
          "type": "uint256"
        },
        {
          "indexed": false,
          "internalType": "string[]",
          "name": "Values",
          "type": "string[]"
        }
      ],
      "name": "NewRegistration",
      "type": "event"
    },
    {
      "anonymous": false,
      "inputs": [
        {
          "indexed": false,
          "internalType": "uint256",
          "name": "PoolId",
          "type": "uint256"
        },
        {
          "indexed": false,
          "internalType": "string[]",
          "name": "Keys",
          "type": "string[]"
        },
        {
          "indexed": false,
          "internalType": "address",
          "name": "Owner",
          "type": "address"
        },
        {
          "indexed": false,
          "internalType": "address",
          "name": "TokenFee",
          "type": "address"
        },
        {
          "indexed": false,
          "internalType": "uint256",
          "name": "Fee",
          "type": "uint256"
        }
      ],
      "name": "NewRegistrationPoolCreated",
      "type": "event"
    },
    {
      "anonymous": false,
      "inputs": [
        {
          "indexed": true,
          "internalType": "address",
          "name": "previousOwner",
          "type": "address"
        },
        {
          "indexed": true,
          "internalType": "address",
          "name": "newOwner",
          "type": "address"
        }
      ],
      "name": "OwnershipTransferred",
      "type": "event"
    },
    {
      "anonymous": false,
      "inputs": [
        {
          "indexed": false,
          "internalType": "address",
          "name": "account",
          "type": "address"
        }
      ],
      "name": "Paused",
      "type": "event"
    },
    {
      "anonymous": false,
      "inputs": [
        {
          "indexed": false,
          "internalType": "uint256",
          "name": "PoolId",
          "type": "uint256"
        }
      ],
      "name": "RegistrationPoolActivated",
      "type": "event"
    },
    {
      "anonymous": false,
      "inputs": [
        {
          "indexed": false,
          "internalType": "uint256",
          "name": "PoolId",
          "type": "uint256"
        }
      ],
      "name": "RegistrationPoolDeactivated",
      "type": "event"
    },
    {
      "anonymous": false,
      "inputs": [
        {
          "indexed": false,
          "internalType": "string[]",
          "name": "NewValues",
          "type": "string[]"
        },
        {
          "indexed": false,
          "internalType": "string[]",
          "name": "OldValues",
          "type": "string[]"
        }
      ],
      "name": "SignUpValuesChanged",
      "type": "event"
    },
    {
      "anonymous": false,
      "inputs": [
        {
          "indexed": false,
          "internalType": "uint256",
          "name": "Amount",
          "type": "uint256"
        },
        {
          "indexed": false,
          "internalType": "address",
          "name": "From",
          "type": "address"
        },
        {
          "indexed": false,
          "internalType": "address",
          "name": "Token",
          "type": "address"
        }
      ],
      "name": "TransferIn",
      "type": "event"
    },
    {
      "anonymous": false,
      "inputs": [
        {
          "indexed": false,
          "internalType": "uint256",
          "name": "Amount",
          "type": "uint256"
        },
        {
          "indexed": false,
          "internalType": "address",
          "name": "From",
          "type": "address"
        }
      ],
      "name": "TransferInETH",
      "type": "event"
    },
    {
      "anonymous": false,
      "inputs": [
        {
          "indexed": false,
          "internalType": "uint256",
          "name": "Amount",
          "type": "uint256"
        },
        {
          "indexed": false,
          "internalType": "address",
          "name": "To",
          "type": "address"
        },
        {
          "indexed": false,
          "internalType": "address",
          "name": "Token",
          "type": "address"
        }
      ],
      "name": "TransferOut",
      "type": "event"
    },
    {
      "anonymous": false,
      "inputs": [
        {
          "indexed": false,
          "internalType": "address",
          "name": "account",
          "type": "address"
        }
      ],
      "name": "Unpaused",
      "type": "event"
    },
    {
      "inputs": [
        {
          "internalType": "uint256",
          "name": "_poolId",
          "type": "uint256"
        }
      ],
      "name": "ActivatePool",
      "outputs": [],
      "stateMutability": "nonpayable",
      "type": "function"
    },
    {
      "inputs": [
        {
          "internalType": "uint256",
          "name": "_poolId",
          "type": "uint256"
        }
      ],
      "name": "DeactivatePool",
      "outputs": [],
      "stateMutability": "nonpayable",
      "type": "function"
    },
    {
      "inputs": [],
      "name": "Fee",
      "outputs": [
        {
          "internalType": "uint256",
          "name": "",
          "type": "uint256"
        }
      ],
      "stateMutability": "view",
      "type": "function"
    },
    {
      "inputs": [],
      "name": "FeeToken",
      "outputs": [
        {
          "internalType": "address",
          "name": "",
          "type": "address"
        }
      ],
      "stateMutability": "view",
      "type": "function"
    },
    {
      "inputs": [
        {
          "internalType": "uint256",
          "name": "_poolId",
          "type": "uint256"
        }
      ],
      "name": "GetKeys",
      "outputs": [
        {
          "internalType": "string[]",
          "name": "",
          "type": "string[]"
        }
      ],
      "stateMutability": "view",
      "type": "function"
    },
    {
      "inputs": [
        {
          "internalType": "uint256",
          "name": "_poolId",
          "type": "uint256"
        },
        {
          "internalType": "uint256",
          "name": "_signUpId",
          "type": "uint256"
        }
      ],
      "name": "GetValues",
      "outputs": [
        {
          "internalType": "string[]",
          "name": "",
          "type": "string[]"
        }
      ],
      "stateMutability": "view",
      "type": "function"
    },
    {
      "inputs": [],
      "name": "GovernerContract",
      "outputs": [
        {
          "internalType": "address",
          "name": "",
          "type": "address"
        }
      ],
      "stateMutability": "view",
      "type": "function"
    },
    {
      "inputs": [],
      "name": "Pause",
      "outputs": [],
      "stateMutability": "nonpayable",
      "type": "function"
    },
    {
      "inputs": [
        {
          "internalType": "uint256",
          "name": "_fee",
          "type": "uint256"
        }
      ],
      "name": "PayFee",
      "outputs": [],
      "stateMutability": "payable",
      "type": "function"
    },
    {
      "inputs": [
        {
          "internalType": "address",
          "name": "_token",
          "type": "address"
        },
        {
          "internalType": "string[]",
          "name": "_keys",
          "type": "string[]"
        },
        {
          "internalType": "uint256",
          "name": "_fee",
          "type": "uint256"
        }
      ],
      "name": "Register",
      "outputs": [],
      "stateMutability": "payable",
      "type": "function"
    },
    {
      "inputs": [
        {
          "internalType": "uint256",
          "name": "",
          "type": "uint256"
        }
      ],
      "name": "RegistrationPools",
      "outputs": [
        {
          "internalType": "address",
          "name": "Owner",
          "type": "address"
        },
        {
          "internalType": "bool",
          "name": "IsActive",
          "type": "bool"
        },
        {
          "internalType": "contract FeeBaseHelper",
          "name": "FeeProvider",
          "type": "address"
        },
        {
          "internalType": "uint256",
          "name": "UserSignUps",
          "type": "uint256"
        },
        {
          "internalType": "uint256",
          "name": "TotalKeys",
          "type": "uint256"
        }
      ],
      "stateMutability": "view",
      "type": "function"
    },
    {
      "inputs": [],
      "name": "Reserve",
      "outputs": [
        {
          "internalType": "uint256",
          "name": "",
          "type": "uint256"
        }
      ],
      "stateMutability": "view",
      "type": "function"
    },
    {
      "inputs": [
        {
          "internalType": "uint256",
          "name": "_amount",
          "type": "uint256"
        }
      ],
      "name": "SetFeeAmount",
      "outputs": [],
      "stateMutability": "nonpayable",
      "type": "function"
    },
    {
      "inputs": [
        {
          "internalType": "address",
          "name": "_token",
          "type": "address"
        }
      ],
      "name": "SetFeeToken",
      "outputs": [],
      "stateMutability": "nonpayable",
      "type": "function"
    },
    {
      "inputs": [
        {
          "internalType": "uint256",
          "name": "_poolId",
          "type": "uint256"
        },
        {
          "internalType": "address",
          "name": "_token",
          "type": "address"
        },
        {
          "internalType": "uint256",
          "name": "_price",
          "type": "uint256"
        }
      ],
      "name": "SetRegisterFee",
      "outputs": [],
      "stateMutability": "nonpayable",
      "type": "function"
    },
    {
      "inputs": [],
      "name": "TotalPools",
      "outputs": [
        {
          "internalType": "uint256",
          "name": "",
          "type": "uint256"
        }
      ],
      "stateMutability": "view",
      "type": "function"
    },
    {
      "inputs": [],
      "name": "Unpause",
      "outputs": [],
      "stateMutability": "nonpayable",
      "type": "function"
    },
    {
      "inputs": [
        {
          "internalType": "address payable",
          "name": "_to",
          "type": "address"
        }
      ],
      "name": "WithdrawFee",
      "outputs": [],
      "stateMutability": "nonpayable",
      "type": "function"
    },
    {
      "inputs": [
        {
          "internalType": "uint256",
          "name": "_poolId",
          "type": "uint256"
        }
      ],
      "name": "WithdrawPoolFee",
      "outputs": [],
      "stateMutability": "nonpayable",
      "type": "function"
    },
    {
      "inputs": [],
      "name": "owner",
      "outputs": [
        {
          "internalType": "address",
          "name": "",
          "type": "address"
        }
      ],
      "stateMutability": "view",
      "type": "function"
    },
    {
      "inputs": [],
      "name": "paused",
      "outputs": [
        {
          "internalType": "bool",
          "name": "",
          "type": "bool"
        }
      ],
      "stateMutability": "view",
      "type": "function"
    },
    {
      "inputs": [],
      "name": "renounceOwnership",
      "outputs": [],
      "stateMutability": "nonpayable",
      "type": "function"
    },
    {
      "inputs": [
        {
          "internalType": "address",
          "name": "_address",
          "type": "address"
        }
      ],
      "name": "setGovernerContract",
      "outputs": [],
      "stateMutability": "nonpayable",
      "type": "function"
    },
    {
      "inputs": [
        {
          "internalType": "address",
          "name": "newOwner",
          "type": "address"
        }
      ],
      "name": "transferOwnership",
      "outputs": [],
      "stateMutability": "nonpayable",
      "type": "function"
    },
    {
      "inputs": [
        {
          "internalType": "uint256",
          "name": "_poolId",
          "type": "uint256"
        },
        {
          "internalType": "string[]",
          "name": "_values",
          "type": "string[]"
        }
      ],
      "name": "SignUp",
      "outputs": [],
      "stateMutability": "payable",
      "type": "function"
    },
    {
      "inputs": [
        {
          "internalType": "uint256",
          "name": "_poolId",
          "type": "uint256"
        },
        {
          "internalType": "uint256",
          "name": "_signUpId",
          "type": "uint256"
        },
        {
          "internalType": "string[]",
          "name": "_values",
          "type": "string[]"
        }
      ],
      "name": "EditValues",
      "outputs": [],
      "stateMutability": "nonpayable",
      "type": "function"
    },
    {
      "inputs": [
        {
          "internalType": "uint256",
          "name": "_poolId",
          "type": "uint256"
        }
      ],
      "name": "GetAllMySignUpIds",
      "outputs": [
        {
          "internalType": "uint256[]",
          "name": "",
          "type": "uint256[]"
        }
      ],
      "stateMutability": "view",
      "type": "function"
    }
  ],
  "bytecode": "0x60806040523480156200001157600080fd5b506000600260006101000a81548160ff0219169083151502179055506200004d620000416200009560201b60201c565b6200009d60201b60201c565b6000600360006101000a81548173ffffffffffffffffffffffffffffffffffffffff021916908373ffffffffffffffffffffffffffffffffffffffff16021790555062000163565b600033905090565b6000600260019054906101000a900473ffffffffffffffffffffffffffffffffffffffff16905081600260016101000a81548173ffffffffffffffffffffffffffffffffffffffff021916908373ffffffffffffffffffffffffffffffffffffffff1602179055508173ffffffffffffffffffffffffffffffffffffffff168173ffffffffffffffffffffffffffffffffffffffff167f8be0079c531659141344cd1fd0a4f28419497f9722a3daafe3b4186f6b6457e060405160405180910390a35050565b61895880620001736000396000f3fe608060405260043610620001d65760003560e01c8063715018a611620001035780638da5cb5b1162000097578063cda95d80116200006d578063cda95d80146200060d578063d854f702146200063d578063da0ff68c146200066b578063f2fde38b146200068b57620001d6565b80638da5cb5b146200057f578063a88c76ae14620005af578063bef7a2f014620005dd57620001d6565b80637b51035411620000d95780637b510354146200049b5780637cca7bfb14620004df5780638585117b146200050d5780638d0999d1146200053b57620001d6565b8063715018a614620004395780637805862f14620004535780637b26fddf146200046d57620001d6565b80633aa0d15d116200017b5780635c975abb11620001515780635c975abb14620003a15780636681896714620003d15780636985a02214620003ff578063714d6077146200041957620001d6565b80633aa0d15d1462000313578063424b93111462000341578063481531e9146200037157620001d6565b806316dbc31e11620001b157806316dbc31e146200027d578063273b3b29146200029d5780633145ffbc14620002e557620001d6565b80630842bcbb14620001db5780630cd8e96514620002095780630d978c461462000239575b600080fd5b348015620001e857600080fd5b506200020760048036038101906200020191906200635f565b620006b9565b005b3480156200021657600080fd5b5062000221620008d8565b60405162000230919062006389565b60405180910390f35b3480156200024657600080fd5b506200026560048036038101906200025f9190620063b0565b620008fe565b604051620002749190620063cd565b60405180910390f35b6200029b6004803603810190620002959190620065d5565b620010c6565b005b348015620002aa57600080fd5b50620002c96004803603810190620002c39190620063b0565b62001b99565b604051620002dc95949392919062006620565b60405180910390f35b348015620002f257600080fd5b506200031160048036038101906200030b919062006669565b62001c1c565b005b3480156200032057600080fd5b506200033f6004803603810190620003399190620066bd565b6200274e565b005b3480156200034e57600080fd5b50620003596200294d565b604051620003689190620066e7565b60405180910390f35b3480156200037e57600080fd5b506200038962002953565b60405162000398919062006389565b60405180910390f35b348015620003ae57600080fd5b50620003b962002979565b604051620003c89190620066f8565b60405180910390f35b348015620003de57600080fd5b50620003fd6004803603810190620003f791906200635f565b62002990565b005b3480156200040c57600080fd5b506200041762002aa7565b005b6200043760048036038101906200043191906200670b565b62002c10565b005b3480156200044657600080fd5b50620004516200377b565b005b3480156200046057600080fd5b506200046b62003793565b005b3480156200047a57600080fd5b506200049960048036038101906200049391906200676c565b620038fc565b005b348015620004a857600080fd5b50620004c76004803603810190620004c19190620063b0565b62004187565b604051620004d6919062006861565b60405180910390f35b348015620004ec57600080fd5b506200050b6004803603810190620005059190620063b0565b62004466565b005b3480156200051a57600080fd5b50620005396004803603810190620005339190620063b0565b62004a5d565b005b3480156200054857600080fd5b506200056760048036038101906200056191906200687e565b62005054565b60405162000576919062006861565b60405180910390f35b3480156200058c57600080fd5b5062000597620054ba565b604051620005a6919062006389565b60405180910390f35b348015620005bc57600080fd5b50620005db6004803603810190620005d59190620063b0565b620054e4565b005b348015620005ea57600080fd5b50620005f562005872565b604051620006049190620066e7565b60405180910390f35b3480156200061a57600080fd5b506200062562005878565b604051620006349190620066e7565b60405180910390f35b3480156200064a57600080fd5b50620006696004803603810190620006639190620063b0565b6200587e565b005b620006896004803603810190620006839190620063b0565b620059df565b005b3480156200069857600080fd5b50620006b76004803603810190620006b191906200635f565b62005b16565b005b620006c3620054ba565b73ffffffffffffffffffffffffffffffffffffffff163373ffffffffffffffffffffffffffffffffffffffff1614806200074a5750600360009054906101000a900473ffffffffffffffffffffffffffffffffffffffff1673ffffffffffffffffffffffffffffffffffffffff163373ffffffffffffffffffffffffffffffffffffffff16145b6200078c576040517f08c379a00000000000000000000000000000000000000000000000000000000081526004016200078390620068a4565b60405180910390fd5b8073ffffffffffffffffffffffffffffffffffffffff16600560009054906101000a900473ffffffffffffffffffffffffffffffffffffffff1673ffffffffffffffffffffffffffffffffffffffff16036200081f576040517f08c379a00000000000000000000000000000000000000000000000000000000081526004016200081690620068e2565b60405180910390fd5b60006006541115620008375762000836326200274e565b5b7f2a649a96ed014013ba4748bc2952462a2adb0707fb5a2f30ff1f9041425f168f81600560009054906101000a900473ffffffffffffffffffffffffffffffffffffffff166040516200088c92919062006920565b60405180910390a180600560006101000a81548173ffffffffffffffffffffffffffffffffffffffff021916908373ffffffffffffffffffffffffffffffffffffffff16021790555050565b600360009054906101000a900473ffffffffffffffffffffffffffffffffffffffff1681565b6060816200092f7f611b3635146a2046a9f124f2c5b417c37beea3517b600d637a3d4d2f5f07102560001b62005ba0565b6200095d7f518ab2111ab5580214bc1e2d88941203cf839b22e276ca24b02e653b842981e260001b62005ba0565b6200098b7fcc7512cde8e870116f6ea4a30ac03e8342b2df8ec51037648bf7952ddcedb1dd60001b62005ba0565b620009b97f442639ff98000aab290673149e0abf15c16854310a9fd51758d9c9627a6fd36660001b62005ba0565b600154811062000a00576040517f08c379a0000000000000000000000000000000000000000000000000000000008152600401620009f79062006952565b60405180910390fd5b62000a2e7f2eb7ab22c509ca42c1a11cebe931bb43846816ca6cc5e0f6825cf5cff97c752460001b62005ba0565b62000a5c7f1911058c05ce9212f607c9258533e10bb3dc888bcc9c4a48ffe6506bbc6d054a60001b62005ba0565b62000a8a7f0a68e93b072e0f2509cb48bbc71552b156a87116b91e8ca3ed34d663926f13b260001b62005ba3565b62000ab87feec891dd98ad22ed8b7cf50f7da3100748f4222a96573c19b2b816ece06fc6df60001b62005ba3565b62000ae67f22ccb5d8584388d22d9e8bc10d61b48e9366223e613815bf8d8563d4c5d319fc60001b62005ba3565b600062000b167feab7d485beac97868ce121f66a0f016db472def5990714d6c49796434975c1e060001b62005ba3565b62000b447f8b6d4e455f0a9d8fa1d4ebdecea9f3340d055e62df740cda15ee318fb264018e60001b62005ba3565b60005b6000808681526020019081526020016000206003015481101562000cf55762000b937f3e3f3a5e212e5615c53d88ec6aa33018d84f218a491a911619ea785e060ebdb160001b62005ba3565b62000bc17fb86dd2ca1fe77295a27ab83fff0b408f71e7452cc5c11342e1b7743b429795e260001b62005ba3565b3373ffffffffffffffffffffffffffffffffffffffff16600080878152602001908152602001600020600501600083815260200190815260200160002060000160009054906101000a900473ffffffffffffffffffffffffffffffffffffffff1673ffffffffffffffffffffffffffffffffffffffff160362000cb05762000c6c7f660707973141f26f654dde01b9a332ea241014010c3d525c88474bac2970b4dc60001b62005ba3565b62000c9a7f6145ce116645fa8d0fe2396e7f96a8adb5bd2d7afd5af09b8d44898c9eac992060001b62005ba3565b818062000ca790620069bf565b92505062000cdf565b62000cde7f98b982ed8d7cac5eee8114e22a3e2a7ebe635260475f1a0f845e5cbf839123f560001b62005ba3565b5b808062000cec90620069bf565b91505062000b47565b5062000d247f7ff0dc918847f61b9558210e87a9e33a68fa534d14561b92be46c6ade2ba3d8a60001b62005ba3565b62000d527f3c11692c8228fd6f20f77fd1a29f77dd2e7dae4f65dcd92b6c873ad995c6695960001b62005ba3565b60008167ffffffffffffffff81111562000d715762000d706200641c565b5b60405190808252806020026020018201604052801562000da05781602001602082028036833780820191505090505b50905062000dd17f1d9795010b5b60db282387f4c4c189a8f833bc2e96da4945f52599496466591760001b62005ba3565b62000dff7f2be457b789760eb5208907ecac953e65a6893fb58839f22d2aee016deeb6402260001b62005ba3565b600062000e2f7f0660a7d06a2d585e215ac9e090639499022963a12ba3974dbe1b260555f71f5160001b62005ba3565b62000e5d7f72af6191c708e8d664ebbc918a9ce7e11f6185ba54272ee9249de92828c76f7b60001b62005ba3565b60005b600080888152602001908152602001600020600301548110156200105d5762000eac7f66d4fb19880fa3b6b240c174baa6f2c2c6e46c18299e6e1e16f959891370704260001b62005ba3565b62000eda7f132b58873740c5e488fe018bf54d96f995a182745fe953373d3ad6b0dc74c9b460001b62005ba3565b3373ffffffffffffffffffffffffffffffffffffffff16600080898152602001908152602001600020600501600083815260200190815260200160002060000160009054906101000a900473ffffffffffffffffffffffffffffffffffffffff1673ffffffffffffffffffffffffffffffffffffffff1603620010185762000f857f2bd0a0b0b1a669e2d0f028091372a3020f9375a82f664a364ffb4eb4e89d243160001b62005ba3565b62000fb37f5d3140e179783848e917bc7af02649bfb3e4517fbb280d8e9bc784a24eefc37660001b62005ba3565b62000fe17f29cd7d0f8367d908e8eb528072a4c1e27059e8d2e2598d5cb44ff3e822e53bbd60001b62005ba3565b8083838062000ff090620069bf565b945081518110620010065762001005620069ff565b5b60200260200101818152505062001047565b620010467f2f0961549ba1bdad8adb3b10fa65ee878df4f04bc1e3115ba6e73516acb2027760001b62005ba3565b5b80806200105490620069bf565b91505062000e60565b506200108c7feb9c6108ae9d0e75f3a715858af8aa32cc0f132e6882243d9e5f5ebd2cc0508560001b62005ba3565b620010ba7f7717f39bb21775ee5bd46e715371b83e3effa9fc8190d0bb15a4cf27dbbb19da60001b62005ba3565b81945050505050919050565b620010d062005ba6565b81620010ff7f611b3635146a2046a9f124f2c5b417c37beea3517b600d637a3d4d2f5f07102560001b62005ba0565b6200112d7f518ab2111ab5580214bc1e2d88941203cf839b22e276ca24b02e653b842981e260001b62005ba0565b6200115b7fcc7512cde8e870116f6ea4a30ac03e8342b2df8ec51037648bf7952ddcedb1dd60001b62005ba0565b620011897f442639ff98000aab290673149e0abf15c16854310a9fd51758d9c9627a6fd36660001b62005ba0565b6001548110620011d0576040517f08c379a0000000000000000000000000000000000000000000000000000000008152600401620011c79062006952565b60405180910390fd5b620011fe7f2eb7ab22c509ca42c1a11cebe931bb43846816ca6cc5e0f6825cf5cff97c752460001b62005ba0565b6200122c7f1911058c05ce9212f607c9258533e10bb3dc888bcc9c4a48ffe6506bbc6d054a60001b62005ba0565b816200125b7f4cfee26a29f160885c40e615741edbecb77923e71bb57553d4b62797ea49a61060001b62005ba0565b620012897f87434e53cf619f2d5369bf121fd6e0a87e3b2b5fdc7ab3c4413f7a9e5283ab9260001b62005ba0565b620012b77f91139801d7817483bb7f077ffd0a3518353ba8e3ca8f948a4518108e6b6e8b1a60001b62005ba0565b620012e57f36dec73c72eaca7100b3c68663885ee40640d9eda209a0bc2b51d7e711af96a960001b62005ba0565b60008151116200132c576040517f08c379a0000000000000000000000000000000000000000000000000000000008152600401620013239062006a2e565b60405180910390fd5b6200135a7f12f7a294fcb05a9b741451e23378b91dc25506a8ff06f07b8b6c7387923b302960001b62005ba0565b620013887f4b1c0eafd7d3236f49e25fb95b1b8d39fbc5f37fc1ec96468747438413c2886960001b62005ba0565b836001620013b97ffe18cfd870336e71e208450b2be96a874de37f3673fdcf2a84a3308112738f4360001b62005ba0565b620013e77fd5ad7afe0721b0795eda03a11958652587babf34f386b4b5d59af0e56411fbee60001b62005ba0565b620014157f07d79caeb95ab90503f81ddc9dfb0c307d137e1040a6fff505139f391aa4c74360001b62005ba0565b620014437f1562be93b006500b4ab8dd5963b154bd710aa944636d1a23e585e6761eff48a860001b62005ba0565b80151560008084815260200190815260200160002060020160009054906101000a900460ff16151514620014ae576040517f08c379a0000000000000000000000000000000000000000000000000000000008152600401620014a59062006a6c565b60405180910390fd5b620014dc7f08b7c340549d0cb5ccd5eb0ea77f4a4e8691d565a2ce1b9c103347e3e65dac5560001b62005ba0565b6200150a7ffb1113cf871ebfee7476a284c84a268f46cddac632aafd8924423de89d11312f60001b62005ba0565b600080878152602001908152602001600020600101805480602002602001604051908101604052809291908181526020016000905b82821015620015f5578382906000526020600020018054620015619062006ad0565b80601f01602080910402602001604051908101604052809291908181526020018280546200158f9062006ad0565b8015620015e05780601f10620015b457610100808354040283529160200191620015e0565b820191906000526020600020905b815481529060010190602001808311620015c257829003601f168201915b5050505050815260200190600101906200153f565b5050505085620016287f8fb03530a5ea8b3c1ec9dba08fddba1d2524395e5fa5a917c9365ca8984ff72360001b62005ba0565b620016567f9f3f7dc29d8e65f3ad412f2470c50981aa4c0ec0298e982e55c3483ae5a295f360001b62005ba0565b620016847f5f7d802773beedd53015994ab16587c5d4724b3dee9c9e7d635533c64fea0a7d60001b62005ba0565b620016b27fd6bc236855fd48336223d901209760aeee556a5615945b7d355a01faa5738cdb60001b62005ba0565b8051825114620016f9576040517f08c379a0000000000000000000000000000000000000000000000000000000008152600401620016f09062006b29565b60405180910390fd5b620017277f212aa6de1ae83a0aa6176cda6442aca4481ee220e66497b8f904e3c41a0e8c9560001b62005ba0565b620017557f8ea0ba05c79f707e6a30ad03f6e9165f445aa70469c1a028f4c3d4edd182ab7d60001b62005ba0565b620017837f42a6b02848cc6c1a5a4d0bcbc146229b309cb2b73ee781a86b1026d38fab1ec060001b62005ba3565b620017b17f50fb1873cddab56b9db1b484e2abe26ad5d5adfe19fa758ece67f6de1d71a85660001b62005ba3565b620017df7fc2681dfc9c64dbdddd7c1a230f3c9cc5ab48565a8e08fa5c418030509a66e9db60001b62005ba3565b60008060008a81526020019081526020016000209050620018237fe456519ac997a6e1d331c8a63fd061082175d49846d82be22d194be54f37f35560001b62005ba3565b620018517ffe197297db1f38f09275fb5e6e2c0740898d41f429d9b4bbdedd546444a683d960001b62005ba3565b8060020160019054906101000a900473ffffffffffffffffffffffffffffffffffffffff1673ffffffffffffffffffffffffffffffffffffffff1663da0ff68c348360020160019054906101000a900473ffffffffffffffffffffffffffffffffffffffff1673ffffffffffffffffffffffffffffffffffffffff1663bef7a2f06040518163ffffffff1660e01b8152600401602060405180830381865afa15801562001902573d6000803e3d6000fd5b505050506040513d601f19601f8201168201806040525081019062001928919062006b8d565b6040518363ffffffff1660e01b8152600401620019469190620066e7565b6000604051808303818588803b1580156200196057600080fd5b505af115801562001975573d6000803e3d6000fd5b5050505050620019a87f4909dc666aeee193ab63bbc69ce4e173cde11773e920b5747a514b9cb1dd071d60001b62005ba3565b620019d67f8b08391eac53290c93881ba2f1e9422a73821533bbf4f338818e19b1217a9e3560001b62005ba3565b60405180608001604052803373ffffffffffffffffffffffffffffffffffffffff1681526020018a815260200182600301548152602001898152508160050160008360030154815260200190815260200160002060008201518160000160006101000a81548173ffffffffffffffffffffffffffffffffffffffff021916908373ffffffffffffffffffffffffffffffffffffffff1602179055506020820151816001015560408201518160020155606082015181600301908051906020019062001aa39291906200623e565b5090505062001ad57fd656a477a3e87c983968ca5a8e43a84c0bc8d283e3cd26dec710f89e9e6cce3a60001b62005ba3565b62001b037f0ab5dd115d7817b9627f86858eefed48b6f3bf9daa9bb03ec32f366480974a2660001b62005ba3565b7fbcccf93a6f10273a3911da01021252565162b09c3e2cfc2c89321783ca29938c8982600301548a60405162001b3c9392919062006baa565b60405180910390a162001b727f41a006d61994e17d7cadf87440b43f95bf9ca4349e5d5ea13a54f70ca0ef08aa60001b62005ba3565b80600301600081548092919062001b8990620069bf565b9190505550505050505050505050565b60006020528060005260406000206000915090508060000160009054906101000a900473ffffffffffffffffffffffffffffffffffffffff16908060020160009054906101000a900460ff16908060020160019054906101000a900473ffffffffffffffffffffffffffffffffffffffff16908060030154908060040154905085565b62001c2662005ba6565b8262001c557f611b3635146a2046a9f124f2c5b417c37beea3517b600d637a3d4d2f5f07102560001b62005ba0565b62001c837f518ab2111ab5580214bc1e2d88941203cf839b22e276ca24b02e653b842981e260001b62005ba0565b62001cb17fcc7512cde8e870116f6ea4a30ac03e8342b2df8ec51037648bf7952ddcedb1dd60001b62005ba0565b62001cdf7f442639ff98000aab290673149e0abf15c16854310a9fd51758d9c9627a6fd36660001b62005ba0565b600154811062001d26576040517f08c379a000000000000000000000000000000000000000000000000000000000815260040162001d1d9062006952565b60405180910390fd5b62001d547f2eb7ab22c509ca42c1a11cebe931bb43846816ca6cc5e0f6825cf5cff97c752460001b62005ba0565b62001d827f1911058c05ce9212f607c9258533e10bb3dc888bcc9c4a48ffe6506bbc6d054a60001b62005ba0565b838362001db27feff6237beedd337823f86fbc5a6ee4f22ebe6f58b0a5bcaa9ec0a2f917ee101f60001b62005ba0565b62001de07f843a13cf3fd57fd14273b72da06039bb6b9d9b82b06f45d8018aabe6f6da5acb60001b62005ba0565b62001e0e7f281d8fdab833cc3501d3ef42843fcf2b1c28027233681fc76ee9663790d5617860001b62005ba0565b62001e3c7f5cb8831e9d696354595292a092b6abf164ac95f56c66321e43e7676490476c0460001b62005ba0565b60008083815260200190815260200160002060030154811062001e96576040517f08c379a000000000000000000000000000000000000000000000000000000000815260040162001e8d9062006bd5565b60405180910390fd5b62001ec47f2778d8b47b0456cfc5aca1d9c436b2c88f6f01650348f9dd1991a51ed130db4a60001b62005ba0565b62001ef27f98f1f675b4229524f93ea8fa0d259c410b4abf27f5bc4a1f052788105d8bedb060001b62005ba0565b8362001f217f4cfee26a29f160885c40e615741edbecb77923e71bb57553d4b62797ea49a61060001b62005ba0565b62001f4f7f87434e53cf619f2d5369bf121fd6e0a87e3b2b5fdc7ab3c4413f7a9e5283ab9260001b62005ba0565b62001f7d7f91139801d7817483bb7f077ffd0a3518353ba8e3ca8f948a4518108e6b6e8b1a60001b62005ba0565b62001fab7f36dec73c72eaca7100b3c68663885ee40640d9eda209a0bc2b51d7e711af96a960001b62005ba0565b600081511162001ff2576040517f08c379a000000000000000000000000000000000000000000000000000000000815260040162001fe99062006a2e565b60405180910390fd5b620020207f12f7a294fcb05a9b741451e23378b91dc25506a8ff06f07b8b6c7387923b302960001b62005ba0565b6200204e7f4b1c0eafd7d3236f49e25fb95b1b8d39fbc5f37fc1ec96468747438413c2886960001b62005ba0565b86866200207e7fecb3f5203887837e44ba3ea4bef13dc1c96a78f5e31ee60a77a96da548366a6f60001b62005ba0565b620020ac7f6bf34ecf646274db02b1ee8c356d52e9b953faca60bf4ce8ded615a0be348f7a60001b62005ba0565b620020da7f9547dd96659e3445e45525109adace3ee229cfa28038701ae5ce440b0ad0c49160001b62005ba0565b620021087fd892de752fa9431cd1ff7d29bfc0a52df5e5d5926e14824b665743b84b7ca51560001b62005ba0565b3373ffffffffffffffffffffffffffffffffffffffff16600080848152602001908152602001600020600501600083815260200190815260200160002060000160009054906101000a900473ffffffffffffffffffffffffffffffffffffffff1673ffffffffffffffffffffffffffffffffffffffff1614620021c2576040517f08c379a0000000000000000000000000000000000000000000000000000000008152600401620021b99062006c13565b60405180910390fd5b620021f07fe5c30c5fcd2ea3257ce6ca20f59cdc0cf86f5437d8d3558535ce98f29fe6f7bc60001b62005ba0565b6200221e7f93930a514bd4b8b958df22908a6eacaeea5fc3fca0096260c673c8f6e5d376ad60001b62005ba0565b6000808a81526020019081526020016000206005016000898152602001908152602001600020600301805480602002602001604051908101604052809291908181526020016000905b828210156200231d578382906000526020600020018054620022899062006ad0565b80601f0160208091040260200160405190810160405280929190818152602001828054620022b79062006ad0565b8015620023085780601f10620022dc5761010080835404028352916020019162002308565b820191906000526020600020905b815481529060010190602001808311620022ea57829003601f168201915b50505050508152602001906001019062002267565b5050505087620023507f8fb03530a5ea8b3c1ec9dba08fddba1d2524395e5fa5a917c9365ca8984ff72360001b62005ba0565b6200237e7f9f3f7dc29d8e65f3ad412f2470c50981aa4c0ec0298e982e55c3483ae5a295f360001b62005ba0565b620023ac7f5f7d802773beedd53015994ab16587c5d4724b3dee9c9e7d635533c64fea0a7d60001b62005ba0565b620023da7fd6bc236855fd48336223d901209760aeee556a5615945b7d355a01faa5738cdb60001b62005ba0565b805182511462002421576040517f08c379a0000000000000000000000000000000000000000000000000000000008152600401620024189062006b29565b60405180910390fd5b6200244f7f212aa6de1ae83a0aa6176cda6442aca4481ee220e66497b8f904e3c41a0e8c9560001b62005ba0565b6200247d7f8ea0ba05c79f707e6a30ad03f6e9165f445aa70469c1a028f4c3d4edd182ab7d60001b62005ba0565b620024ab7f1792507e344bffd69c59d15503a765f130b2f3b63bf5fde0f119ebd78425a3d960001b62005ba3565b620024d97f983d5f4ac2af95e44e91b9fd065890c6dcaf13e29eb58f1c252267c773b560a360001b62005ba3565b620025077fa8bbd762126c0ce7c9ee418f1498ccd9bc189d61d854579f60c545480c52ab7560001b62005ba3565b60008060008d815260200190815260200160002060050160008c8152602001908152602001600020600301805480602002602001604051908101604052809291908181526020016000905b8282101562002608578382906000526020600020018054620025749062006ad0565b80601f0160208091040260200160405190810160405280929190818152602001828054620025a29062006ad0565b8015620025f35780601f10620025c757610100808354040283529160200191620025f3565b820191906000526020600020905b815481529060010190602001808311620025d557829003601f168201915b50505050508152602001906001019062002552565b5050505090506200263c7f77f3901aeb7577b245eaa022ca96010ec559ece7cee8a205a3f1434b2c9946f660001b62005ba3565b6200266a7fbb5b5907e0ee0594d5dfaff2f367a20408186733043dd1dafb6655bf0789628760001b62005ba3565b896000808e815260200190815260200160002060050160008d81526020019081526020016000206003019080519060200190620026a99291906200623e565b50620026d77e15ee37c7d19a947751d4781e47cc7d1d41cef0e4fa39036c7094fce7a1959960001b62005ba3565b620027057f3bdcee26df7f7136a99eebe29e29542197d608831ec4235fbf55b8e293ff1a3060001b62005ba3565b7fddd1fdab2242af0e621ea8680f3855447b25a5bd14ec2c60fbc2ca02d7ba9c328a826040516200273892919062006c51565b60405180910390a1505050505050505050505050565b62002758620054ba565b73ffffffffffffffffffffffffffffffffffffffff163373ffffffffffffffffffffffffffffffffffffffff161480620027df5750600360009054906101000a900473ffffffffffffffffffffffffffffffffffffffff1673ffffffffffffffffffffffffffffffffffffffff163373ffffffffffffffffffffffffffffffffffffffff16145b62002821576040517f08c379a00000000000000000000000000000000000000000000000000000000081526004016200281890620068a4565b60405180910390fd5b60006006541162002869576040517f08c379a0000000000000000000000000000000000000000000000000000000008152600401620028609062006c84565b60405180910390fd5b600073ffffffffffffffffffffffffffffffffffffffff16600560009054906101000a900473ffffffffffffffffffffffffffffffffffffffff1673ffffffffffffffffffffffffffffffffffffffff160362002910578073ffffffffffffffffffffffffffffffffffffffff166108fc6006549081150290604051600060405180830381858888f1935050505015801562002909573d6000803e3d6000fd5b5062002942565b62002941600560009054906101000a900473ffffffffffffffffffffffffffffffffffffffff168260065462005bf5565b5b600060068190555050565b60015481565b600560009054906101000a900473ffffffffffffffffffffffffffffffffffffffff1681565b6000600260009054906101000a900460ff16905090565b6200299a620054ba565b73ffffffffffffffffffffffffffffffffffffffff163373ffffffffffffffffffffffffffffffffffffffff16148062002a215750600360009054906101000a900473ffffffffffffffffffffffffffffffffffffffff1673ffffffffffffffffffffffffffffffffffffffff163373ffffffffffffffffffffffffffffffffffffffff16145b62002a63576040517f08c379a000000000000000000000000000000000000000000000000000000000815260040162002a5a90620068a4565b60405180910390fd5b80600360006101000a81548173ffffffffffffffffffffffffffffffffffffffff021916908373ffffffffffffffffffffffffffffffffffffffff16021790555050565b62002ab1620054ba565b73ffffffffffffffffffffffffffffffffffffffff163373ffffffffffffffffffffffffffffffffffffffff16148062002b385750600360009054906101000a900473ffffffffffffffffffffffffffffffffffffffff1673ffffffffffffffffffffffffffffffffffffffff163373ffffffffffffffffffffffffffffffffffffffff16145b62002b7a576040517f08c379a000000000000000000000000000000000000000000000000000000000815260040162002b7190620068a4565b60405180910390fd5b62002ba87f01114fcfb8c6d97891a0203e37c2bf14c19fd04422bca509d9568fe76af907f260001b62005d29565b62002bd67f66e97a007575e7d13f3fea337278a64d96137537b0a1eda0522556016fe5bb9560001b62005d29565b62002c047f380879c71b7665453b5723eee83aa5426d110652cef7b0b1d559c94fffaba80360001b62005d29565b62002c0e62005d2c565b565b62002c1a62005ba6565b8162002c497f4cfee26a29f160885c40e615741edbecb77923e71bb57553d4b62797ea49a61060001b62005ba0565b62002c777f87434e53cf619f2d5369bf121fd6e0a87e3b2b5fdc7ab3c4413f7a9e5283ab9260001b62005ba0565b62002ca57f91139801d7817483bb7f077ffd0a3518353ba8e3ca8f948a4518108e6b6e8b1a60001b62005ba0565b62002cd37f36dec73c72eaca7100b3c68663885ee40640d9eda209a0bc2b51d7e711af96a960001b62005ba0565b600081511162002d1a576040517f08c379a000000000000000000000000000000000000000000000000000000000815260040162002d119062006a2e565b60405180910390fd5b62002d487f12f7a294fcb05a9b741451e23378b91dc25506a8ff06f07b8b6c7387923b302960001b62005ba0565b62002d767f4b1c0eafd7d3236f49e25fb95b1b8d39fbc5f37fc1ec96468747438413c2886960001b62005ba0565b62002da47ff5f8c734816458a310dc25b34b459dd725cff461031f4aa1152211635a931cbc60001b62005d95565b62002dd27fee893318f4737aef1855e2616407c71caa790ca07a4c94ec4ccc4240b3a5d39a60001b62005d95565b62002e007fbd7864bcd562595475fd6b2ceb9b1c13293ce298206b98c7f4dd04d905477fbb60001b62005d95565b62002e0d600454620059df565b62002e3b7fe25a4ebb9a807216a7039385d9d7b9d399e81adc753c5dafe37e1cc746c2b68660001b62005d95565b62002e697f720768026bcc42fad81503dbf7433a3b83b09a9a676afdab50f4f4c483f0979460001b62005d95565b60008060006001548152602001908152602001600020905062002eaf7ffac370c519033fdc8e4df68fde127ac27c4203c561b144b7b31de71d5f291c8660001b62005d95565b62002edd7f65bb17ab9d0d648c5f13a8bc4bb854f4a70a482593dc5abb6333e13e34d287fc60001b62005d95565b338160000160006101000a81548173ffffffffffffffffffffffffffffffffffffffff021916908373ffffffffffffffffffffffffffffffffffffffff16021790555062002f4e7fbb63f3ae34e9da516863fea20a5643ad863ce4414af74fc2186b91498762666f60001b62005d95565b62002f7c7f118e07f2b8b1d1105cb7f733b2eb7edeb6759893ddd00897362acc00eb94f43660001b62005d95565b8381600101908051906020019062002f969291906200623e565b5062002fc57f5d3c1fdb40638287349869941f88100b21add94958653eeded6d99ca2251c29160001b62005d95565b62002ff37fc3fd1243f78c8250d080d40bea76b266bc5f4551c81064911080af7741d3c63860001b62005d95565b60018160020160006101000a81548160ff0219169083151502179055506200303e7fc969b2f87e2cb3696e3f529df4bf55ffa19c4c03da82a18f3dbb3b96d3445ce660001b62005d95565b6200306c7f0faf55d271ba486b5361cf429b7c9f3e75059e6820b58fc18f51d76b39886c1e60001b62005d95565b6040516200307a906200629e565b604051809103906000f08015801562003097573d6000803e3d6000fd5b508160020160016101000a81548173ffffffffffffffffffffffffffffffffffffffff021916908373ffffffffffffffffffffffffffffffffffffffff160217905550620031087fe8760b4d8c272d525980438aa43515dce4af1750e687aec616bc45f043369ca060001b62005d95565b620031367f75bc41b8960a796c3db4ff2f9cdea8284f6f2b9607876344afe91f8de53dfea460001b62005d95565b600081600301819055506200316e7f0beb0264052be45dc60fefb9276741579e79b188360945b19b3bed340277fa3060001b62005d95565b6200319c7fc35f7dd167f45b0ccc03398f6451dc04795c74da497584748e08287c40a5cddc60001b62005d95565b83518160040181905550620031d47fa38261f6e08841220634397d3abf15cdb768b8d14f01ba38088d530ee44912f160001b62005d95565b620032017e76646c9eee2e9d74bf93649c861a778e76a1c15d93b97aba2ff1c46a67c3a060001b62005d95565b600073ffffffffffffffffffffffffffffffffffffffff168573ffffffffffffffffffffffffffffffffffffffff16146200335957620032647fbf59b2da6c333e138e6e9fe2fb5f85de7ded3299cb1158096b0f6fd934707dd760001b62005d95565b620032927f400abf0d39dc63fd572c6bfc176f627019ace21aa14a7a682cba6b859ed25ef360001b62005d95565b620032c07fb9296212a61ee199d7794d70bb0a9427f74eb11c8ff4f97ee03d5b2e5208d30460001b62005d95565b8060020160019054906101000a900473ffffffffffffffffffffffffffffffffffffffff1673ffffffffffffffffffffffffffffffffffffffff16630842bcbb866040518263ffffffff1660e01b81526004016200331f919062006389565b600060405180830381600087803b1580156200333a57600080fd5b505af11580156200334f573d6000803e3d6000fd5b5050505062003388565b620033877f49aefa507218b8a3ff10a6acb506d97e4afd1792fba5df70047615f5c26993c260001b62005d95565b5b620033b67f38ab531c4df1127e9489a96a91260eebf7687942c9ad7a865740b81fc4b05ff460001b62005d95565b620033e47faf785bb1dbac4818490e7e3a85a70e946a3db420f5d8de71512c437a7d19ebf760001b62005d95565b6000831462003510576200341b7f6879be9b69a7d1cfc01e0e3b30316468e4524d65fe935a92d67b55a7134cf7e260001b62005d95565b620034497fc4d78f304e689d74039a77323d111b6ecad1a9920a95b4a31242e4e254730e6660001b62005d95565b620034777fefb798b1ed368aeba92072fd0caaae8b243cb722b6d5edc20c11a3778ab85b0560001b62005d95565b8060020160019054906101000a900473ffffffffffffffffffffffffffffffffffffffff1673ffffffffffffffffffffffffffffffffffffffff1663d854f702846040518263ffffffff1660e01b8152600401620034d69190620066e7565b600060405180830381600087803b158015620034f157600080fd5b505af115801562003506573d6000803e3d6000fd5b505050506200353f565b6200353e7f56e98075dde79d13d0e91a585a11de6b3443746d1b7800727ea864e4929c001760001b62005d95565b5b6200356d7fdb94fe93a1ee1ef54f2da382442490ec94a4aade09464ef2d60fb9d9f89e2c5b60001b62005d95565b6200359b7fffba3b410ddf8ecfad211a2ccf0dcb5a025064fefea9416e02204ef282def8cd60001b62005d95565b7f782f7ebdaa9e0aa1d0301632ee71c49f910993a2f17e76934317f1bf924fc12f600154858360000160009054906101000a900473ffffffffffffffffffffffffffffffffffffffff168460020160019054906101000a900473ffffffffffffffffffffffffffffffffffffffff1673ffffffffffffffffffffffffffffffffffffffff1663481531e96040518163ffffffff1660e01b8152600401602060405180830381865afa15801562003655573d6000803e3d6000fd5b505050506040513d601f19601f820116820180604052508101906200367b919062006cc2565b8560020160019054906101000a900473ffffffffffffffffffffffffffffffffffffffff1673ffffffffffffffffffffffffffffffffffffffff1663bef7a2f06040518163ffffffff1660e01b8152600401602060405180830381865afa158015620036eb573d6000803e3d6000fd5b505050506040513d601f19601f8201168201806040525081019062003711919062006b8d565b6040516200372495949392919062006cec565b60405180910390a16200375a7ff1bd2081a960a1f53550bda7336c41223c37be182cfa5e0f1139a20d270c724760001b62005d95565b600160008154809291906200376f90620069bf565b91905055505050505050565b6200378562005d98565b62003791600062005e1d565b565b6200379d620054ba565b73ffffffffffffffffffffffffffffffffffffffff163373ffffffffffffffffffffffffffffffffffffffff161480620038245750600360009054906101000a900473ffffffffffffffffffffffffffffffffffffffff1673ffffffffffffffffffffffffffffffffffffffff163373ffffffffffffffffffffffffffffffffffffffff16145b62003866576040517f08c379a00000000000000000000000000000000000000000000000000000000081526004016200385d90620068a4565b60405180910390fd5b620038947f46cc58194fb48441ea315d8bcfb2357bc067f8ca902523b8d5ce96221485961e60001b62005d29565b620038c27f0e87a9adeb45e63875085796f451ca241184d8a055f9812c536c04880c3955d960001b62005d29565b620038f07fbe0b3decab621fe336c01f6851c5651b8efb5fa5a4cc613c4013b1fac0ddb22860001b62005d29565b620038fa62005ee3565b565b6200390662005ba6565b82620039357f4e0759467fd661ae9a6a10f37dcfef8fe54f485cd0007653fa25a5263d8d5ef060001b62005ba0565b620039637fec7b5d8b4bc6144e663e4f1e5c38779b7cb2ed9eb075e196dc2bc50defe8d7ec60001b62005ba0565b620039917fcbabf71c04402477eff030d63534e5944202a79fd8752ca46834fb81f75b179f60001b62005ba0565b620039bf7f1a17aa52c6b059f03334572c62e20f855b0483a4ab6bdb9dd1a8cabfe85fe62060001b62005ba0565b3373ffffffffffffffffffffffffffffffffffffffff1660008083815260200190815260200160002060000160009054906101000a900473ffffffffffffffffffffffffffffffffffffffff1673ffffffffffffffffffffffffffffffffffffffff161462003a65576040517f08c379a000000000000000000000000000000000000000000000000000000000815260040162003a5c9062006d3f565b60405180910390fd5b62003a937fc55a674db616bc1d6a6fe73764c60df67eb3cef59eaff6a58559c1e6561b2e8d60001b62005ba0565b62003ac17f8f2dfc84d8e31a22dde438b6829f9c39ea2aa8cd2fd8e1562bf5fb08dac1e43160001b62005ba0565b8362003af07f611b3635146a2046a9f124f2c5b417c37beea3517b600d637a3d4d2f5f07102560001b62005ba0565b62003b1e7f518ab2111ab5580214bc1e2d88941203cf839b22e276ca24b02e653b842981e260001b62005ba0565b62003b4c7fcc7512cde8e870116f6ea4a30ac03e8342b2df8ec51037648bf7952ddcedb1dd60001b62005ba0565b62003b7a7f442639ff98000aab290673149e0abf15c16854310a9fd51758d9c9627a6fd36660001b62005ba0565b600154811062003bc1576040517f08c379a000000000000000000000000000000000000000000000000000000000815260040162003bb89062006952565b60405180910390fd5b62003bef7f2eb7ab22c509ca42c1a11cebe931bb43846816ca6cc5e0f6825cf5cff97c752460001b62005ba0565b62003c1d7f1911058c05ce9212f607c9258533e10bb3dc888bcc9c4a48ffe6506bbc6d054a60001b62005ba0565b62003c4b7f037bd594d04964452a8a9e7efa10f933d7476d4ac26378d97360229573d291e260001b62005d95565b62003c797f66e4d535c32e730ef9c5f1f503d53d9e11f7cd168367d2f6653fc73a50df62fa60001b62005d95565b62003ca77f5284ada3ce3338d7ca56cdfe5f0c21a9e11ec42cf518726919e187f949e32cec60001b62005d95565b6000806000878152602001908152602001600020905062003ceb7fab2f928cf1e1b43b5b184aca6d9c30cc3f3a8c3a9705e2aa4863dd7aeca91eb660001b62005d95565b62003d197f70901e40da6fd2eee1ad865f56be0f1240e1fef091f7f15563c75db04b3c608560001b62005d95565b8473ffffffffffffffffffffffffffffffffffffffff168160020160019054906101000a900473ffffffffffffffffffffffffffffffffffffffff1673ffffffffffffffffffffffffffffffffffffffff1663481531e96040518163ffffffff1660e01b8152600401602060405180830381865afa15801562003da0573d6000803e3d6000fd5b505050506040513d601f19601f8201168201806040525081019062003dc6919062006cc2565b73ffffffffffffffffffffffffffffffffffffffff161462003f055762003e107fce3d0a08b00a57ee19f5a086b575e82e9b49e22034ddafba30d963dc7da4699760001b62005d95565b62003e3e7fddb1add4e1abdb335f448bd161d3619a60351842cb0dfd416effa68d87a6837760001b62005d95565b62003e6c7f23c4209e76c09d7afe2b87ec5dfd82cd98174029498390330096ef81457f7ca260001b62005d95565b8060020160019054906101000a900473ffffffffffffffffffffffffffffffffffffffff1673ffffffffffffffffffffffffffffffffffffffff16630842bcbb866040518263ffffffff1660e01b815260040162003ecb919062006389565b600060405180830381600087803b15801562003ee657600080fd5b505af115801562003efb573d6000803e3d6000fd5b5050505062003f34565b62003f337f5980ce5b42bbe7c8d03b82a17bbb18882ce4c17e8107d7e1939b46d4f5cf5b1a60001b62005d95565b5b62003f627f1e5eb298783b0e128b802c123d22b9f832e626d84389e68cdc4d0dab7a752a1460001b62005d95565b62003f907f216fd14682be463c69b82b4423ec8fd3614e1bb4214d3672e4eda7bd55b72c3760001b62005d95565b838160020160019054906101000a900473ffffffffffffffffffffffffffffffffffffffff1673ffffffffffffffffffffffffffffffffffffffff1663bef7a2f06040518163ffffffff1660e01b8152600401602060405180830381865afa15801562004001573d6000803e3d6000fd5b505050506040513d601f19601f8201168201806040525081019062004027919062006b8d565b1462004150576200405b7f1612593b739bd68b21f87a9a272e4a6c865bf872101292fdf3b6f2900feb638860001b62005d95565b620040897f4c3902ba3e0299e7cf60d590f3c7186286bc6b0c2a4d4c86f7dc26756bdc651c60001b62005d95565b620040b77fec5da12e95d3aea67f91361d58fd6471f19d2fdf17bdc725038db3d3f6901c1460001b62005d95565b8060020160019054906101000a900473ffffffffffffffffffffffffffffffffffffffff1673ffffffffffffffffffffffffffffffffffffffff1663d854f702856040518263ffffffff1660e01b8152600401620041169190620066e7565b600060405180830381600087803b1580156200413157600080fd5b505af115801562004146573d6000803e3d6000fd5b505050506200417f565b6200417e7f2d7c89542519b66b17892141ecf71e8cbd83f70e434e77a050120748c8229ca460001b62005d95565b5b505050505050565b606081620041b87f611b3635146a2046a9f124f2c5b417c37beea3517b600d637a3d4d2f5f07102560001b62005ba0565b620041e67f518ab2111ab5580214bc1e2d88941203cf839b22e276ca24b02e653b842981e260001b62005ba0565b620042147fcc7512cde8e870116f6ea4a30ac03e8342b2df8ec51037648bf7952ddcedb1dd60001b62005ba0565b620042427f442639ff98000aab290673149e0abf15c16854310a9fd51758d9c9627a6fd36660001b62005ba0565b600154811062004289576040517f08c379a0000000000000000000000000000000000000000000000000000000008152600401620042809062006952565b60405180910390fd5b620042b77f2eb7ab22c509ca42c1a11cebe931bb43846816ca6cc5e0f6825cf5cff97c752460001b62005ba0565b620042e57f1911058c05ce9212f607c9258533e10bb3dc888bcc9c4a48ffe6506bbc6d054a60001b62005ba0565b620043137fb30c3a850bee7919fb9edbb9482690f3b50b84596102e3229a27541c46b923c760001b62005f4c565b620043417f9a6f5d43a99aaf198b27949604b37cdac11d64a37a6d477cf7c1c506738df87e60001b62005f4c565b6200436f7f4626901c6449ab742e7275f1cfd4964967c6ada510b940452df82eb7c6702d2460001b62005f4c565b600080848152602001908152602001600020600101805480602002602001604051908101604052809291908181526020016000905b828210156200445a578382906000526020600020018054620043c69062006ad0565b80601f0160208091040260200160405190810160405280929190818152602001828054620043f49062006ad0565b8015620044455780601f10620044195761010080835404028352916020019162004445565b820191906000526020600020905b8154815290600101906020018083116200442757829003601f168201915b505050505081526020019060010190620043a4565b50505050915050919050565b6200447062005ba6565b806200449f7f611b3635146a2046a9f124f2c5b417c37beea3517b600d637a3d4d2f5f07102560001b62005ba0565b620044cd7f518ab2111ab5580214bc1e2d88941203cf839b22e276ca24b02e653b842981e260001b62005ba0565b620044fb7fcc7512cde8e870116f6ea4a30ac03e8342b2df8ec51037648bf7952ddcedb1dd60001b62005ba0565b620045297f442639ff98000aab290673149e0abf15c16854310a9fd51758d9c9627a6fd36660001b62005ba0565b600154811062004570576040517f08c379a0000000000000000000000000000000000000000000000000000000008152600401620045679062006952565b60405180910390fd5b6200459e7f2eb7ab22c509ca42c1a11cebe931bb43846816ca6cc5e0f6825cf5cff97c752460001b62005ba0565b620045cc7f1911058c05ce9212f607c9258533e10bb3dc888bcc9c4a48ffe6506bbc6d054a60001b62005ba0565b81620045fb7f4e0759467fd661ae9a6a10f37dcfef8fe54f485cd0007653fa25a5263d8d5ef060001b62005ba0565b620046297fec7b5d8b4bc6144e663e4f1e5c38779b7cb2ed9eb075e196dc2bc50defe8d7ec60001b62005ba0565b620046577fcbabf71c04402477eff030d63534e5944202a79fd8752ca46834fb81f75b179f60001b62005ba0565b620046857f1a17aa52c6b059f03334572c62e20f855b0483a4ab6bdb9dd1a8cabfe85fe62060001b62005ba0565b3373ffffffffffffffffffffffffffffffffffffffff1660008083815260200190815260200160002060000160009054906101000a900473ffffffffffffffffffffffffffffffffffffffff1673ffffffffffffffffffffffffffffffffffffffff16146200472b576040517f08c379a0000000000000000000000000000000000000000000000000000000008152600401620047229062006d3f565b60405180910390fd5b620047597fc55a674db616bc1d6a6fe73764c60df67eb3cef59eaff6a58559c1e6561b2e8d60001b62005ba0565b620047877f8f2dfc84d8e31a22dde438b6829f9c39ea2aa8cd2fd8e1562bf5fb08dac1e43160001b62005ba0565b826000620047b87ffe18cfd870336e71e208450b2be96a874de37f3673fdcf2a84a3308112738f4360001b62005ba0565b620047e67fd5ad7afe0721b0795eda03a11958652587babf34f386b4b5d59af0e56411fbee60001b62005ba0565b620048147f07d79caeb95ab90503f81ddc9dfb0c307d137e1040a6fff505139f391aa4c74360001b62005ba0565b620048427f1562be93b006500b4ab8dd5963b154bd710aa944636d1a23e585e6761eff48a860001b62005ba0565b80151560008084815260200190815260200160002060020160009054906101000a900460ff16151514620048ad576040517f08c379a0000000000000000000000000000000000000000000000000000000008152600401620048a49062006a6c565b60405180910390fd5b620048db7f08b7c340549d0cb5ccd5eb0ea77f4a4e8691d565a2ce1b9c103347e3e65dac5560001b62005ba0565b620049097ffb1113cf871ebfee7476a284c84a268f46cddac632aafd8924423de89d11312f60001b62005ba0565b620049377fc6be12b2c871f82a61029334152c8957bdebaf63c053cabcc07c3b2b1ca1a7d760001b62005d95565b620049657f3f4bf7e8672750adf86da09cec55dc5640883233f7bd0d5c43150131bf3b02b660001b62005d95565b620049937f02cf4cdfb4e9f700187ecd5d7ecda2f4e1ed8d64e05719afa35468f0b5451f9260001b62005d95565b600160008087815260200190815260200160002060020160006101000a81548160ff021916908315150217905550620049ef7fdd10f70380b17ff2d1e40955ea5c8ed26d3ec98f21ff467433ee480c742dfca460001b62005d95565b62004a1d7fbf40e5d8cf3acc18277b6ea94679961cdd111f0d57020d74139be9e32aa0c0c560001b62005d95565b7f42d6ed1114dfc5ab05c2959fa0a8b1c5a9b1ad8610e05ffe5c0b2f91a96346778560405162004a4e9190620066e7565b60405180910390a15050505050565b62004a6762005ba6565b8062004a967f611b3635146a2046a9f124f2c5b417c37beea3517b600d637a3d4d2f5f07102560001b62005ba0565b62004ac47f518ab2111ab5580214bc1e2d88941203cf839b22e276ca24b02e653b842981e260001b62005ba0565b62004af27fcc7512cde8e870116f6ea4a30ac03e8342b2df8ec51037648bf7952ddcedb1dd60001b62005ba0565b62004b207f442639ff98000aab290673149e0abf15c16854310a9fd51758d9c9627a6fd36660001b62005ba0565b600154811062004b67576040517f08c379a000000000000000000000000000000000000000000000000000000000815260040162004b5e9062006952565b60405180910390fd5b62004b957f2eb7ab22c509ca42c1a11cebe931bb43846816ca6cc5e0f6825cf5cff97c752460001b62005ba0565b62004bc37f1911058c05ce9212f607c9258533e10bb3dc888bcc9c4a48ffe6506bbc6d054a60001b62005ba0565b8162004bf27f4e0759467fd661ae9a6a10f37dcfef8fe54f485cd0007653fa25a5263d8d5ef060001b62005ba0565b62004c207fec7b5d8b4bc6144e663e4f1e5c38779b7cb2ed9eb075e196dc2bc50defe8d7ec60001b62005ba0565b62004c4e7fcbabf71c04402477eff030d63534e5944202a79fd8752ca46834fb81f75b179f60001b62005ba0565b62004c7c7f1a17aa52c6b059f03334572c62e20f855b0483a4ab6bdb9dd1a8cabfe85fe62060001b62005ba0565b3373ffffffffffffffffffffffffffffffffffffffff1660008083815260200190815260200160002060000160009054906101000a900473ffffffffffffffffffffffffffffffffffffffff1673ffffffffffffffffffffffffffffffffffffffff161462004d22576040517f08c379a000000000000000000000000000000000000000000000000000000000815260040162004d199062006d3f565b60405180910390fd5b62004d507fc55a674db616bc1d6a6fe73764c60df67eb3cef59eaff6a58559c1e6561b2e8d60001b62005ba0565b62004d7e7f8f2dfc84d8e31a22dde438b6829f9c39ea2aa8cd2fd8e1562bf5fb08dac1e43160001b62005ba0565b82600162004daf7ffe18cfd870336e71e208450b2be96a874de37f3673fdcf2a84a3308112738f4360001b62005ba0565b62004ddd7fd5ad7afe0721b0795eda03a11958652587babf34f386b4b5d59af0e56411fbee60001b62005ba0565b62004e0b7f07d79caeb95ab90503f81ddc9dfb0c307d137e1040a6fff505139f391aa4c74360001b62005ba0565b62004e397f1562be93b006500b4ab8dd5963b154bd710aa944636d1a23e585e6761eff48a860001b62005ba0565b80151560008084815260200190815260200160002060020160009054906101000a900460ff1615151462004ea4576040517f08c379a000000000000000000000000000000000000000000000000000000000815260040162004e9b9062006a6c565b60405180910390fd5b62004ed27f08b7c340549d0cb5ccd5eb0ea77f4a4e8691d565a2ce1b9c103347e3e65dac5560001b62005ba0565b62004f007ffb1113cf871ebfee7476a284c84a268f46cddac632aafd8924423de89d11312f60001b62005ba0565b62004f2e7f417cdb24f8eb702924659f36f7222979ab730e6a311134709b9c6dc093d29d8c60001b62005d95565b62004f5c7f3763f5082fa21bb65b7e66550485f793927a178ca523189682c1cf7b0bba50bf60001b62005d95565b62004f8a7f3b8055f4f98cfd6f4cf63d9d91c21519ff6343878e1b797f44421c0fa1843ca460001b62005d95565b600080600087815260200190815260200160002060020160006101000a81548160ff02191690831515021790555062004fe67ffbaee06367eaf7db1d8f39f4e72101857fd0c4833615f37706f1a00fa3404d8560001b62005d95565b620050147f48e4f2aa7ca40cfe4cc80d7eb1dd1a3f12b97e3ea91cf55332e133a03379b54060001b62005d95565b7fb1df4c80c5e68c00df5906eafbf0f0e76a245ec0d94f39a3ac5a019bc745c46a85604051620050459190620066e7565b60405180910390a15050505050565b606082620050857f611b3635146a2046a9f124f2c5b417c37beea3517b600d637a3d4d2f5f07102560001b62005ba0565b620050b37f518ab2111ab5580214bc1e2d88941203cf839b22e276ca24b02e653b842981e260001b62005ba0565b620050e17fcc7512cde8e870116f6ea4a30ac03e8342b2df8ec51037648bf7952ddcedb1dd60001b62005ba0565b6200510f7f442639ff98000aab290673149e0abf15c16854310a9fd51758d9c9627a6fd36660001b62005ba0565b600154811062005156576040517f08c379a00000000000000000000000000000000000000000000000000000000081526004016200514d9062006952565b60405180910390fd5b620051847f2eb7ab22c509ca42c1a11cebe931bb43846816ca6cc5e0f6825cf5cff97c752460001b62005ba0565b620051b27f1911058c05ce9212f607c9258533e10bb3dc888bcc9c4a48ffe6506bbc6d054a60001b62005ba0565b8383620051e27feff6237beedd337823f86fbc5a6ee4f22ebe6f58b0a5bcaa9ec0a2f917ee101f60001b62005ba0565b620052107f843a13cf3fd57fd14273b72da06039bb6b9d9b82b06f45d8018aabe6f6da5acb60001b62005ba0565b6200523e7f281d8fdab833cc3501d3ef42843fcf2b1c28027233681fc76ee9663790d5617860001b62005ba0565b6200526c7f5cb8831e9d696354595292a092b6abf164ac95f56c66321e43e7676490476c0460001b62005ba0565b600080838152602001908152602001600020600301548110620052c6576040517f08c379a0000000000000000000000000000000000000000000000000000000008152600401620052bd9062006bd5565b60405180910390fd5b620052f47f2778d8b47b0456cfc5aca1d9c436b2c88f6f01650348f9dd1991a51ed130db4a60001b62005ba0565b620053227f98f1f675b4229524f93ea8fa0d259c410b4abf27f5bc4a1f052788105d8bedb060001b62005ba0565b620053507f6cb8c9f5dc382d33e6fa20b72f52c9480c84b6e2202acbd9fd694e759b4bf2d460001b62005f4c565b6200537e7f386e6e0095835b6f4b7ba909664bf7b628cb79cbe89a2cf31fc3a190d9e6388360001b62005f4c565b620053ac7f80b2e3e939214874a7b3c346459505baef7ef89a483fe899e301990b1921810660001b62005f4c565b6000808781526020019081526020016000206005016000868152602001908152602001600020600301805480602002602001604051908101604052809291908181526020016000905b82821015620054ab578382906000526020600020018054620054179062006ad0565b80601f0160208091040260200160405190810160405280929190818152602001828054620054459062006ad0565b8015620054965780601f106200546a5761010080835404028352916020019162005496565b820191906000526020600020905b8154815290600101906020018083116200547857829003601f168201915b505050505081526020019060010190620053f5565b50505050935050505092915050565b6000600260019054906101000a900473ffffffffffffffffffffffffffffffffffffffff16905090565b620054ee62005ba6565b806200551d7f4e0759467fd661ae9a6a10f37dcfef8fe54f485cd0007653fa25a5263d8d5ef060001b62005ba0565b6200554b7fec7b5d8b4bc6144e663e4f1e5c38779b7cb2ed9eb075e196dc2bc50defe8d7ec60001b62005ba0565b620055797fcbabf71c04402477eff030d63534e5944202a79fd8752ca46834fb81f75b179f60001b62005ba0565b620055a77f1a17aa52c6b059f03334572c62e20f855b0483a4ab6bdb9dd1a8cabfe85fe62060001b62005ba0565b3373ffffffffffffffffffffffffffffffffffffffff1660008083815260200190815260200160002060000160009054906101000a900473ffffffffffffffffffffffffffffffffffffffff1673ffffffffffffffffffffffffffffffffffffffff16146200564d576040517f08c379a0000000000000000000000000000000000000000000000000000000008152600401620056449062006d3f565b60405180910390fd5b6200567b7fc55a674db616bc1d6a6fe73764c60df67eb3cef59eaff6a58559c1e6561b2e8d60001b62005ba0565b620056a97f8f2dfc84d8e31a22dde438b6829f9c39ea2aa8cd2fd8e1562bf5fb08dac1e43160001b62005ba0565b620056d77fed37f7bad0e271d8a2e10da36f9867baa6e48404172bded8565f0c829d9bc46f60001b62005d95565b620057057fb54f715af7fd1c1259e316c35505d6e762b8057b7b41f1486d5c0fd7f0c25cdb60001b62005d95565b620057337f45b5a3d00c6d4c7d81418ec38ea663ab11f2722c1bddbe5a406768c447eaaf4260001b62005d95565b600080600084815260200190815260200160002060020160019054906101000a900473ffffffffffffffffffffffffffffffffffffffff1690506200579b7f3c6b8da41f943d59562950af969736f679d45bc01aa65d1c28e91b29d098fd0260001b62005d95565b620057c97f95430473c2612c8f4aaa6ee653bbe8581c3aeeb71ccd850b5cdefa6d7d94091060001b62005d95565b8073ffffffffffffffffffffffffffffffffffffffff16633aa0d15d60008086815260200190815260200160002060000160009054906101000a900473ffffffffffffffffffffffffffffffffffffffff166040518263ffffffff1660e01b815260040162005839919062006d7d565b600060405180830381600087803b1580156200585457600080fd5b505af115801562005869573d6000803e3d6000fd5b50505050505050565b60045481565b60065481565b62005888620054ba565b73ffffffffffffffffffffffffffffffffffffffff163373ffffffffffffffffffffffffffffffffffffffff1614806200590f5750600360009054906101000a900473ffffffffffffffffffffffffffffffffffffffff1673ffffffffffffffffffffffffffffffffffffffff163373ffffffffffffffffffffffffffffffffffffffff16145b62005951576040517f08c379a00000000000000000000000000000000000000000000000000000000081526004016200594890620068a4565b60405180910390fd5b806004540362005998576040517f08c379a00000000000000000000000000000000000000000000000000000000081526004016200598f9062006da4565b60405180910390fd5b7f9d7f8f903b5290796d6b981141519d69dacf3b8bc9d0a19fabd782e73e88619181600454604051620059cd92919062006de2565b60405180910390a18060048190555050565b600081031562005b1357600073ffffffffffffffffffffffffffffffffffffffff16600560009054906101000a900473ffffffffffffffffffffffffffffffffffffffff1673ffffffffffffffffffffffffffffffffffffffff160362005ac7578034101562005a86576040517f08c379a000000000000000000000000000000000000000000000000000000000815260040162005a7d9062006dfa565b60405180910390fd5b7f3a32cdd14cdfd431946dfa0b2aef5ace661340411aaadcaee6aef6738d302326343260405162005ab992919062006e38565b60405180910390a162005af7565b62005af6600560009054906101000a900473ffffffffffffffffffffffffffffffffffffffff16328362005f4f565b5b806006600082825462005b0b919062006e66565b925050819055505b50565b62005b2062005d98565b600073ffffffffffffffffffffffffffffffffffffffff168173ffffffffffffffffffffffffffffffffffffffff160362005b92576040517f08c379a000000000000000000000000000000000000000000000000000000000815260040162005b899062006e88565b60405180910390fd5b62005b9d8162005e1d565b50565b50565b50565b62005bb062002979565b1562005bf3576040517f08c379a000000000000000000000000000000000000000000000000000000000815260040162005bea9062006eec565b60405180910390fd5b565b600062005c0384306200615f565b90507fe4d818e6f992efbd60db553f3edce819a199baec79a784b95c89bc8ee86f258482848660405162005c3a9392919062006f2a565b60405180910390a18373ffffffffffffffffffffffffffffffffffffffff1663a9059cbb84846040518363ffffffff1660e01b815260040162005c7f92919062006f63565b6020604051808303816000875af115801562005c9f573d6000803e3d6000fd5b505050506040513d601f19601f8201168201806040525081019062005cc5919062006f91565b50808262005cd486306200615f565b62005ce0919062006e66565b1462005d23576040517f08c379a000000000000000000000000000000000000000000000000000000000815260040162005d1a9062006fbf565b60405180910390fd5b50505050565b50565b62005d3662005ba6565b6001600260006101000a81548160ff0219169083151502179055507f62e78cea01bee320cd4e420270b5ea74000d11b0c9f74754ebdbfc544b05a25862005d7c620061e8565b60405162005d8b919062006389565b60405180910390a1565b50565b62005da2620061e8565b73ffffffffffffffffffffffffffffffffffffffff1662005dc2620054ba565b73ffffffffffffffffffffffffffffffffffffffff161462005e1b576040517f08c379a000000000000000000000000000000000000000000000000000000000815260040162005e129062006ffd565b60405180910390fd5b565b6000600260019054906101000a900473ffffffffffffffffffffffffffffffffffffffff16905081600260016101000a81548173ffffffffffffffffffffffffffffffffffffffff021916908373ffffffffffffffffffffffffffffffffffffffff1602179055508173ffffffffffffffffffffffffffffffffffffffff168173ffffffffffffffffffffffffffffffffffffffff167f8be0079c531659141344cd1fd0a4f28419497f9722a3daafe3b4186f6b6457e060405160405180910390a35050565b62005eed620061f0565b6000600260006101000a81548160ff0219169083151502179055507f5db9ee0a495bf2e6ff9c91a7834c1ba4fdd244a5e8aa4e537bd38aeae4b073aa62005f33620061e8565b60405162005f42919062006389565b60405180910390a1565b50565b828282808373ffffffffffffffffffffffffffffffffffffffff1663dd62ed3e84306040518363ffffffff1660e01b815260040162005f9092919062006920565b602060405180830381865afa15801562005fae573d6000803e3d6000fd5b505050506040513d601f19601f8201168201806040525081019062005fd4919062006b8d565b101562006018576040517f08c379a00000000000000000000000000000000000000000000000000000000081526004016200600f906200703a565b60405180910390fd5b600084116200602657600080fd5b60006200603487306200615f565b90508673ffffffffffffffffffffffffffffffffffffffff166323b872dd8730886040518463ffffffff1660e01b8152600401620060759392919062007078565b6020604051808303816000875af115801562006095573d6000803e3d6000fd5b505050506040513d601f19601f82011682018060405250810190620060bb919062006f91565b507f1fecf4702e692891a7c2f0d328779b085efb5edd094fa5558bd5cd147a167922858789604051620060f19392919062006f2a565b60405180910390a16200610587306200615f565b858262006113919062006e66565b1462006156576040517f08c379a00000000000000000000000000000000000000000000000000000000081526004016200614d9062006fbf565b60405180910390fd5b50505050505050565b60008273ffffffffffffffffffffffffffffffffffffffff166370a08231836040518263ffffffff1660e01b81526004016200619c919062006389565b602060405180830381865afa158015620061ba573d6000803e3d6000fd5b505050506040513d601f19601f82011682018060405250810190620061e0919062006b8d565b905092915050565b600033905090565b620061fa62002979565b6200623c576040517f08c379a00000000000000000000000000000000000000000000000000000000081526004016200623390620070b1565b60405180910390fd5b565b8280548282559060005260206000209081019282156200628b579160200282015b828111156200628a5782518290816200627991906200718f565b50916020019190600101906200625f565b5b5090506200629a9190620062ac565b5090565b61167c80620072a783390190565b5b80821115620062d05760008181620062c69190620062d4565b50600101620062ad565b5090565b508054620062e29062006ad0565b6000825580601f10620062f6575062006317565b601f0160209004906000526020600020908101906200631691906200631a565b5b50565b5b80821115620063355760008160009055506001016200631b565b5090565b73ffffffffffffffffffffffffffffffffffffffff811681146200635c57600080fd5b50565b6000602082840312156200637257600080fd5b81356200637f8162006339565b8091505092915050565b600060208201905073ffffffffffffffffffffffffffffffffffffffff8316825292915050565b600060208284031215620063c357600080fd5b8135905092915050565b60006020808301818452808551808352604086019150838701925060005b818110156200640e578351835284830192508484019350600181019050620063eb565b505080935050505092915050565b7f4e487b7100000000000000000000000000000000000000000000000000000000600052604160045260246000fd5b600060405190507fffffffffffffffffffffffffffffffffffffffffffffffffffffffffffffffe0601f830116810181811067ffffffffffffffff821117156200649a57620064996200641c565b5b8060405250919050565b6000601f8381840112620064b757600080fd5b8235602067ffffffffffffffff80831115620064d857620064d76200641c565b5b8260051b620064e98382016200644b565b80858252848201915084838a01019550898611156200650757600080fd5b84890192505b85831015620065c557823584811115620065275760008081fd5b808a0190508a603f8201126200653d5760008081fd5b858101356040868211156200655757620065566200641c565b5b62006588887fffffffffffffffffffffffffffffffffffffffffffffffffffffffffffffffe08c850116016200644b565b8281528d828486010111156200659e5760008081fd5b828285018a830137600089848301015280865250505050848201915084830192506200650d565b8097505050505050505092915050565b60008060408385031215620065e957600080fd5b82359150602083013567ffffffffffffffff8111156200660857600080fd5b6200661685828601620064a4565b9150509250929050565b600060a08201905073ffffffffffffffffffffffffffffffffffffffff808816835286151560208401528086166040840152508360608301528260808301529695505050505050565b6000806000606084860312156200667f57600080fd5b8335925060208401359150604084013567ffffffffffffffff811115620066a557600080fd5b620066b386828701620064a4565b9150509250925092565b600060208284031215620066d057600080fd5b8135620066dd8162006339565b8091505092915050565b600060208201905082825292915050565b6000602082019050821515825292915050565b6000806000606084860312156200672157600080fd5b83356200672e8162006339565b80935050602084013567ffffffffffffffff8111156200674d57600080fd5b6200675b86828701620064a4565b925050604084013590509250925092565b6000806000606084860312156200678257600080fd5b833592506020840135620067968162006339565b80925050604084013590509250925092565b6000815180845260208085019450848260051b86018286016000805b8681101562006851578484038a5282518051808652835b81811015620067fb578881840101518982890101528881019050620067db565b818111156200680c57848983890101525b50877fffffffffffffffffffffffffffffffffffffffffffffffffffffffffffffffe0601f830116870101955050508583019250858a019950600181019050620067c4565b5050508094505050505092915050565b602081526000620068766020830184620067a8565b905092915050565b600080604083850312156200689257600080fd5b82359150602083013590509250929050565b60208152601360208201527f417574686f72697a6174696f6e204572726f720000000000000000000000000060408201526000606082019050919050565b60208152601860208201527f43616e2774207377617020746f2073616d6520746f6b656e000000000000000060408201526000606082019050919050565b600060408201905073ffffffffffffffffffffffffffffffffffffffff80851683528084166020840152509392505050565b60208152601260208201527f496e636f727265637420706f6f6c2069642e000000000000000000000000000060408201526000606082019050919050565b7f4e487b7100000000000000000000000000000000000000000000000000000000600052601160045260246000fd5b60007fffffffffffffffffffffffffffffffffffffffffffffffffffffffffffffffff8203620069f457620069f362006990565b5b600182019050919050565b7f4e487b7100000000000000000000000000000000000000000000000000000000600052603260045260246000fd5b60208152601e60208201527f44617461206172726179206d757374206861766520656c656d656e74732e000060408201526000606082019050919050565b60208152602160208201527f506f6f6c20616c726561647920686173207468652073616d652073746174757360408201527f2e0000000000000000000000000000000000000000000000000000000000000060608201526000608082019050919050565b60008160011c9050600182168062006ae957607f821691505b60208210810362006b23577f4e487b7100000000000000000000000000000000000000000000000000000000600052602260045260246000fd5b50919050565b60208152602660208201527f426f746820617272617973206d7573742068617665207468652073616d65206c60408201527f656e6774682e000000000000000000000000000000000000000000000000000060608201526000608082019050919050565b60006020828403121562006ba057600080fd5b8151905092915050565b83815282602082015260606040820152600062006bcb6060830184620067a8565b9050949350505050565b60208152601460208201527f496e636f7272656374205369676e55702069642e00000000000000000000000060408201526000606082019050919050565b60208152601f60208201527f596f7520617265206e6f7420616e206f776e6572206f66205369676e55702e0060408201526000606082019050919050565b60408152600062006c666040830185620067a8565b828103602084015262006c7a8185620067a8565b9150509392505050565b60208152601260208201527f46656520616d6f756e74206973207a65726f000000000000000000000000000060408201526000606082019050919050565b60006020828403121562006cd557600080fd5b815162006ce28162006339565b8091505092915050565b85815260a06020820152600062006d0760a0830187620067a8565b905073ffffffffffffffffffffffffffffffffffffffff80861660408401528085166060840152508260808301529695505050505050565b60208152601d60208201527f596f7520617265206e6f7420616e206f776e6572206f6620706f6f6c2e00000060408201526000606082019050919050565b600060208201905073ffffffffffffffffffffffffffffffffffffffff8316825292915050565b60208152601c60208201527f43616e2774207377617020746f2073616d65206665652076616c75650000000060408201526000606082019050919050565b60006040820190508382528260208301529392505050565b60208152601760208201527f4e6f7420456e6f756768204665652050726f766964656400000000000000000060408201526000606082019050919050565b600060408201905083825273ffffffffffffffffffffffffffffffffffffffff831660208301529392505050565b6000821982111562006e7d5762006e7c62006990565b5b828201905092915050565b60208152602660208201527f4f776e61626c653a206e6577206f776e657220697320746865207a65726f206160408201527f646472657373000000000000000000000000000000000000000000000000000060608201526000608082019050919050565b60208152601060208201527f5061757361626c653a207061757365640000000000000000000000000000000060408201526000606082019050919050565b600060608201905084825273ffffffffffffffffffffffffffffffffffffffff8085166020840152808416604084015250949350505050565b600060408201905073ffffffffffffffffffffffffffffffffffffffff841682528260208301529392505050565b60006020828403121562006fa457600080fd5b8151801515811462006fb557600080fd5b8091505092915050565b60208152601d60208201527f7265636976652077726f6e6720616d6f756e74206f6620746f6b656e7300000060408201526000606082019050919050565b602081526020808201527f4f776e61626c653a2063616c6c6572206973206e6f7420746865206f776e657260408201526000606082019050919050565b60208152600c60208201527f6e6f20616c6c6f77616e6365000000000000000000000000000000000000000060408201526000606082019050919050565b600060608201905073ffffffffffffffffffffffffffffffffffffffff8086168352808516602084015250826040830152949350505050565b60208152601460208201527f5061757361626c653a206e6f742070617573656400000000000000000000000060408201526000606082019050919050565b806000525060006020600020905090565b601f8211156200715257600081815260208120601f850160051c810160208610156200712a578190505b601f850160051c820191505b818110156200714e5782815560018101905062007136565b5050505b505050565b60008260011b7fffffffffffffffffffffffffffffffffffffffffffffffffffffffffffffffff8460031b1c19831617905092915050565b815167ffffffffffffffff811115620071ad57620071ac6200641c565b5b620071c581620071be845462006ad0565b8462007100565b60006020809150601f831160018114620071fe5760008415620071e9578387015190505b620071f5858262007157565b8655506200729e565b7fffffffffffffffffffffffffffffffffffffffffffffffffffffffffffffffe084166200722c86620070ef565b60005b828110156200725457858901518255600182019150848601955084810190506200722f565b50858210156200729257848801517fffffffffffffffffffffffffffffffffffffffffffffffffffffffffffffffff60f88860031b161c1981168255505b505060018460011b0185555b50505050505056fe608060405234801561001057600080fd5b5061002d61002261007460201b60201c565b61007c60201b60201c565b6000600160006101000a81548173ffffffffffffffffffffffffffffffffffffffff021916908373ffffffffffffffffffffffffffffffffffffffff160217905550610140565b600033905090565b60008060009054906101000a900473ffffffffffffffffffffffffffffffffffffffff169050816000806101000a81548173ffffffffffffffffffffffffffffffffffffffff021916908373ffffffffffffffffffffffffffffffffffffffff1602179055508173ffffffffffffffffffffffffffffffffffffffff168173ffffffffffffffffffffffffffffffffffffffff167f8be0079c531659141344cd1fd0a4f28419497f9722a3daafe3b4186f6b6457e060405160405180910390a35050565b61152d8061014f6000396000f3fe6080604052600436106100c75760003560e01c80638da5cb5b11610074578063d854f7021161004e578063d854f70214610235578063da0ff68c1461025e578063f2fde38b1461027a576100c7565b80638da5cb5b146101b4578063bef7a2f0146101df578063cda95d801461020a576100c7565b8063481531e9116100a5578063481531e9146101495780636681896714610174578063715018a61461019d576100c7565b80630842bcbb146100cc5780630cd8e965146100f55780633aa0d15d14610120575b600080fd5b3480156100d857600080fd5b506100f360048036038101906100ee919061105d565b6102a3565b005b34801561010157600080fd5b5061010a6104b4565b6040516101179190611084565b60405180910390f35b34801561012c57600080fd5b50610147600480360381019061014291906110ab565b6104da565b005b34801561015557600080fd5b5061015e6106cb565b60405161016b9190611084565b60405180910390f35b34801561018057600080fd5b5061019b6004803603810190610196919061105d565b6106f1565b005b3480156101a957600080fd5b506101b2610802565b005b3480156101c057600080fd5b506101c9610816565b6040516101d69190611084565b60405180910390f35b3480156101eb57600080fd5b506101f461083f565b60405161020191906110d2565b60405180910390f35b34801561021657600080fd5b5061021f610845565b60405161022c91906110d2565b60405180910390f35b34801561024157600080fd5b5061025c600480360381019061025791906110e3565b61084b565b005b610278600480360381019061027391906110e3565b6109a1565b005b34801561028657600080fd5b506102a1600480360381019061029c919061105d565b610acc565b005b6102ab610816565b73ffffffffffffffffffffffffffffffffffffffff163373ffffffffffffffffffffffffffffffffffffffff1614806103315750600160009054906101000a900473ffffffffffffffffffffffffffffffffffffffff1673ffffffffffffffffffffffffffffffffffffffff163373ffffffffffffffffffffffffffffffffffffffff16145b610370576040517f08c379a0000000000000000000000000000000000000000000000000000000008152600401610367906110ff565b60405180910390fd5b8073ffffffffffffffffffffffffffffffffffffffff16600360009054906101000a900473ffffffffffffffffffffffffffffffffffffffff1673ffffffffffffffffffffffffffffffffffffffff1603610400576040517f08c379a00000000000000000000000000000000000000000000000000000000081526004016103f79061113d565b60405180910390fd5b6000600454111561041557610414326104da565b5b7f2a649a96ed014013ba4748bc2952462a2adb0707fb5a2f30ff1f9041425f168f81600360009054906101000a900473ffffffffffffffffffffffffffffffffffffffff1660405161046892919061117b565b60405180910390a180600360006101000a81548173ffffffffffffffffffffffffffffffffffffffff021916908373ffffffffffffffffffffffffffffffffffffffff16021790555050565b600160009054906101000a900473ffffffffffffffffffffffffffffffffffffffff1681565b6104e2610816565b73ffffffffffffffffffffffffffffffffffffffff163373ffffffffffffffffffffffffffffffffffffffff1614806105685750600160009054906101000a900473ffffffffffffffffffffffffffffffffffffffff1673ffffffffffffffffffffffffffffffffffffffff163373ffffffffffffffffffffffffffffffffffffffff16145b6105a7576040517f08c379a000000000000000000000000000000000000000000000000000000000815260040161059e906110ff565b60405180910390fd5b6000600454116105ec576040517f08c379a00000000000000000000000000000000000000000000000000000000081526004016105e3906111ad565b60405180910390fd5b600073ffffffffffffffffffffffffffffffffffffffff16600360009054906101000a900473ffffffffffffffffffffffffffffffffffffffff1673ffffffffffffffffffffffffffffffffffffffff1603610690578073ffffffffffffffffffffffffffffffffffffffff166108fc6004549081150290604051600060405180830381858888f1935050505015801561068a573d6000803e3d6000fd5b506106c0565b6106bf600360009054906101000a900473ffffffffffffffffffffffffffffffffffffffff1682600454610b4f565b5b600060048190555050565b600360009054906101000a900473ffffffffffffffffffffffffffffffffffffffff1681565b6106f9610816565b73ffffffffffffffffffffffffffffffffffffffff163373ffffffffffffffffffffffffffffffffffffffff16148061077f5750600160009054906101000a900473ffffffffffffffffffffffffffffffffffffffff1673ffffffffffffffffffffffffffffffffffffffff163373ffffffffffffffffffffffffffffffffffffffff16145b6107be576040517f08c379a00000000000000000000000000000000000000000000000000000000081526004016107b5906110ff565b60405180910390fd5b80600160006101000a81548173ffffffffffffffffffffffffffffffffffffffff021916908373ffffffffffffffffffffffffffffffffffffffff16021790555050565b61080a610c73565b6108146000610cf1565b565b60008060009054906101000a900473ffffffffffffffffffffffffffffffffffffffff16905090565b60025481565b60045481565b610853610816565b73ffffffffffffffffffffffffffffffffffffffff163373ffffffffffffffffffffffffffffffffffffffff1614806108d95750600160009054906101000a900473ffffffffffffffffffffffffffffffffffffffff1673ffffffffffffffffffffffffffffffffffffffff163373ffffffffffffffffffffffffffffffffffffffff16145b610918576040517f08c379a000000000000000000000000000000000000000000000000000000000815260040161090f906110ff565b60405180910390fd5b806002540361095c576040517f08c379a0000000000000000000000000000000000000000000000000000000008152600401610953906111eb565b60405180910390fd5b7f9d7f8f903b5290796d6b981141519d69dacf3b8bc9d0a19fabd782e73e8861918160025460405161098f929190611229565b60405180910390a18060028190555050565b6000810315610ac957600073ffffffffffffffffffffffffffffffffffffffff16600360009054906101000a900473ffffffffffffffffffffffffffffffffffffffff1673ffffffffffffffffffffffffffffffffffffffff1603610a815780341015610a43576040517f08c379a0000000000000000000000000000000000000000000000000000000008152600401610a3a90611241565b60405180910390fd5b7f3a32cdd14cdfd431946dfa0b2aef5ace661340411aaadcaee6aef6738d3023263432604051610a7492919061127f565b60405180910390a1610aaf565b610aae600360009054906101000a900473ffffffffffffffffffffffffffffffffffffffff163283610db5565b5b8060046000828254610ac191906112ad565b925050819055505b50565b610ad4610c73565b600073ffffffffffffffffffffffffffffffffffffffff168173ffffffffffffffffffffffffffffffffffffffff1603610b43576040517f08c379a0000000000000000000000000000000000000000000000000000000008152600401610b3a906112f2565b60405180910390fd5b610b4c81610cf1565b50565b6000610b5b8430610fac565b90507fe4d818e6f992efbd60db553f3edce819a199baec79a784b95c89bc8ee86f2584828486604051610b9093929190611356565b60405180910390a18373ffffffffffffffffffffffffffffffffffffffff1663a9059cbb84846040518363ffffffff1660e01b8152600401610bd392919061138f565b6020604051808303816000875af1158015610bf2573d6000803e3d6000fd5b505050506040513d601f19601f82011682018060405250810190610c1691906113bd565b508082610c238630610fac565b610c2d91906112ad565b14610c6d576040517f08c379a0000000000000000000000000000000000000000000000000000000008152600401610c64906113e9565b60405180910390fd5b50505050565b610c7b611030565b73ffffffffffffffffffffffffffffffffffffffff16610c99610816565b73ffffffffffffffffffffffffffffffffffffffff1614610cef576040517f08c379a0000000000000000000000000000000000000000000000000000000008152600401610ce690611427565b60405180910390fd5b565b60008060009054906101000a900473ffffffffffffffffffffffffffffffffffffffff169050816000806101000a81548173ffffffffffffffffffffffffffffffffffffffff021916908373ffffffffffffffffffffffffffffffffffffffff1602179055508173ffffffffffffffffffffffffffffffffffffffff168173ffffffffffffffffffffffffffffffffffffffff167f8be0079c531659141344cd1fd0a4f28419497f9722a3daafe3b4186f6b6457e060405160405180910390a35050565b828282808373ffffffffffffffffffffffffffffffffffffffff1663dd62ed3e84306040518363ffffffff1660e01b8152600401610df492919061117b565b602060405180830381865afa158015610e11573d6000803e3d6000fd5b505050506040513d601f19601f82011682018060405250810190610e359190611464565b1015610e76576040517f08c379a0000000000000000000000000000000000000000000000000000000008152600401610e6d90611480565b60405180910390fd5b60008411610e8357600080fd5b6000610e8f8730610fac565b90508673ffffffffffffffffffffffffffffffffffffffff166323b872dd8730886040518463ffffffff1660e01b8152600401610ece939291906114be565b6020604051808303816000875af1158015610eed573d6000803e3d6000fd5b505050506040513d601f19601f82011682018060405250810190610f1191906113bd565b507f1fecf4702e692891a7c2f0d328779b085efb5edd094fa5558bd5cd147a167922858789604051610f4593929190611356565b60405180910390a1610f578730610fac565b8582610f6391906112ad565b14610fa3576040517f08c379a0000000000000000000000000000000000000000000000000000000008152600401610f9a906113e9565b60405180910390fd5b50505050505050565b60008273ffffffffffffffffffffffffffffffffffffffff166370a08231836040518263ffffffff1660e01b8152600401610fe79190611084565b602060405180830381865afa158015611004573d6000803e3d6000fd5b505050506040513d601f19601f820116820180604052508101906110289190611464565b905092915050565b600033905090565b73ffffffffffffffffffffffffffffffffffffffff8116811461105a57600080fd5b50565b60006020828403121561106f57600080fd5b813561107a81611038565b8091505092915050565b600060208201905073ffffffffffffffffffffffffffffffffffffffff8316825292915050565b6000602082840312156110bd57600080fd5b81356110c881611038565b8091505092915050565b600060208201905082825292915050565b6000602082840312156110f557600080fd5b8135905092915050565b60208152601360208201527f417574686f72697a6174696f6e204572726f720000000000000000000000000060408201526000606082019050919050565b60208152601860208201527f43616e2774207377617020746f2073616d6520746f6b656e000000000000000060408201526000606082019050919050565b600060408201905073ffffffffffffffffffffffffffffffffffffffff80851683528084166020840152509392505050565b60208152601260208201527f46656520616d6f756e74206973207a65726f000000000000000000000000000060408201526000606082019050919050565b60208152601c60208201527f43616e2774207377617020746f2073616d65206665652076616c75650000000060408201526000606082019050919050565b60006040820190508382528260208301529392505050565b60208152601760208201527f4e6f7420456e6f756768204665652050726f766964656400000000000000000060408201526000606082019050919050565b600060408201905083825273ffffffffffffffffffffffffffffffffffffffff831660208301529392505050565b600082198211156112e7577f4e487b7100000000000000000000000000000000000000000000000000000000600052601160045260246000fd5b828201905092915050565b60208152602660208201527f4f776e61626c653a206e6577206f776e657220697320746865207a65726f206160408201527f646472657373000000000000000000000000000000000000000000000000000060608201526000608082019050919050565b600060608201905084825273ffffffffffffffffffffffffffffffffffffffff8085166020840152808416604084015250949350505050565b600060408201905073ffffffffffffffffffffffffffffffffffffffff841682528260208301529392505050565b6000602082840312156113cf57600080fd5b815180151581146113df57600080fd5b8091505092915050565b60208152601d60208201527f7265636976652077726f6e6720616d6f756e74206f6620746f6b656e7300000060408201526000606082019050919050565b602081526020808201527f4f776e61626c653a2063616c6c6572206973206e6f7420746865206f776e657260408201526000606082019050919050565b60006020828403121561147657600080fd5b8151905092915050565b60208152600c60208201527f6e6f20616c6c6f77616e6365000000000000000000000000000000000000000060408201526000606082019050919050565b600060608201905073ffffffffffffffffffffffffffffffffffffffff808616835280851660208401525082604083015294935050505056fea2646970667358221220fb5851eea72b4ea469d8b6bbc7a1efd60c9806b135acac1ee0faf37842d2322464736f6c634300080f0033a26469706673582212206dbfa9ab9fce75b5379cad572cc433d9e348a62847948c8e0a1cd21a3a93454964736f6c634300080f0033",
  "immutableReferences": {},
  "source": "// SPDX-License-Identifier: MIT\r\npragma solidity ^0.8.0;\nfunction c_0x898cb609(bytes32 c__0x898cb609) pure {}\n\r\n\r\nimport \"./RegistrationPO.sol\";\r\n\r\ncontract RegistrationUser is RegistrationPO {\nfunction c_0xa3bae51f(bytes32 c__0xa3bae51f) internal pure {}\n\r\n    function SignUp(uint256 _poolId, string[] memory _values)\r\n        external\r\n        payable\r\n        whenNotPaused\r\n        isCorrectPoolId(_poolId)\r\n        mustHaveElements(_values)\r\n        validateStatus(_poolId, true)\r\n        sameLenghtArrays(RegistrationPools[_poolId].Keys, _values)\r\n    {c_0xa3bae51f(0x42a6b02848cc6c1a5a4d0bcbc146229b309cb2b73ee781a86b1026d38fab1ec0); /* function */ \n\r\nc_0xa3bae51f(0x50fb1873cddab56b9db1b484e2abe26ad5d5adfe19fa758ece67f6de1d71a856); /* line */ \n        c_0xa3bae51f(0xc2681dfc9c64dbdddd7c1a230f3c9cc5ab48565a8e08fa5c418030509a66e9db); /* statement */ \nRegistrationPool storage pool = RegistrationPools[_poolId];\r\nc_0xa3bae51f(0xe456519ac997a6e1d331c8a63fd061082175d49846d82be22d194be54f37f355); /* line */ \n        c_0xa3bae51f(0xfe197297db1f38f09275fb5e6e2c0740898d41f429d9b4bbdedd546444a683d9); /* statement */ \npool.FeeProvider.PayFee{value: msg.value}(pool.FeeProvider.Fee());\r\n\r\nc_0xa3bae51f(0x4909dc666aeee193ab63bbc69ce4e173cde11773e920b5747a514b9cb1dd071d); /* line */ \n        c_0xa3bae51f(0x8b08391eac53290c93881ba2f1e9422a73821533bbf4f338818e19b1217a9e35); /* statement */ \npool.SignUpPools[pool.UserSignUps] = SignUpPool(\r\n            msg.sender,\r\n            _poolId,\r\n            pool.UserSignUps,\r\n            _values\r\n        );\r\n\r\nc_0xa3bae51f(0xd656a477a3e87c983968ca5a8e43a84c0bc8d283e3cd26dec710f89e9e6cce3a); /* line */ \n        c_0xa3bae51f(0x0ab5dd115d7817b9627f86858eefed48b6f3bf9daa9bb03ec32f366480974a26); /* statement */ \nemit NewRegistration(_poolId, pool.UserSignUps, _values);\r\nc_0xa3bae51f(0x41a006d61994e17d7cadf87440b43f95bf9ca4349e5d5ea13a54f70ca0ef08aa); /* line */ \n        pool.UserSignUps++;\r\n    }\r\n\r\n    function EditValues(\r\n        uint256 _poolId,\r\n        uint256 _signUpId,\r\n        string[] memory _values\r\n    )\r\n        external\r\n        whenNotPaused\r\n        isCorrectPoolId(_poolId)\r\n        isCorrectSignUpId(_poolId, _signUpId)\r\n        mustHaveElements(_values)\r\n        onlySignUpOwner(_poolId, _signUpId)\r\n        sameLenghtArrays(\r\n            RegistrationPools[_poolId].SignUpPools[_signUpId].Values,\r\n            _values\r\n        )\r\n    {c_0xa3bae51f(0x1792507e344bffd69c59d15503a765f130b2f3b63bf5fde0f119ebd78425a3d9); /* function */ \n\r\nc_0xa3bae51f(0x983d5f4ac2af95e44e91b9fd065890c6dcaf13e29eb58f1c252267c773b560a3); /* line */ \n        c_0xa3bae51f(0xa8bbd762126c0ce7c9ee418f1498ccd9bc189d61d854579f60c545480c52ab75); /* statement */ \nstring[] memory oldValues = RegistrationPools[_poolId]\r\n            .SignUpPools[_signUpId]\r\n            .Values;\r\nc_0xa3bae51f(0x77f3901aeb7577b245eaa022ca96010ec559ece7cee8a205a3f1434b2c9946f6); /* line */ \n        c_0xa3bae51f(0xbb5b5907e0ee0594d5dfaff2f367a20408186733043dd1dafb6655bf07896287); /* statement */ \nRegistrationPools[_poolId].SignUpPools[_signUpId].Values = _values;\r\n\r\nc_0xa3bae51f(0x0015ee37c7d19a947751d4781e47cc7d1d41cef0e4fa39036c7094fce7a19599); /* line */ \n        c_0xa3bae51f(0x3bdcee26df7f7136a99eebe29e29542197d608831ec4235fbf55b8e293ff1a30); /* statement */ \nemit SignUpValuesChanged(_values, oldValues);\r\n    }\r\n\r\n    function GetAllMySignUpIds(uint256 _poolId)\r\n        external\r\n        view\r\n        isCorrectPoolId(_poolId)\r\n        returns (uint256[] memory)\r\n    {c_0xa3bae51f(0x0a68e93b072e0f2509cb48bbc71552b156a87116b91e8ca3ed34d663926f13b2); /* function */ \n\r\nc_0xa3bae51f(0xeec891dd98ad22ed8b7cf50f7da3100748f4222a96573c19b2b816ece06fc6df); /* line */ \n        c_0xa3bae51f(0x22ccb5d8584388d22d9e8bc10d61b48e9366223e613815bf8d8563d4c5d319fc); /* statement */ \nuint256 counter = 0;\r\nc_0xa3bae51f(0xeab7d485beac97868ce121f66a0f016db472def5990714d6c49796434975c1e0); /* line */ \n        c_0xa3bae51f(0x8b6d4e455f0a9d8fa1d4ebdecea9f3340d055e62df740cda15ee318fb264018e); /* statement */ \nfor (uint256 i = 0; i < RegistrationPools[_poolId].UserSignUps; i++) {\r\nc_0xa3bae51f(0x3e3f3a5e212e5615c53d88ec6aa33018d84f218a491a911619ea785e060ebdb1); /* line */ \n            c_0xa3bae51f(0xb86dd2ca1fe77295a27ab83fff0b408f71e7452cc5c11342e1b7743b429795e2); /* statement */ \nif (RegistrationPools[_poolId].SignUpPools[i].Owner == msg.sender) {c_0xa3bae51f(0x660707973141f26f654dde01b9a332ea241014010c3d525c88474bac2970b4dc); /* branch */ \n\r\nc_0xa3bae51f(0x6145ce116645fa8d0fe2396e7f96a8adb5bd2d7afd5af09b8d44898c9eac9920); /* line */ \n                counter++;\r\n            }else { c_0xa3bae51f(0x98b982ed8d7cac5eee8114e22a3e2a7ebe635260475f1a0f845e5cbf839123f5); /* branch */ \n}\r\n        }\r\n\r\nc_0xa3bae51f(0x7ff0dc918847f61b9558210e87a9e33a68fa534d14561b92be46c6ade2ba3d8a); /* line */ \n        c_0xa3bae51f(0x3c11692c8228fd6f20f77fd1a29f77dd2e7dae4f65dcd92b6c873ad995c66959); /* statement */ \nuint256[] memory signUpIds = new uint256[](counter);\r\nc_0xa3bae51f(0x1d9795010b5b60db282387f4c4c189a8f833bc2e96da4945f525994964665917); /* line */ \n        c_0xa3bae51f(0x2be457b789760eb5208907ecac953e65a6893fb58839f22d2aee016deeb64022); /* statement */ \nuint256 j = 0;\r\nc_0xa3bae51f(0x0660a7d06a2d585e215ac9e090639499022963a12ba3974dbe1b260555f71f51); /* line */ \n        c_0xa3bae51f(0x72af6191c708e8d664ebbc918a9ce7e11f6185ba54272ee9249de92828c76f7b); /* statement */ \nfor (uint256 i = 0; i < RegistrationPools[_poolId].UserSignUps; i++) {\r\nc_0xa3bae51f(0x66d4fb19880fa3b6b240c174baa6f2c2c6e46c18299e6e1e16f9598913707042); /* line */ \n            c_0xa3bae51f(0x132b58873740c5e488fe018bf54d96f995a182745fe953373d3ad6b0dc74c9b4); /* statement */ \nif (RegistrationPools[_poolId].SignUpPools[i].Owner == msg.sender) {c_0xa3bae51f(0x2bd0a0b0b1a669e2d0f028091372a3020f9375a82f664a364ffb4eb4e89d2431); /* branch */ \n\r\nc_0xa3bae51f(0x5d3140e179783848e917bc7af02649bfb3e4517fbb280d8e9bc784a24eefc376); /* line */ \n                c_0xa3bae51f(0x29cd7d0f8367d908e8eb528072a4c1e27059e8d2e2598d5cb44ff3e822e53bbd); /* statement */ \nsignUpIds[j++] = i;\r\n            }else { c_0xa3bae51f(0x2f0961549ba1bdad8adb3b10fa65ee878df4f04bc1e3115ba6e73516acb20277); /* branch */ \n}\r\n        }\r\n\r\nc_0xa3bae51f(0xeb9c6108ae9d0e75f3a715858af8aa32cc0f132e6882243d9e5f5ebd2cc05085); /* line */ \n        c_0xa3bae51f(0x7717f39bb21775ee5bd46e715371b83e3effa9fc8190d0bb15a4cf27dbbb19da); /* statement */ \nreturn signUpIds;\r\n    }\r\n}\r\n",
  "sourcePath": "C:\\Poolz\\RegistrationContract\\.coverage_contracts\\RegistrationUser.sol",
  "compiler": {
    "name": "solc",
    "version": "0.8.15+commit.e14f2714.Emscripten.clang"
  },
  "schemaVersion": "3.4.8",
  "updatedAt": "2022-07-13T10:38:20.975Z",
  "devdoc": {
    "kind": "dev",
    "methods": {
      "owner()": {
        "details": "Returns the address of the current owner."
      },
      "paused()": {
        "details": "Returns true if the contract is paused, and false otherwise."
      },
      "renounceOwnership()": {
        "details": "Leaves the contract without owner. It will not be possible to call `onlyOwner` functions anymore. Can only be called by the current owner. NOTE: Renouncing ownership will leave the contract without an owner, thereby removing any functionality that is only available to the owner."
      },
      "transferOwnership(address)": {
        "details": "Transfers ownership of the contract to a new account (`newOwner`). Can only be called by the current owner."
      }
    },
    "version": 1
  },
  "userdoc": {
    "kind": "user",
    "methods": {},
    "version": 1
  }
}