{
  "contractName": "RegistrationData",
  "abi": [
    {
      "inputs": [
        {
          "internalType": "uint256",
          "name": "",
          "type": "uint256"
        }
      ],
      "name": "RegistrationPools",
      "outputs": [
        {
          "internalType": "address",
          "name": "Owner",
          "type": "address"
        },
        {
          "internalType": "bool",
          "name": "IsActive",
          "type": "bool"
        },
        {
          "internalType": "contract FeeBaseHelper",
          "name": "FeeProvider",
          "type": "address"
        },
        {
          "internalType": "uint256",
          "name": "UserSignUps",
          "type": "uint256"
        },
        {
          "internalType": "uint256",
          "name": "TotalKeys",
          "type": "uint256"
        }
      ],
      "stateMutability": "view",
      "type": "function"
    },
    {
      "inputs": [],
      "name": "TotalPools",
      "outputs": [
        {
          "internalType": "uint256",
          "name": "",
          "type": "uint256"
        }
      ],
      "stateMutability": "view",
      "type": "function"
    }
  ],
  "bytecode": "0x608060405234801561001057600080fd5b506101c2806100206000396000f3fe608060405234801561001057600080fd5b50600436106100365760003560e01c8063273b3b291461003b578063424b93111461006f575b600080fd5b61005560048036038101906100509190610116565b61008d565b604051610066959493929190610132565b60405180910390f35b610077610110565b604051610084919061017b565b60405180910390f35b60006020528060005260406000206000915090508060000160009054906101000a900473ffffffffffffffffffffffffffffffffffffffff16908060020160009054906101000a900460ff16908060020160019054906101000a900473ffffffffffffffffffffffffffffffffffffffff16908060030154908060040154905085565b60015481565b60006020828403121561012857600080fd5b8135905092915050565b600060a08201905073ffffffffffffffffffffffffffffffffffffffff808816835286151560208401528086166040840152508360608301528260808301529695505050505050565b60006020820190508282529291505056fea2646970667358221220e8260f1ca9b3ae5a71c3f5e1962019921bdbb9da2fa24802d75cb1744d55bc7864736f6c634300080f0033",
  "immutableReferences": {},
  "source": "// SPDX-License-Identifier: MIT\r\npragma solidity ^0.8.0;\nfunction c_0x0cc80a10(bytes32 c__0x0cc80a10) pure {}\n\r\n\r\nimport \"poolz-helper-v2/contracts/FeeBaseHelper.sol\";\r\n\r\ncontract RegistrationData {\nfunction c_0xc58a8a46(bytes32 c__0xc58a8a46) internal pure {}\n\r\n    mapping(uint256 => RegistrationPool) public RegistrationPools;\r\n    uint256 public TotalPools;\r\n\r\n    struct RegistrationPool {\r\n        address Owner;\r\n        string[] Keys;\r\n        bool IsActive;\r\n        FeeBaseHelper FeeProvider;\r\n        uint256 UserSignUps;\r\n        uint256 TotalKeys;\r\n        mapping(uint256 => SignUpPool) SignUpPools;\r\n    }\r\n\r\n    struct SignUpPool {\r\n        address Owner;\r\n        uint256 PoolId;\r\n        uint256 SignUpId;\r\n        string[] Values;\r\n    }\r\n}\r\n",
  "sourcePath": "C:\\Poolz\\RegistrationContract\\.coverage_contracts\\RegistrationData.sol",
  "compiler": {
    "name": "solc",
    "version": "0.8.15+commit.e14f2714.Emscripten.clang"
  },
  "schemaVersion": "3.4.8",
  "updatedAt": "2022-07-13T10:38:20.960Z",
  "devdoc": {
    "kind": "dev",
    "methods": {},
    "version": 1
  },
  "userdoc": {
    "kind": "user",
    "methods": {},
    "version": 1
  }
}